:020000041000EA
:4000000000400208230100100D00000085010010000000000000000000000000000000000000000000000000000000008101001000000000000000008101001081010010E9
:400040008101001081010010810100108101001081010010810100108101001081010010810100108101001081010010810100108101001081010010810100108101001060
:400080008101001081010010810100108101001081010010810100108101001081010010810100108101001081010010810100108101001081010010810100108101001020
:4000C00010B5064C2378002B07D1054B002B02D0044800E000BF0123237010BDEC2F0008000000000CA60010084B10B5002B03D00749084800E000BF07480368002B00D19F
:4001000010BD064B002BFBD09847F9E700000000F02F00080CA60010B4010008000000007047FFF7FDFF72B60F4C104DAC4209DA21686268A368043B02DBC858D050FAE751
:400140000C34F3E70A490B4A0020521A02DD043A8850FCDC084809490860BFF34F8F00F0F9FB00F079FAFEE710A6001028A60010EC2F0008E03200080000000808ED00E0E0
:40018000FEE7FEE700B504207146084202D0EFF3098001E0EFF30880043002F0D5FDFEE710B50021002004F0C3F810BDF0B58DB0060000230B930A93099308930793069304
:4001C00005AD2B706B70284C284F0097643300227421200001F0C0FF0B90012002F060FD3B0064223100200002F036F90A90012002F056FD0097642301227421200002F011
:400200002BF80990012002F04BFD009764232A000021200002F0BEF80890012002F040FD0097642315226A440121200002F0B2F80690012002F034FD3A006421200002F002
:4002400077F807900B990A9A099B0898069C079E029601940090064806F0E8FF687800022B7818430DB0F0BD000067409032000848990010F0B587B007000E000023059365
:40028000049303930293174C174D0095643300227421200001F060FF0590012002F000FD2B0064223900200002F0D6F804902B0064223100200002F0CFF80390012002F0FE
:4002C000EFFC2A006421200002F032F802900599049A039B02980090044806F0A7FF07B0F0BDC0460000674090320008A0990010F8B506000D0014001F0083210020FFF7D9
:40030000B9FF402002F0CCFC0120FFF74FFF38800220FFF74BFF30800320FFF747FF28800420FFF743FF208042210020FFF7A2FFF8BDC04670B582B004000D0016000B4B10
:40034000188806F03FF90A4A0A4B05F037FB084A094B05F0ADFD0090019133002A002100064806F063FF02B070BDC046463200089A9999999999A93F99B95040D099001015
:40038000F0B583B005000F0014000193224B188806F018F9214A224B05F010FB1F4A214B05F086FD06F0D8F80600E9190919312901DC012400E00024089800F089FB0028E4
:4003C00002D0194806F0AEFF3100019800F080FB002802D0154806F0A5FF0123092C00DC0023134A53600C4B188806F0EBF80B4A0B4B05F0E3FA094A0A4B05F059FD012434
:4004000000220C4B04F0AAF9002800D10024084B9C6003B0F0BDC046463200089A9999999999A93F99B950402C9A00104C9A00100830000800003440F8B507000E001500A2
:400440001C000F4BD86806F077FF092C04DD00232B8033803B8011E006F09CFF142104F043F9398006F096FF142104F03DF9318006F090FF142104F037F92980F8BDC0468B
:400480000830000810B513000A000100014806F0CDFE10BD709A001070B5FA246400074803F0F8FB0500013C052002F0F9FB002D01D0002CF3D1280070BDC046E0A2001024
:4004C00070B5FA2464000121064803F073FC0500013C052002F0E4FB002D01D0002CF2D1280070BDC000000810B5FFF7D5FF002804D05C210F4802F0F9FB0BE0FFF7E0FF3C
:40050000002804D06F210B4802F0F0FB02E0022003F0FAFE084C0949200002F05FFB0023E25E002A05DB1F231A401E3B9340044A136010BD609B0010249C0010A1010010AE
:4005400000E100E00122014B1A6270470830000810B5094C012323712368581D3C2103F0D9FF2160FFF7ACFF002804D097214900024802F0BBFB10BDC0000008609B00102D
:40058000F0B5474680B482B02F4B586A00F0E6FA80460023019300250026002717E02A4C01A9606A00F0B8FA019B9C4667441900606A00F08DFA01A9A06A00F0ADFA019BBB
:4005C0009C466644A06A190000F082FA01354545E5DB4146380003F0A1FF05004146300003F09CFF0400280004F07CFD174904F09BFA174904F062FC051C154904F0DEF847
:40060000002800D0124D200004F06CFD0F4904F08BFA0F4904F052FC041C0D4904F0CEF8002800D00A4C211C281C04F007F906F043F80022074B05F0C1F905F08DFF02B001
:4006400004BC9046F0BDC046083000080000C8410000C8420000E03FF0B585B062B6404800F0FEF900F072FC3E4B1B68586800230222002106F0DCFE03F0A0FE3A4802F0F7
:400680000FFBFFF731FF00F019FA384C606200F015FAA06200F012FAE06200F00FFA2063334D344E344F354B2A0031003800FFF71FFE2A8831883888FFF73CFE2B4CA36A7C
:4006C0009C462A8831883888636A00936346FFF757FE636A99682A4806F0A8FDE3680133E3603A883388D3182A88D318254F264E264D3A0031002800FFF79EFE3A883188FC
:400700002888FFF7BFFEFA20400002F0C9FA236A002B04D00022154B1A62FFF719FFFFF72FFF01001A4806F081FD104B586A8368172B0CDD0023039303A900F0EDF90B4BF0
:40074000986A03A900F0E8F9124806F0EBFDFA20400002F0A5FA002002F0B0FEA0E7C046000008107001000888130000083000084E320008403200084A3200084632000818
:40078000849B0010443200085032000852320008A49B0010B89B001010B5002001F0BCF910BDC04670B56249E0239B00CB580F2213401A00D0329200525807210A40032A5A
:4007C00005D0042A06D0002A12D15A4814E05A4A106811E01A00C0329200554952581F210A40112A06D0132A04D0FA20C00103E0524801E080200002002B36D14C4BB22266
:40080000D2009A5801211140B125ED005A59120F032422405B591B0F1C4207D0444C63591B0F03242340012B02D102E0012300E00023002B01D0002901D1032A4BD13C4B7F
:40084000B022D2009D58AD03AD0B3D495958C904C90C9C58240E01231C40013403F0D4FD6843210003F0D0FD35E0012B33D1304BC822D2009A5801251540C024E4001A594F
:40088000120F03210A401B591B0F194207D028490B591B0F03210B40012B02D102E0012300E00023002B01D0002D01D1032A12D11F4DC022D200AB587F210B40A958090A36
:4008C0001F263140AC58240C3440584303F09CFD210003F099FDE0239B00154AD3581B0903221340D840144C6060164B1D692D0AFC32154001351969090E013103F084FDB7
:40090000A060290003F080FD0500E06020610E4BC0180E4903F078FD20750D4BE818FA21890003F071FDA061C003E06170BDC0460000264000127A00F000000800366E01AF
:4009400084050000000021403F420F0040420F00E703000010B5284802F05CFE274CB022D200A3585B005B08A350E0218900635830208343635080235B04A350204A214B65
:40098000E250A02292010433E250FF221E4BE25002F02EFEC0225200A35801218B43A35000F054FAFFF7FEFEB0235B055B78002B04D0B0235B055B78DBB200E02123212B23
:4009C00003D1124B0022DA605A60114C22008021042000F047FE2000103000F0DBFE0D4B1A685123D35C002B02D00B4800F048FF00F076FB10BDC04690A10010000026402F
:400A000001000200840500008C050000E00023403C3000088C320008D09B00108023024AD3580320184070470000214010B502F01CFA084980228C58074B2340074C2343E2
:400A40008B508823034AD358DB06FAD502F011FA10BDC04600002140FCFF00000100FA0570B50500830504D0E821FF310F4802F03DF902F0FAF90400FFF7D0FF032801D1B3
:400A8000FFF7D4FF0A4AB0239B00D55080215058084B03400848034353508823044AD358DB06FAD5200002F0E4F970BD049C001000002140FCFF00000300FA0510B50C207F
:400AC00005F06CFE002343600360836010BDC04670B504000D00002815D0002916D0082005F05CFE002814D00560002343606368002B01D0586000E020606060A3680133DA
:400B0000A360002007E00120404204E00120404201E00120404270BD70B5041E13D0002914D08368002B14D0006803680B60456805F03EFE2560A368581EA06000280BD179
:400B40000023636009E00120404206E00120404203E00120404200E0002070BD002801D0806801E0012040427047C04610B504002100034801F002F80028F9D010BDC046C1
:400B800000006640C2239B00034AD358DB05F9D0D0239B00D058704700006640FEE7C046014A024B1A60704701001180000E1F4130B587B0934A116808230B431360924CEB
:400BC00003E0012002F086F8013C8E4B1B695B0701D4002CF5D1002C01D18C4B00E00023002B02D00520FFF7D9FF8948A021C900435803229343023A13434350854A116898
:400C000008688823CB58C31818688349084018601368186884241B59C01803681B021B0A80256D042B430360106805680359EB1818680140196013683E229A5C002A06D0BD
:400C40007348E02189004258753CA24342503E229A5C002A06D06E48E021890042583024A24342503E229B5C002B07D06849E02292008B588020000603438B5000210120E8
:400C800001F0F8FD0021022001F0F4FD0021032001F0F0FD0021042001F0ECFD0021002001F0E8FD01A85D4903000A0032CA32C312CA12C301F00CFE002802D00420FFF7C4
:400CC0006DFF5349564A8B588020000603438B50544801F0B7FE002802D00420FFF75EFF4B4C514BE158514A0A40E250E158504A0A40E250E25880252D062A43E250043B2D
:400D0000E1584C4A0A40E250E1584B4A0A40802189010A43E250E258802109020A43E250384A1168454B0B401360002002F042FC434BE2582A43E250E158012291430A43C4
:400D4000E2506421002002F017F8324B1B683F229A5C052A06D970229A5C01210A403949986842509A6874215B5AD21851682A4B0B408C2189010B435360264B1B687322BE
:400D80009A5C0321914070229A5C7220185C140084402143012002400A43802109060A438021C900986842509A6852583F229A5C062A03D90021244A986881509A687421CF
:400DC0005B5AD2181168144B0B40F82149010B431360104B1A687323D15C703B8B4019007023D35C7220105C83400B43802109060B438021C9009068435093685B5807B0B5
:400E000030BDC0460000274020A1070002004A00000026408C320008FF00FFFF2C9C0010087F0000400D030004050000FEFCFFFFFFFF00FFFFF0FFFFFF8FFFFFFFFCFFFFFC
:400E40000C050000140C0000180C000070B58EB09621002001F090FF01F066FF002801D101F052FF012002F043FA2E4A516C2E4B0B40E82189010B435364536C1B0AFF22EB
:400E800013403A2B07D1274A516C284B0B40E82189010B43536401AC34220021200005F09AFC234D22000021280000F021F934220021200005F08FFC22000121280000F0F7
:400EC00017F9FFF775FE0F221A4B1A601A4A1B4B1A6024220021200005F07DFC2100280000F0A0FA164D22002B00143343CB43C243CB43C243CB43C22100124800F092FA36
:400F000022002B00383323CB23C223CB23C223CB23C221000C4800F085FAFFF741FE0EB070BDC04600002740FF00FFFFFFC5FFDF00003240000067400701010000026740A5
:400F40002C9C0010800232400003324010B5094B1B78002B07D1084A0849094801F0B2FA0122044B1A70064A1368802109060B43136010BDCC31000854320008889C001024
:400F800000006640214B984230D00ED8402831D004D800281FD010282AD031E080282BD080235B00984229D02AE0194B984229D007D8A0231B0698420DD0164B984212D074
:400FC0001EE0154B98420AD0144B984209D0144B984215D101E0002016E0124814E0124812E0124810E0A020C0030DE007480BE00F4809E00F4807E00F4805E0034803E041
:401000000E4801E0A420C0037047C04606005200010000F0090000A0040000F0050000F0030000F0010052000200520003005200010050000200500005005200FF00520020
:4010400070B5124B1A683123D35C002B04D1C421FF310F4801F04AFE0C4B1D682C00B423EB582A6A944663441B68002B0BDB094B1868FFF787FF6B6801229A6063689B686B
:40108000002BFBD100E0044870BDC0468C320008C89C0010D03100080200500010B50D4B1861002805D002230370FD33437000234380094B1B6850229A5C002A08D051229D
:4010C0009B5C002B04D04F3A0449002000F092FC10BDC046D03100088C3200082D02000810B502481430FFF7D9FF10BDD0310008F8B54F464646C0B406000D001400002825
:4011000000D16FE1002A00D16EE1072903D94521B84801F0EBFD2368012B03D94621B54801F0E4FD0F2362689A4303D04721B14801F0DCFD237A1F22934303D04821AD4874
:4011400001F0D4FDE368032B03D94921A94801F0CDFD2369012B03D94A21A64801F0C6FD6369012B03D94B21A24801F0BFFDA369012B03D94C219F4801F0B8FDE369032B42
:4011800003D94D219B4801F0B1FD236A012B03D94E21984801F0AAFD636A012B03D94F21944801F0A3FDA36A012B03D95021914801F09CFDE36A032B03D951218D4801F0BD
:4011C00095FD236B072B03D952218A4801F08EFD2768072D03D98849884801F087FD012F04D9CA218900854801F080FD002F03D10123AB40736002E00123AB40B3606768D7
:40120000072D04D9F12189007C4801F06FFD0F233A009A4303D07A49784801F067FDA900784B1A687D23D35C9B191A6890460F2291468A40404690430200484607408F4053
:4012400017431F60277A072D04D9A22189006B4801F04CFD1F233A009A4303D06A49674801F044FD674B1A689369F31ADB0952691B01D318032D0AD81968E8001F22824089
:4012800091431F22174087400F431F600AE02A1F5968D2001F20904081431F20074097400F435F60E768082D04D9DD21C900534801F01CFD032F03D95449504801F016FD0F
:4012C0006900504B1A687C23D35C9B191A689046032291468A40404690430200484607408F4017431F602769082D03D94849434801F0FCFC012F03D94649404801F0F6FC44
:40130000B36901221100A9408B431740AF401F43B76163699846072D03D93F49374801F0E5FC4346012B03D93C49344801F0DEFC34487E230268D35C9B191A6801273900A9
:40134000A9408C468A43110042463A40AA400A431A606B0010229046984403210B00424693406246134399467F2203689A5C9446B44463461A684B469A43A3693B40AB408C
:401380001A43E3691940434699400A4363461A6002688023D35CF6183368FF22944693431800236A1F40636A5A00022313403B43A26A9100042739400B431F00E36AD900AE
:4013C000182319403B000B43226B520161460A401343AD00FE2292001540AB4003433360002002E00E4800E00D480CBC90469946F8BDC046089D001027030000489D001098
:40140000C50300008C32000889020000E9060000690600006A060000030400000404000001005A0070B505000C0000285DD000295DD0FF230A689A4303D099212D4801F016
:4014400055FCFF2322699A4303D09A21294801F04DFCA3685B0D03D09B21264801F046FC63685B0A03D09C21224801F03FFCE3695B0F03D09D211F4801F038FC236A5B0F95
:4014800003D09E211B4801F031FC1B4A11688B69EB1ADB0949691B01CB18216829607D211068415C6918E06808607E211068415C6918206908607F211068415C6918606992
:4014C00008607C211068415C6918A06808606168A961116880228A5CAD18A2692A60E2691A60226A5A60002002E0044800E0034870BDC046089D00108C32000801005A0026
:4015000070B504000D000A4B1A68B423D3581B181B68002B0ADA0B0C03D00649064801F0E5FB2D042D0C6560002000E0034870BD8C320008D5020000889D001001008A007B
:4015400070B505000C000368002B01DA002300E0084B002B0BD1EA60230C03D00649074801F0C4FB2404240CAC60002000E0014870BDC04601008A00BB020000889D001070
:4015800070B505000C1E03D19921084801F0AEFB074B1A68B423D3585B191B68002B03DAEB682360002000E0024870BDC89D00108C32000801008A0070B504000D00234BD3
:4015C0001A683123D35C834236D9002936D00B68DB0635D13123D35C984204D3C421FF311B4801F083FB194B1B681A6AB0215B5A5C431419174E34602B68DA080021686852
:4016000005F0E9F800212000FFF77AFF3468002D03D111490E4801F069FB2A0000212000FFF78EFF00280DD10A4B18680021FFF767FF002808D108E0084806E0074804E0EA
:40164000064802E0064800E0054870BD8C320008889D0010E83100089303000003018A0001018A0010B50400002A17D1002915D1124B1A683123D35C984204D3C421FF31B4
:401680000F4801F033FB0D4B1B681A6AB0215B5A5C4314190B4B1C6000200EE0002A09D0002909D0074B59609A60191D2000FFF783FF02E0044800E0034810BD8C3200085F
:4016C000889D0010E831000803018A00F0B583B00D001C4B1B68DC68236883422DD947097B01C01A012383401E00002903D101F0BCFB019001E000230193124B18680368DC
:40170000002B01DA002300E00F4B002B0ED16368BF00DF193B68334203D0B3433B60002400E00A4C0021FFF7EBFE00E0084C002D04D1019801F09DFB00E0064C200003B087
:40174000F0BDC046E831000801008A00020188000301880004018A000A4B1B68DA68136883420BD943095901401A0121814052689B009B580B4203D0034802E0034800E083
:4017800003487047E83100080101880004018A0000018800034B1B68002B01D1014B18607047C046F4310008F0B5474680B404000F0090461E002D4B1B68002B03D1B521AB
:4017C0002B4801F093FA294B1B682C2060431C18FF22150035402560330A13406360360CA660244B1A683123D35C9D4204D3C421FF31214801F07AFA1E4B1A68B023D35A1B
:401800006B43116A8C466344236166683223D35C9E4204D3E021FF31174801F067FA154B1B681D6A80367601AD196561A668330C04D0FF214900104801F058FA330C03D03D
:401840000E490D4801F052FA3604330C1E43AE604346E36127620023A361069B002B02D000229B5EA38104BC9046F0BDF4310008089E00108C320008889D0010FF0100001C
:40188000F0B58FB0041E03D15221294801F02EFA6368032B03D95421254801F027FAE36A002B03D15821224801F020FA236B002B03D159211E4801F019FA07AA13002100F8
:4018C00061C961C321C921C302AD290023001433C1CBC1C141CB41C10821535E0CAE3380144B1B6836215B5E07998C466344B370089B0D930B9B0A980096A26AE16AFFF78B
:4019000053FF2B69E868002200920021FFF74CFF216B300001F062F90023F25E002A05DB1F231A401E3B9340034A13600FB0F0BD089E00108C32000800E100E0F8B50500F3
:401940000F0016001C00002A03D1FD21224801F0CDF9224B1B68002B03D1FE211E4801F0C5F91E4B1B682C2128004843181879435918012213004D68AB401B044568AA40F1
:4019800015000269002A20D08F69002F1FD11268002A01DA002200E0114A002A19D132681204120C134333600369DE6001238B614C6204692B0C03D00A490B4801F096F9CA
:4019C0002A04120CA260002004E0084802E0084800E00748F8BDC046089E0010F431000801008A00BB020000889D001004028A0007028A0070B504000D0016000F4B1B687D
:401A0000002B04D1AF2149000D4801F06FF90B4B1B682C2060431C18236A002B04D1B1214900074801F062F9E369B34204D9236AB6009D51002000E0024870BDF4310008AD
:401A4000089E00100A028A0070B582B0040000230193002804D1D221FF312D4801F046F92369002B04D1E9214900294801F03EF96369002B04D1D421FF31254801F036F94D
:401A8000236A002B04D1EA214900214801F02EF96269D5682B0C24D01B041360136820691C4B1A68B423D358C3181B68002B18DA01A9FFF765FD00280ED1019803681E0C5E
:401AC000FF221340E269934207D29B00226AD358002B02D0984700E0002631002069FFF70FFD2D042D0C0FD063691D601B68636A002B03D098470023636203E0A36A002BC7
:401B000000D098470023A36163691B6802B070BD089E00108C32000810B50400084B1B68002B04D1B221FF31064801F0DFF8044B1B682C2060431818FFF786FF10BDC0462E
:401B4000F4310008089E001010B50400094B1B689B6CC340DB0703D4BE21074801F0C6F8044B1B681B691034A402E3580F20184010BDC0468C320008489E001003681B0526
:401B800001D5802200E0402282239B00C358DB05DB0D934204D090239B00C150012000E00020704710B500293FDBC0230B4207D00023836680235B05536000232F4942E0DA
:401BC000CB0535D4CB070FD551682D4B994232D1016E8023DB050B4059424B41DBB280214905516027492EE08B0706D55168244B994223D10023244925E0CB0605D58023F1
:401C00005B055360002300211DE051681C4B994217D1537B002B02D088235B0301E0A0235B035360002300210DE0012317490AE00123174907E00123124904E000231549F6
:401C400001E000230021002B10D003685B005B08036000238366C36603688024240623430360036880235B05536005E0F0231B011822FF32C250C358080010BD0820AA00FD
:401C8000000013100620AA000420AA000320AA000720AA000520AA0010B504000368002B09D0012001F016F82368013B2360002B03D0002003E0002001E08020000610BDDF
:401CC000F8B505000C0016000B78012B04D00A7A002A03D1002702E0002700E00127002D00D1B3E0002C00D1B2E0002E00D1B1E0013BDBB2022B03D94F21574800F0F6FF5D
:401D00006378002B00D06379002B03D05021524800F0ECFF0323E356002B03DA51214E4800F0E4FF2379DB0703D552214A4800F0DDFF2369102B03D95321474800F0D6FF39
:401D4000E368102B03D95421434800F0CFFF6379002B02D08021490200E00021E279002A02D080235B0000E000230B438022120113432B60A379002B01D1110000E0002116
:401D800023695A1E0F2313401943E3685A1E1201FF231A400B0013432278920713432B66002F01D02D4A01E00822FF32C0239B00EA50002F01D02A4B00E02A4B2B676378CF
:401DC000002B01D07F2200E00022C1239B00EA50E3785B00FF221340227912041343C4229200AB50204A80239B00EA50A378002B01D0402200E0012281239B00EA500023ED
:401E00001A4AAB501A4AAB501A4AAB501A4AAB501A4AAB502378022B02D0D222FF3200E00022174BEA5063783370A378737080235B0573600023B360B36133623364F3634C
:401E40003363F3627364B364002004E00D4802E00C4800E00B48F8BDCC9E00100703000003002A0013102A0007010100C80E0000880E0000C80F0000880F0000080F00001A
:401E8000480F00000120AA0070B505000C1E03D11749184800F02AFF2B6E9B0F012B11D1154A164BE31893421AD9154A154BE318934217D9144B9C466444144B9C4213D89B
:401EC000134814E0002C11D02A6E12090F210A402B6E194051180231200002F095FA06E00C4804E00C4802E0002000E0002070BDC3020000CC9E0010405B730020AD88FFE8
:401F000050A9AB005059E8FF004D0EFF40555C0440420F00801A0600A0860100F0B55F4656464D464446F0B483B0060089460192002A03D17549764800F0D8FE4B465C1E39
:401F4000744B9C4203D97449714800F0CFFE336E9B0F012B0DD101993000FFF795FF0700C0229200B1586D4B0B40B3506C4B3367C4E0684B9C4226D86A4B99450AD86A4AD5
:401F8000019B6A498C466344934220D900239B46013334E0664B99450AD8664A019B66498C466344934219D900239B46013326E0624A019B62498C466344934217D9002301
:401FC0009B4601331BE000239B46013317E000239B465C4B9A461D00002310E000239B46E1239B009A46C825ED00002307E001239B467C33FF339A469B25AD000023002BFF
:402000007BD10199504802F0FFF907000100280002F0FAF9040003007B439D4200D90134102C00D9102400230F22A2425B41DBB298463900504602F0E7F905004743BA45BA
:4020400000D90135102D00D910256119019802F0DBF9070016E04346002B05D00F2C0CD801340023984608E00F2D06D8013500230F22A2425B41DBB298466119019802F0D6
:40208000C3F907004F4502D963191F2BE3D95B46002B09D0C0229200B358802189000B43B3502A4B336707E0C0229200B1581B4B0B40B3501A4B3367E31F092B03D9244928
:4020C000244800F013FE326EF0239A43013C2301FF241C40144334666B1F0B2B04D9B421C9001C4800F002FE326E0F218A436B1E19400D001543356600E00027380003B012
:402100003CBC90469946A246AB46F0BD12020000CC9E00103F420F0013020000FFFDFFFF13102A00A0860100502D19005059E8FF801A0600A043210020AD88FFC02BAF0013
:40214000807E25FF8813000000CA9A3B03002A00830500000C9F0010F0B583B006000C0017001D000B0604D5D921C900324800F0BDFD324B9D4203D931492F4800F0B6FDD8
:40218000012F03D92F492C4800F0B0FD00222E4BF250089B5A6880235B059A4245D1FA239B006B430193294B089A53607B1E5A425341089A5373F0231B011822FF32F25083
:4021C000F358FC231B01143AFF3AF250F35881239B00F258802149020A43F250F1581C4A0A40F250F3586400FF231C403C434233FF33F4500223B366F0231B01F45808238B
:40220000FF3321001940F4231B01F358C024234019430C0001A8FFF73FFD21000143EBD0089A3000FFF7BEFC00E00A48D222FF32054BF25003B0F0BDCC9E00103789410084
:40224000C9060000CA060000480F000000001310FFFFFEFF0220AA00F0B583B006000F0014001D000B0603D52A492B4800F03EFD2A4B9D4203D92A49274800F037FD012C03
:4022800003D92849244800F031FD089B5B68DB023CD5FA239B006B430193234B089A5360631E5A425341089A5373736E9B0601D5092300E00123B366736E9B0605D5002000
:4022C00009E001A8FFF7E8FC00E00020002802D1B36EDB07F5D4002812D17F00FF231F403C434233FF33F450F0231B01F0580823FF331840040001A8FFF7CEFC2043F3D077
:40230000089A01003000FFF74DFC00E0074803B0F0BDC04629070000CC9E0010378941002A0700002B070000000013100220AA0070B582B005000C001600124B994203D967
:402340001149124800F0D2FC7368DB0217D5FA239B005C4301941823AB66F0231B01E8581223FF331840040001A8FFF795FC21000143F2D032002800FFF714FC00E00448FA
:4023800002B070BD378941008C070000CC9E00100220AA00F0B54F4680B482B007000D0091461C00002A04D1FB21C900254800F09DFC254B9C4203D92449224800F096FC60
:4023C000012D03D922491F4800F090FC089B5A6888235B039A422FD1FA239B005C430194FC231B01FB5804241C40F0231B01F8580223FF331840060001A8FFF74DFC3100F0
:402400000143002C01D10029EAD0002C09D0D0239B00FB584A461370FC231B010522FA50FB58089A3800FFF7BDFB002805D1002D03D10423BB6600E0064802B004BC914639
:40244000F0BDC046CC9E001037894100D9070000DA0700000220AA00F0B583B005000F0014001E00134B9A4203D91349134800F03DFC7268A0235B039A4218D1FA239B0015
:402480005C430194A93BFF3BEF50F0231B01E8580823FF331840040001A8FFF7FDFB21000143F2D032002800FFF77CFB00E0044803B0F0BD3789410032080000CC9E00109D
:4024C0000220AA00F8B505000C001600002800D1BDE1002900D1BCE10B78022B03D93F21C14800F003FC637B023BDBB2062B03D94021BD4800F0FAFBA37B002B07D0022BDD
:4025000005D0032B03D04121B74800F0EFFB2123E35C012B03D94221B34800F0E7FB2823E35C012B03D94321AF4800F0DFFB2378012B06D86268083A082393429B415B42EE
:4025400008E0A37F002B05D063685A1E062393429B415B42002B03D04521A34800F0C6FBA368053B042B03D946219F4800F0BEFB6369FF2B03D947219B4800F0B7FBA3697F
:40258000FF2B03D94821984800F0B0FBA37C002B0FD02378002B07D1A368092B06D1A37B002B05D0012304E0012302E0012300E00023002B03D04A218B4800F097FB8B4B6D
:4025C000626B1A4203D04C21874800F08FFB884BE26B1A4203D04D21834800F087FB2378022B02D1A37F002B02D063685A1E00E00022237F002B02D08021490200E00021A4
:40260000A368082B02D880231B0100E0002319430F2313400B438022920413432B60226B2B681B0501D5802300E040239A4203D362216D4800F05AFBA26B2B681B0501D5B7
:40264000802300E040239A4203D36321664800F04DFB626A2B681B0501D5802300E040239A4203D36421604800F040FB23781B06C022920413402B64637F002B01D04022BD
:4026800000E00022A37C002B02D08023DB0000E000231A43237C002B02D08021490000E000210A43637C002B02D08021890000E000210A43E36A013B1B04F02000030340F8
:4026C0001343627B013A07210A4013431900A27B120130231A400B001343AB64237B002B02D08022520000E00022E37B002B04D12378022B03D1013B02E0012300E000236E
:40270000002B02D080239B0000E000231343A268013A0F273A401343C02292009446AB50FF2260691040A3691A04FF2109040A400243C4239B00EA50E26A6346EB583B40E2
:4027400003339A4201D3102A03D97A21264800F0CDFAE37F002B04D02378012B03D0002302E0002300E00123002B02D08020400000E00020627B013A0723134001001943A7
:40278000A27B120130231A400B0013436B64237B002B02D08021490000E00021A3685A1E0F2313400B432278012A02D18022520200E00022134380229200AB50FF23226B6C
:4027C0001340C1229200AB502023E35C002B02D08022920400E000222123E35C012B09D180235B0407E0C0468C9F001092F4FFFF8CF8FFFF002313432822A25C012A02D1E5
:402800008022520200E000221343FF21626A0A4013432B65A36B0B4081229200AB500F4B626B13400E4AAB50E26B0E4B13400E4AAB50002E0FD0002373603360B360F36090
:402840003362F3623363094B7363002004E0084802E0074800E00020F8BDC0466D0B0000C80F000073070000880F0000EFCDAB000160AA00134B1A683C23D35C83421DD973
:40288000042904D94B1EFF3B9BB2132B18D8FF290CD91F2319400C4A0300C0339B009950D03080000423835000200AE007231940D0308000044BC150002002E0034800E064
:4028C000024870478C3200080000264001004A0070B5041E03D14A494A4800F007FAB023DB00494AD358002B00DA87E0474B22689A4203D94649434800F0F8F923689B035F
:402900009B0BE279002A02D08022520400E000221343B022D2003C498B50A2883D4B9A4204D984218900374800F0E0F92289344B9A4203D93849334800F0D8F9A388DB04BC
:40294000D90C23891B04354A13400B43344A2E498B50A37A0F2B04D986218900294800F0C5F9E37A0F2B03D92E49264800F0BEF9A289284B9A4203D92B49224800F0B6F962
:40298000A37A0F211940E27A1201FF2313400B43A289120225490A401343A27B1207C02189050A401343B122D20017498B50A379042B03D91E49134800F098F9228A104B5C
:4029C0009A4204D9892189000E4800F08FF90E4818494558184B1D40A3791B02E022D20013402B4343504558144B1D40238A1B040A4A13402B434350002000E0104870BD56
:402A0000FF010000CC9F001000002640FFFF030009020000FF1F0000110200000000FF0184050000190200001A02000000FF1F00230200008C050000FFF8FFFFFFFF00FEF3
:402A400003004A0070B505003149324A8B588020000603438B502C0003E0012000F03AF9013CB223DB002A4AD3585B0701D4002CF3D12749B122D2008858274B03408020EF
:402A8000800503438B50002D01D0002C0CD02049B022D2008B588020000603438B5003E0012000F017F9013CB223DB00184AD358DB0701D4002CF3D1002D01D0002C08D08C
:402AC0001349B122D2008B58C020800503438B5013E00F4BB121C90058580F4A02408020800502435A5008395A58520052085A5008495A58520052085A50002D03D0002C57
:402B000003D0002002E0002000E0044870BDC046000026408C050000FFFFFFCF02004A0070B505000C001A4B1B6828229A5C012A15D1820807211000884327D19200AD1AE5
:402B4000ED00FF20A8401B6820339A181168AC4023004B40184004004C40146016E03A229B5EDBB2994203D176210A4800F0BEF8074B1B681B68072215408022120615436C
:402B80008022920194466444A400E55070BDC0468C32000854A0001070B504000D000B4B9A680B4B9A420CD1002904D13821FF31084800F09BF81034054BA400E058E550EC
:402BC00003E01034A400044BE05870BD00ED00E00000000854A0001000000010F0B5474680B482B0061E01914AD04368032B03D93221264800F07AF80023F05E002804DBB5
:402C0000B178FFF78DFF002400E0214C0023F15E7368002912DB88081E4FC0308000C55903221140C900FC3290468A4095439A01434613408B402B43C35116E089B20F227F
:402C40000A40083A92080632920013481018476803221140C900FF252A008A4097439A012B0013408B403B4343600B4B9A680B4B9A4206D10023F05E0199FFF78DFF00E02E
:402C8000034C200002B004BC9046F0BD54A000100100560000E100E000ED00E00000000810B5040006E0084B186800F0D5F8074B9C46644480231B029C42F4D8044B18686B
:402CC000604300F0C9F810BD0C0100080080FFFF0801000810B5034B1B78584300F0BCF810BDC0460401000801BEFEE770B50D00044C18220100200004F051FCA561002062
:402D0000FFF7F2FFC8060008054B802212069A649B6C002B01DB002000E002487047C0460000274003004600054B8022120198585B68FF221A4202D08023DB021843704770
:402D400000002640FEE7C04610B50A4B0268DA6142681A6282685A62C2689A620269DA6242691A6382695A63C2699A63FFF7EAFF10BDC046C8060008F0B5474680B400289C
:402D800001D0192300E064238B429B415B42304D2C682268A826A45BA41822680327BA433B401A4322602C682268A45BA2181668284CA046264016602C682668AA229446D7
:402DC000A25A96193268BA43134333602A6813686546525BD3181A68444614401C60002805D010291BD921291BD8012024E0184B1B6855229A5C914215D956229A5C91429B
:402E000013D957229A5C914211D958229A5C91420FD959229B5C99420DD804200CE000200AE0022008E0002006E0012004E0022002E0032000E00520054A126852681368C4
:402E40000F218B430343136004BC9046F0BDC0468C320008FFFCFFFF0230800803D001300238FCD1C046C0467047EFF3108072B6704780F31088704710B5B0235B059B89DC
:402E80009BB2002B04D0B0235B059B899BB201E080235B0080225200934215D1184C23681968683A9B58C9180B680F208343963A13430B6021680C689C23CB58E31819685A
:402EC00081430A431A6019E00D4C2368196898229B58C918B02040050A4BC2580A4B13400A681343C022920013430B60226811689C23D358CB18054A82581A6010BDC046EC
:402F00008C32000848180000FFFCFFFF4418000030B5B0235B059B899BB2002B04D0B0235B059B899BB201E080235B0080225200934215D1184C23681968683A9B58C91876
:402F40000B680F208343953A13430B6021680C689C23CB58E318196881430A431A6019E00D4D2B68196898229B58C918B0246405C12040012258094B13400A681343C02254
:402F8000920013430B602A6811689C23D358CB1822581A6030BDC0468C320008FFFCFFFFB0235B059B899BB2002B04D0B0235B059B899BB201E080235B0080225200934251
:402FC0000DD1104B1B681A6898215B58D21811680D4B0B40C021C9010B43136011E0094B1B68196898229B58C918084BB0225205D258074B13400A681343C0229200134301
:403000000B6070478C320008FF8FFFFF18180000FFFCFFFF30B5B0235B059B899BB2002B04D0B0235B059B899BB201E080235B008022520093420DD1134B1B681A68982125
:403040005B58D2181168114B0B408021C9010B43136018E00C4D2B68196898229B58C918B02464050A4822580A4B13400A681343C022920013430B602A6811689C23D358D1
:40308000CB1822581A6030BD8C320008FF8FFFFF4C180000FFFCFFFF10B5B0235B059B899BB2002B04D0B0235B059B899BB201E080235B0080225200934217D10020FEF7EC
:4030C00043FDB0235B055B78002B04D0B0235B055B78DBB200E02123222B03D8002803D1013004E0012002E0002000E0012010BD30B585B004000D00022807D9042805D074
:40310000032803D02A492B48FFF7F0FD6B1EDBB2012B07D9042D05D0082D03D026492548FFF7E4FDA400254BE458042D13D0012D1CD112E0A3682B420BD1E3681A680292BF
:403140005B6801930393290002A8236898471B4B5C61646902E0002000E00020002C24D0174B9842E6D1012DE4D11EE0022D01D104E01C006369002BFBD104E00F4B5C6978
:40318000002C00D0246900200DE0A3682B4209D1E3681A6802925B6801930393290002A8236898472469002CEFD105B030BDC046B209000098A00010B3090000F83100088B
:4031C000FF004200F8B50700012803D93D493E48FFF78CFDB0235B055B78002B04D0B0235B055B78DBB200E021239DB2B0235B059B899BB2002B04D0B0235B059E89B6B2DA
:4032000001E0802676000020FEF79EFC002814D180235B009E4212D1222D12D82B4B1B685C682B4821582B4B19403B068022520413400B432350002404E0274C02E0264C47
:4032400000E0254C80235B009E4201D1222D03D880235B009E4232D01C4B1A683123D35C002B04D1C421FF311C48FFF73FFD174B1B681D6A80235B009E4203D1002F05D00A
:40328000174A06E0002F03D0164A02E0164A00E0164A01212800FEF753F900280FD10B4B1A68B423D3585B191B68002BF7DBEB681B0E1B06A0221206934200D10024200021
:4032C000F8BDC0464C0A000098A000108C32000818F00000FFFFFFFE04004200C89C0010010100300300000C010000300100000CF8B50500012804D9822109012948FFF7A7
:40330000F5FCFFF7C9FE002849D0FFF7AEFD0700002D11D10021244B244AD150E823DB00B0225205D65CF6B20120FFF74BFF041E19D1FFF7A1FD16E0B02252051C4BD05830
:403340001A4B194958501B49565CF6B21A481A581F218A4314390A431A500320FFF7BAFCFFF758FE0024002C15D11049124A8B581F20834306401E438E50002D02D1FFF7D2
:403380000FFE08E00720FFF7A5FCFFF7C1FD0020FFF718FF04003800FFF76BFD00E0074C2000F8BD98A00010307F00000000264010180000410700001CFF000003004200AA
:4033C00010B5041E03D115491548FFF78FFC154B1A68D168F222D2018A5822601B68F022D201D9688A5862600F4AD9688A58A2600E4AD9688A58E2600D4AD9688A582261EB
:403400000C4AD9688A5862610B4AD9688A58A261DA680A4BD358E36110BDC046A10A000098A000108C32000804780000087800000C7800001078000014780000187800001F
:4034400010B5041E03D114491448FFF74FFC144B1B68F022D201D96860688850114AD968A0688850104AD968E06888500F4AD968206988500E4AD968606988500D4AD968EB
:40348000A06988500C4AD968E0698850DA682168F223DB01D15010BDC90A000098A000108C32000804780000087800000C78000010780000147800001878000070B505009A
:4034C000012804D9A62189003548FFF70FFC354B5B68002B05D001210120FFF709FE040000E00024002C53D1FFF7BFFC06002D4B5B68002B03D004210120FFF7F9FD2A4B86
:403500001B6843229A5C002A08D09A68E023D358DB0603D523481830FFF752FFB0235B059B899BB2002B04D0B0235B059B899BB201E080235B0080225200934203D12800DD
:4035400006F0E2F909E0194A116904230B431361012D01D030BF00E020BF134B1B6843229A5C002A08D09A68E023D358DB0603D50C481830FFF764FF3000FFF77AFC094B12
:403580005B68002B09D008210120FFF7B1FD04E002210120FFF7ACFD054C200070BDC04698A00010F83100088C32000800ED00E0FF004200042805D10B4A116804230B4359
:4035C00013600FE0094B1A681168A023D358CB180006C022920410401860034A136804218B4313607047C04610E000E08C3200080749C02252008B589B009B088020C00578
:4036000003438B508B588020000603438B50704700002640014B18607047C0468C320008F0B54F464646C0B483B00400894690466421006800F06EFF0F000A21380000F099
:40364000E3FE06010A21380000F064FF71187F260E406421606800F05DFF0F000A21380000F0D2FE05010A21380000F053FF4D192D02FE21C9010D402E43637B002B1DD088
:40368000237B002B02D08025AD032E438025ED032E436421A06800F03DFF0F000A21380000F0B2FE05010A21380000F033FF69180904F820400301400E4313E06421A06852
:4036C00000F028FF0F000A21380000F09DFE05010A21380000F01EFF69180904FC20800301400E436421206900F014FF0F000A21380000F089FE05010A21380000F00AFF25
:4037000069180906E020C00401400E436421606900F000FF0F000A21380000F075FE05010A21380000F0F6FE69183F250D406421A06900F0EFFE0B000A210193180000F0D5
:4037400063FE07010A21019800F0E4FE79180902F820400101400D43E069642100F0DAFE0C000A21200000F04FFE07010A21200000F0D0FE79180904FF231B0419402943E5
:403780004B461E604346196003B00CBC90469946F0BDC046F0B55F4656464D464446F0B483B00700FFF761FB0400584B1B69DB070BD4564B9B689B0707D4544D0123AB6005
:4037C000B720FFF787FA0023AB602000FFF751FB4E4B9A69120CFF2313401B090F2003409900CB18590002408A18FA23DB00984690447C69651E0B2D03D945494548FFF736
:4038000075FA4346002B03D143494248FFF76EFA424B5B5D9B46022C21D14346002B04D1E82189003B48FFF761FA43469B0705D16421404600F06EFE002908D1C82149004C
:40384000404600F067FE002903D1012302E0012300E00023002B02D001239C46E344012301939A46012543E03B6999467C696B1E1E2B03D92A492748FFF738FA631E0B2B61
:4038800003D928492348FFF731FA4346002B03D125492048FFF72AFA022C03D80C3443465E1E00E0464601341A2060430A2100F0ABFD2C18A019B40804196421300000F0AD
:4038C000A3FD430018184300E418C8214900300000F09AFD2018072100F01CFE002900D10731894503D101239C46E24401950135FB689A4501D85D45B6D9019803B03CBCC7
:4039000090469946A246AB46F0BDC04600002740BE03000054A20010BF03000048A200106D0300006E0300006F030000F0B557464646C0B483B004008846160064210068BF
:4039400000F0E8FD0F000A21380000F05DFD05010A21380000F0DEFD69187F2529402379DB0180352B4019430D006421A06800F0D1FD0B000A210193180000F045FD07018C
:403980000A21019800F0C6FDC9190902FE20C00101400D43237BDB071B0C1D43FFF765FA0190634B1B69DB070BD4614B9B689B0707D45F4F0123BB60B720FFF78BF90023C6
:4039C000BB600198FFF755FA594B5B695B023CD520690B281BD90C38002800D10C30642100F098FD0B000A210193180000F00CFD07010A21019800F08DFD79180904F823EB
:403A00005B03194080239B0319430D4319E0002803D1C02109030D4313E0642100F07AFD0B000A210193180000F0EEFC07010A21019800F06FFD79180904FC239B03194039
:403A40000D438021C9030D4314E06421206900F061FD0B000A210193180000F0D5FC07010A21019800F056FD79180904FC239B0319400D43217DC90580231B0419400D435C
:403A80006421A06900F046FD0B000A210193180000F0BAFC07010A21019800F03BFD79180906E023DB0419400D43217FC9070D436421206A00F02EFD0B000A2101931800D2
:403AC00000F0A2FC07010A21019800F023FD79183F2001402423E35CDB01C030034019430F006421A06A00F015FD0B000A210193180000F089FC020192460A21019800F0B4
:403B000009FD51440902F8235B01194039432C23E35CDB071B0C19432D23E35CDB07194343461D60316003B00CBC90469A46F0BD00002740F0B583B0041E00D192E003684F
:403B40003B2B03D956214B48FFF7D0F863683B2B03D957214748FFF7C9F8A368172B03D958214448FFF7C2F82369013B062B03D959214048FFF7BAF8A369013B0B2B03D9B9
:403B80005A213C48FFF7B2F8E369632B03D95B213848FFF7ABF8A669E369FA22D200944663441D00771E0B2F03D933493348FFF79DF8002D03D132493048FFF797F8314B12
:403BC000DF5D022E1DD1002D04D1E82189002B48FFF78CF8AB0705D16421280000F09AFC002908D1C8214900280000F093FC002903D1012302E0012300E00023002B00D02F
:403C000001376369002B2FD0BB422FD801AA69462000FFF705FDFFF728F905001A4B1B69DB070AD4184B9B68DB0708D4164A916802230B439360002402E0144C00E0134C93
:403C4000002C0BD1104B009A5A61019A9A619A6802218A439A603E20FFF73CF82800FFF708F904E00A4C02E0094C00E0084C200003B0F0BD90A20010BE03000054A2001035
:403C8000BF03000048A20010000027400300A2000100A20010B5FFF74DFF10BD70B5041E03D18C214148FFF721F8FFF7DEF805003F4B1B69DB070BD43D4B9B689B0707D4BD
:403CC0003B4E0123B360B720FFF704F80023B3602800FFF7CEF8364B59699A697F231800084000090F25284086003018460028000840301820600E0A33401B092B40980036
:403D0000C31858003540281860608023DB030B40581E8341DBB26373002B12D0080C1F2303401B090F2633409D00EB185D0030402818A06080239B030B40581E83412373F7
:403D40000DE0080C3F2303401B090F2633409D00EB185D0030402818A06000232373090E072319402161383313401B090F210B409800C31858000B001340C3186361100A10
:403D80001F2303401B090B409D00EB185D0008402818A061120CFF2313401B090B409800C31858000A408218E26170BD90A2001000002740F0B54F464646C0B483B0041E30
:403DC000894600D1F3E0012903D9D0217D48FEF78DFF23683B2B03D9D2217A48FEF786FF2379012B03D9D3217648FEF77FFFA3683B2B03D9D5217348FEF778FF237B012B1A
:403E000003D9D6216F48FEF771FF2369172B03D9D8216C48FEF76AFF237D012B03D9D9216848FEF763FFA369013B062B03D9DB216448FEF75BFF237F012B03D9DC21614899
:403E4000FEF754FFA36A013B0B2B03D9DE215D48FEF74CFF2C23E35C012B03D9DF215948FEF744FF2423E35C012B03D9E1215548FEF73CFF2D23E35C012B03D9E3215148BB
:403E8000FEF734FFFEF7F1FF06004F4B1B69DB070BD44D4B9B689B0707D44B4F0123BB60B720FEF717FF0023BB603000FEF7E1FF454B9A69120CFF2313401B090F210B4035
:403EC0009800C3185E000A40B618FA23DB009C466644A76A7D1E0B2D03D93C493C48FEF705FF002E03D13B493948FEF7FFFE3A4B5B5D9846022F1FD1002E04D1E8218900C9
:403F00003348FEF7F3FEB30705D16421300000F001FB002908D1C8214900300000F0FAFA002903D1012302E0012300E00023002B02D001239C46E044236A002B39D043450D
:403F400039D801AA69462000FFF7F0FCFEF78DFF06001D4B1B69DB070AD41B4B9B68DB0708D4194A916802230B439360002402E01A4C00E0194C002C15D14B46012B05D063
:403F8000114B009ADA61019A1A6204E00E4B009A5A62019A9A620C4A936802218B4393603E20FEF797FE3000FEF763FF04E00C4C02E00B4C00E00A4C200003B00CBC9046CF
:403FC0009946F0BD90A2001000002740BE03000054A20010BF03000048A200100300A2000100A20030B58FB004000378012B03D920492148FEF77AFE002C36D000230293ED
:40400000012202A90A7104930A736168069102A90A75226908920B772378012B04D02000FFF7B8FB0A9001E0A3680A930123242202A98B54626901920C922C228B5401321B
:404040008B5418240D4D08E0012102A8FFF7B2FE0500013C3E20FEF73DFE002D01D0002CF2D1002C02D1064D00E0044D28000FB030BDC0468203000090A200100100A200ED
:404080000200A20070B504000E00002803D11D491D48FEF72BFE002E04D1F42189001A48FEF724FE2378002B01D0A56803E02000FFF770FB0500237E002B01D0206A03E00F
:4040C00020001830FFF766FB63699B026D011D4363681D43B3699A0273695B011343B2681343E26A920240011043E26910439D4203D8834203D3002002E0002000E001205F
:4041000070BDC046CF03000090A200107047C046F0B5474680B48AB0040002A8FFF7BEFD02A92000FFF7AEFF002866D0049B172B59D9069B01930133069300220492072BB1
:4041400001D901230693079B01935D1C0795089F099EFA23DB009C4666447B1E98460B2B03D957495748FEF7C1FD002E03D156495448FEF7BBFD554B42469B5C9846022FF8
:404180001FD1002E04D1E82189004E48FEF7AEFDB30705D16421300000F0BCF9002908D1C8214900300000F0B5F9002903D1012302E0012300E00023002B02D001239C462B
:4041C000E044454505D901230793089B019301330893089B0C2B08D901230893099B01930133099301E00133049302A8FFF7A2FC20001830FFF7F6FE5EE0049B002B53D185
:4042000017330493069B0193013B0693002B01D101330693079B0193013B0793002B39D1089E099DFA23DB009C466544771E0B2F03D923492348FEF759FD002D03D1224980
:404240002048FEF753FD214BDF5D022E1DD1002D04D1E82189001B48FEF748FDAB0705D16421280000F056F9002908D1C8214900280000F04FF9002903D1012302E001236B
:4042800000E00023002B00D001370797089B0193013B0893089B002B08D10C330893099B0193013B099301E0013B049302A8FFF741FC2000FFF796FE0AB004BC9046F0BD53
:4042C000BE03000054A20010BF03000048A200107047C046014B986B7047C0460000274010B50400072302009A4303D003490448FEF7FCFC034BDC62DB6A10BD0505000039
:4043000090A200100000274010B50400072302009A4303D003490448FEF7E8FC034B5C6310BDC0461A05000090A200100000274070B506000D00FFF7CDFF0400FFF7D0FF53
:40434000E30701D5FFF7E2FEA30707D5002D03D03000FFF7DDFE01E0FCF7F4F8630701D5FFF7B6FF70BDC04670B50D001600002907D1002408E02878FCF7F8FB01350134FC
:4043800000E00024B442F6DB200070BD70B50D00160000290CD100240DE0FCF7F3FBC0B2287001340A2806D00D2804D0013500E00024B442F1DB200070BDC04610B50C4BEA
:4043C0001B78002B0DD10B4C0B4A0C492000FDF777FC0B4A0B492000FDF7A0FD0122044B1A70044A1368802109060B43136010BD303200080000674090320008CCA20010E3
:4044000084D71700A0860100002243088B4274D303098B425FD3030A8B4244D3030B8B4228D3030C8B420DD3FF22090212BA030C8B4202D31212090265D0030B8B4219D300
:4044400000E0090AC30B8B4201D3CB03C01A5241830B8B4201D38B03C01A5241430B8B4201D34B03C01A5241030B8B4201D30B03C01A5241C30A8B4201D3CB02C01A5241F9
:40448000830A8B4201D38B02C01A5241430A8B4201D34B02C01A5241030A8B4201D30B02C01A5241CDD2C3098B4201D3CB01C01A524183098B4201D38B01C01A524143094D
:4044C0008B4201D34B01C01A524103098B4201D30B01C01A5241C3088B4201D3CB00C01A524183088B4201D38B00C01A524143088B4201D34B00C01A5241411A00D201465C
:40450000524110467047FFE701B5002000F0F0F802BDC0460029F7D076E7704703460B437FD4002243088B4274D303098B425FD3030A8B4244D3030B8B4228D3030C8B4265
:404540000DD3FF22090212BA030C8B4202D31212090265D0030B8B4219D300E0090AC30B8B4201D3CB03C01A5241830B8B4201D38B03C01A5241430B8B4201D34B03C01AA9
:404580005241030B8B4201D30B03C01A5241C30A8B4201D3CB02C01A5241830A8B4201D38B02C01A5241430A8B4201D34B02C01A5241030A8B4201D30B02C01A5241CDD2FF
:4045C000C3098B4201D3CB01C01A524183098B4201D38B01C01A524143098B4201D34B01C01A524103098B4201D30B01C01A5241C3088B4201D3CB00C01A524183088B4227
:4046000001D38B00C01A524143088B4201D34B00C01A5241411A00D201465241104670475DE0CA0F00D04942031000D34042534000229C4603098B422DD3030A8B4212D3EE
:40464000FC22890112BA030A8B420CD3890192118B4208D3890192118B4204D389013AD0921100E08909C3098B4201D3CB01C01A524183098B4201D38B01C01A52414309A6
:404680008B4201D34B01C01A524103098B4201D30B01C01A5241C3088B4201D3CB00C01A524183088B4201D38B00C01A5241D9D243088B4201D34B00C01A5241411A00D236
:4046C0000146634652415B10104601D34042002B00D54942704763465B1000D3404201B5002000F005F802BD0029F8D016E770477047C0468446101C62468C46191C634643
:4047000000E0C0461FB501F0EFF8002801D40021C8421FBD10B501F043F84042013010BD10B501F0E1F8002801DB002010BD012010BDC04610B501F0D7F8002801DD002053
:4047400010BD012010BDC04610B501F069F8002801DC002010BD012010BDC04610B501F05FF8002801DA002010BD012010BDC0468446081C6146FFE71FB500F05BFB0028CD
:4047800001D40021C8421FBD10B500F0E7FA4042013010BD10B500F04DFB002801DB002010BD012010BDC04610B500F043FB002801DD002010BD012010BDC04610B500F096
:4047C000F5FA002801DC002010BD012010BDC04610B500F0EBFA002801DA002010BD012010BDC046F0B54F464646C0B41604360C9946330005042C0C070C150C63437E43E2
:404800006F4365431C0CAD1964199C46A64203D980235B02984647446346250CEF191D044B464A4343432D0C240464199918C91920000CBC90469946F0BDC046F8B54A0243
:40484000430244004E00C50F240E28009B09360EC90F92098D4259D0A01B002800DC8DE0002E1AD1002A00D079E05A0704D00F221A40042A00D004335A0138D50134FF2C8B
:4048800000D189E028009B015B0AE4B25B02E4055B0A2343C0071843F8BDFF2CE5D08021C9040A431B2800DD89E016002021C640081A8240511E8A4132439B1A5A0114D50A
:4048C0009B019E09300001F04BFF05388640844265DC041B330020200134E340041BA640721E964100243343BFE75A07BFD1DF082800FF2C2FD1002F00D187E08022D20361
:4049000013003B435B025B0AFF24BFE7A11B002949DD002E29D0FF2CA7D08026F60432431B2900DD8DE017002026CF40711A8A40511E8A413A439B185A01D6D50134FF2C53
:4049400064D0012276491A405B080B4013438CE7031ECAD100207B025B0AE4B296E701380028AAD0FF2C9DD17FE7002A00D17CE701390029DFD0FF2CD2D176E7002820D1F1
:40498000601CC0B2012853DD80279E1AFF0437402FD0D61A0D0095E72800002376E7614B241A334061E700294DD1611CCEB2012E2FDDFF292AD09B185B080C0055E70122F0
:4049C0007BE7002C1BD1002B5BD0C04300280CD0FF2E7ED01B2800DD92E01D002024C540201A8340581E83412B43D31A34000D0064E7002E00D065E700200024ABE7FF2E02
:404A000067D08024E40440422343E3E7FF2400233CE7002C61D1002B7ED0002A00D124E79B185A0100D460E73E4A0C0013401CE7002C1ED1002B2FD1002A66D013000D00E2
:404A400013E7012277E7002C1FD1002B5AD0C94300290BD0FF2E50D01B295FDC1F002024CF40611A8B40591E8B413B439B18340062E7002B1CD1002A4AD013000D00FF2426
:404A8000F3E6130034000D00EFE6FF2E35D08024E40449422343DFE7002A00D1E5E68027981AFF04074000D152E7D31A0D00DCE6FF24002A00D1D8E68020DB08C0030342E9
:404AC00004D0D208024201D113000D00DB00FF24CBE61300FF240D00C7E6002B0DD0FF24002A00D1C1E68021DB08C9030B42EDD0D2080A42EAD11300E8E71300FF24B4E679
:404B0000012372E713003400AFE60027002022E780270020FF03F1E61300A6E60123A5E7FFFFFF7DFFFFFFFBF0B5564644465F464D46F0B444024600C70F83B08846650AF2
:404B4000360EBA463DD0FF2E22D00023EC00802599469B46ED0425437F3E43465C025800DB0F640A000E984636D0FF2830D080230021E400DB041C437F38301A0190484685
:404B800042460843724E800030587A4013008746002D44D108239946063B9B46DDE70122FF2000241A406402C305640AD2071C431443200003B03CBC90469946A246AB464A
:404BC000F0BD002D20D104239946033B9B46C4E7002C17D1022102E0002C0AD10121321A01924A4643460A435A48920082587B409746200001F0B4FD431F76309C404042C5
:404C00000021BAE70321B8E7280001F0A9FD431F9D4000237630464299469B469DE70C239946093B9B4698E780240022E403FF20B9E70024C2468B465A465346022AAED05E
:404C4000032A7DD0012A31D1012200201A400024A9E70122101A1B2856DD1A4000200024A1E78023DB031D424BD18023DB032B435C02640A3A00FF2095E76D016001854231
:404C800030D2019A0024013A01921B220127290064006D00002901DBA84201D82D1A3C43013A002AF3D16A1E95412C4301987F300028CEDD620704D00F222240042A00D099
:404CC0000434220103D5244A019814408030FE2800DD64E70122A401640AC0B21A4062E72C00A9E72D1A1A220124CFE76B02BCD500248023DB031C436402640A4246FF2046
:404D000051E71C42B3D1F4E721002022C140101A8440621E94410C43620704D00F222240042A00D00434620104D5012201201A40002438E70122A401640A1A40002032E79C
:404D40008023DB031C436402640A5246FF202AE700A3001040A30010FFFFFFF7430270B542004C005D0AC30F4802120E460A240EC90FFF2A0FD0FF2C11D00120A24200D03F
:404D800070BDB542FCD18B420DD0002AF8D12800431E9841F4E70120002DF1D1EBE70120002EEDD1E9E70020EAE7C0464302F0B542005D0AC30F4802440A4800120E000EFF
:404DC000C90FFF2A1FD0FF2822D0002A09D16E426E4100280FD1002C0DD10020002D09D005E0002801D1002C01D08B4213D0584201231843F0BD002EF7D04842414101209B
:404E000049420843F6E7002DDDD002204042F1E7002CDAD0F9E78242E9DC04DBA542E6D80020A542E6D25842434101205B421843E0E7C0464302F0B542004C005E0AC30F31
:404E40004802120E450A240EC90FFF2A17D0FF2C19D0002A0BD170427041002C17D0002807D048424141012049420843F0BD002C13D08B4214D0584201231843F6E7022048
:404E8000002EF3D1E3E70220002DEFD1E1E7002DE5D10020002EE9D0EDE7002DE9D1EAE7A242E8DC04DBAE42E5D80020AE42DDD25842434101205B421843D7E7F0B55746BF
:404EC0004E4645464300E0B446028846760A1F0EC40F002F47D0FF2F25D0002380259A469946F600ED042E437F3F434642465D02D20F5B006D0A1B0E904640D0FF2B39D0BB
:404F000080220020ED00D20415437F3BFB1842465746591C62408C4607430F2F5CD86F49BF00C9598F46002E45D108239A46063B9946DAE7424602282DD0032800D1C3E011
:404F4000012800D0A2E0002500260240D4B27602ED05760A2E43E407264330001CBC90469946A246F0BD002E1AD104239A46033B9946BAE72A00511E8A41901CC6E70120E6
:404F8000002DC3D0280001F0EBFB431F76309D4043420020BAE70124FF2514400026D6E7300001F0DDFB431F9E400023763047429A46994699E70C239A46093B994694E710
:404FC00080260024F603FF25C1E735004846B2E7350022004846AEE72904090C0800370C3604360C2C0C7943704367437443060C64183619B14203D980214902884647444A
:405000000004000C310409188D01681E8541890E2943350CED19AD010D43290104D5012369081D4063460D4319007F31002925DD680704D00F202840042800D004352801CE
:4050400003D5274980330D401900FE29A3DC0124AD016E0A1440CDB279E78020C003064207D0054205D128434602760A4446FF256DE706437602760AFF2568E70124611A83
:405080001B2905DD14400025002660E76346CBE72E002023CE40591A8D406B1E9D412E43730704D00F233340042B00D00436730104D5012401251440002648E70124B601A9
:4050C000760A1440002542E780260124F6032E437602760A1440FF2539E7C04680A30010FFFFFFF770B5002830D0C317C5185D40C40F280001F034FB9E231B1A962B0DDC40
:405100009622D21A95406A02520AD8B25202C005520AE40702432243100070BD992B19DC9922D21A9540124A2A40690704D00F210D40042D00D00432510103D50C4B1A408F
:405140009F231B1A9201520AD8B2DFE7002400200022DBE705222E00121AB921D6402A00C91A8A40551EAA4135001543DBE7C046FFFFFFFBF0B556464D4644465F46F0B437
:405180001D000E034C00CB0F87B0070092468146360B640D98466AD06D4B9C4235D08022430F12041343F6001E43C3009946694B00279C460023644402932B0368001B0B27
:4051C000ED0F51469B46400D009500D178E0604B98426CD05B46DA004B0F802109040B4313439B465346D9005A4B9C46002360444246201A6A40924601901F430F2F00D959
:40520000B0E05548BF00C0598746374300D088E0002399460233082700260293CDE74346B34649460093029B009A9246022B00D0BFE1002153460122002689461A40444B0A
:40524000002136030C0D2405360B2643434C1B0526401E437600D207760816434846310007B03CBC90469946A246AB46F0BD330003434FD0002E00D1BCE1300001F070FAE4
:4052800003000B3B1C2B00DDADE11D220100D31A08393A008F408E40DA40B9461643304B00279C46002360444442029385E753465A4613432CD1002300219B46023397E706
:4052C0000B4320D05B46002B00D19EE1584601F047FA03000B3B1C2B00DD8FE102005946083A91408B461D21CB1A5146D9400B0059460B4351469B469140194B9C46604424
:405300004042002374E7002300219B4601336FE703236DE70023994601330427002602934BE703230C27029347E70122D51A382D00DCB0E153461A400021002300268946CA
:405340007EE700238026994600223603004B77E7FF07000001FCFFFFC0A30010FFFF0F80F30300005E4500D972E100D16DE1019B4D46013B01930023340002935B461E028B
:405380000B0E1E430B020393330C994633041B0C494620000093FFF737F8009B370043430600494620009846FFF7B4F82C0C09040C43A04509D9E419731EA74200D95CE178
:4053C000A04500D859E1023EE4194346E41A49462000FFF719F80300009A80465343494620009B46FFF796F82A040904120C0A4393450DD94346D219013B974200D93AE14E
:40540000934500D837E102235B429C46D219E0445B46D21A4346360433439B460399180C0B0C1D00059309045B46090C0C001B041B0C4443049159436B4368431B190D0C4B
:40544000EB189C4203D980246402A44660441C0C09041B04090C20185D18824200D2DEE000D1D7E0161A029B9C465D1BAC459B415B42F61AB74200D106E149463000FEF7DF
:40548000C3FF009B04004343494630009846FFF741F82E0C09040E43B04509D9F619631EB74200D9F3E0B04500D8F0E0023CF6194346F31A494618000293FEF7A5FF009BA5
:4054C00006004343494602989846FFF723F82D0409042D0C0D43A84509D9ED19731EAF4200D9D6E0A84500D8D3E0023EED192404210043463143049E059A3000ED1A0B04D0
:405500000C0C1B0C58436643534354439A19030C9B189E4203D980225202944664441A0C00041B04000C14191B18A54250D34DD001231943964A019B94466344002B00DCB2
:40554000F3E64A0709D00F220A40042A05D00A1D8A42894149428B4411005A46D20108D55A468C4B1A4093468022D2009446019B6344894A934200DD5BE65A46C908500769
:4055800008435602514601225B058146360B5B0D0A4055E680231B031E4211D05A461A420ED15E461E433603360B2A0089467B4B46E6032B00D1E1E0012BBBD11A40BBE67F
:4055C0001E433603360B4246744B39E6002BB1D07D194A1EAF4252D91100A542A8D1039A9A42A5D1A6E703003E00283B9E400023994654E601F0B4F8203041E6030052464A
:40560000283B9A400021934677E6504601F0A8F820305EE6029B0026AB4200D323E7039E0299B44661448846B045B6415B467642F619B218013B0291974213D290424FD841
:4056400000D18EE0161A9B460DE7894500D28EE674084B46F60735005B081D434B46DB0702938BE69742EDD10399029CA142E5D93E1A9B46F7E69846CAE61E00A5E6AC42AA
:405680003ED874D0110053E70121494252E71C000EE71E002BE71F2D3CDC20230A0058465B1B9840EA4099400243481E81415E461143EE404B0709D00F230B40042B05D03F
:4056C0000B00191D99429B415B42F61833023CD55346012200211A40002601238946AFE502235B429C46039CE344A446029B63449846A045B6417642F6190293B218B1E6CE
:4057000003988A1E41008142B6417642F619AD19039161E71F225242D31A5A46DA401300202D29D040225846551BA8400143481E814107200B4318400026002809D00F2204
:4057400000261A401900042ABBD10B0070077602360BDB0803439946012253461A4000236EE502998D42BBD89B4600267BE603989842C5D3110032E70020D7E780265B4646
:4057800036031E433603360B009A8946034B57E5FF030000FFFFFFFEFE070000FF070000F0B55F4656464D464446F0B41F035C00DB0F9A46194B0E034D00C90F8046360B4A
:4057C0006D0D8B4691463F0B640D9D4219D0134B9C421BD00123A54206D018003CBC90469946A246AB46F0BDBE42F6D1C845F4D1D34510D0002DF0D1304303005A1E934170
:40580000EBE7310001230143E7D1E0E73A430123002AE2D1DEE70023DFE7C046FF070000F0B55F46444656464D46F0B41F033C0B2C4F0E034D00A3465C008446360B6D0D93
:40584000C90F9046640DDB0FBD422BD0254FBC422ED0002D0ED130430700814678427841002C17D15F463A4314D14B460020002B0AD006E0002C02D15846024301D09942B0
:405880001AD00123484218433CBC90469946A246AB46F0BD0028F2D058425841012240421043F1E737000743D0D002204042EBE75F461743CDD0F8E7A542E2DC05DB5E459B
:4058C000DFD808D000205E45DED248424841012340421843D8E7C445D3D80020C445F4D3D2E7C046FF070000F0B55F464D4644465646F0B41C03240BA4462F4C0F034D00B1
:405900005E00C90F80463F0B6D0D8B469146760DDB0FA54220D0284CA64222D0002D12D1384344424441002E20D0002C0DD05C42634101245B421C4320003CBC9046994680
:40594000A246AB46F0BD002E17D05B4519D05B465C4201231C43EFE7390002240143EBD1D9E7614602241143E6D1D7E761460A43DBD100240028DFD0E9E761460A43E4D1A2
:40598000E5E7B54203DD01225C421443D4E7B542CDDB6745DBD809D000246745CCD259464C426141012449420C43C5E7C845CED80024C845F3D3BFE7FF070000F0B55F4612
:4059C00056464D464446F0B40D0399464E002B0B87B00700924680469B46760DCC0F002E69D06D4B9E4235D05B468022DD001204430F13432B439B46C3009846674B002711
:405A00009C460023664401934A4615035000D20F53462D0B400D914600D176E05E4A90426CD080225B0F120413435C4AED0094461D4353460022DB00604449463618701C90
:405A40006140029017430F2F00D9AFE05448BF00C759BF465B461F4300D088E000239B469846023308270193CEE74946022A6AD0032A00D109E2012A00D0BBE111400022C1
:405A8000002300259046CCB200212D030A0D12052D0B1543434A1B0515401D436D00E4076D0825434046290007B03CBC90469946A246AB46F0BD034352D05B46002B00D106
:405AC0008AE1584600F04CFE03000B3B1C2B00DD7BE11D22D31A3A0001005D46DA4008398D4013008F402B439B46B8462E4B00279C46002360444642019385E752462A4363
:405B00002CD100250023022297E752462A4321D0002D00D154E1280000F022FE03000B3B1C2B00DD46E11D21CB1A51460200D9405346083A954093400D431B4A94466044FE
:405B40004042002279E7012400220C40124B0025904699E70025002301226EE703226CE700239B4698460133042701934CE703230C27019348E700238025984600242D0360
:405B8000054B81E75D464346019A6FE75D4643462100019A6AE7C046FF07000001FCFFFF00A40010FFFF0F80F30300004246120C91461A0C9446424617044A461B041B0CA3
:405BC0005A43604690464A4642431000039262461C003F0C7A437C4342440192220C9246019A5244904506D98246802040028046C24450460390100C049048462404240C0E
:405C00001204121905922A0C2D042D0C68432C00824648467C4350438146200C8046574357444744BA4503D9802040028046C144380C3F04B84648442404240C01900498D6
:405C4000A044404404905846000C814658460404200C8246070048465F434C464343604660436446834650464443380C8446E4186444A34203D980235B029C46E3444846EB
:405C80003F04230C3F0C2404E419574668436F4384464D46504655434243380C814662444A445B44944503D9802040028446654403983F04834604983F0C8446E344C34589
:405CC000804140428246100484460198674484466744A344BC46A345A4419946D44464428742BF41D4458041E144A04699459B417F424042C8440743120CBA18A045A441F4
:405D00005F423B0064422343D71843467D19DB0D6D021D435B465A02059B1A43531E9A415B46DB0D1A4343465B021343EA0107D501225C0813402343EA07029E13436D08EB
:405D4000574AB218002A4BDD580709D00F201840042805D0181D98429B415B42ED180300E80104D54F4A15408022D200B2184E48824200DDE7E60124DB08680718436D02E3
:405D8000530580462D0B5B0D0C407DE6802259461203114208D0154206D115432D0398462D0B4C46414B6FE65D4615432D032D0B3E4B69E603005546283B9D400023BCE6D8
:405DC000504600F0CDFC2030A8E60300283B9F400023BB46984689E600F0C2FC203073E60124A61A382E07DD00220C4000230025904649E6029EA3E71F2E20DC20222C009E
:405E00001800921BF040944093400443581E83411C43F540630709D00F232340042B05D023001C1D9C4292415242AD182B021FD5012400220C4001230025904624E61F2053
:405E40002C004042821AD440202E1CD04022961BB5402B43581E83410720234318400025002809D00F2200251A401C00042AD8D1230068076D022D0B0124DB0803439846C7
:405E80000C40002300E60025E3E780220124120315432D0398462D0B0C40044BF4E5C046FF030000FFFFFFFEFE070000FF070000F0B557464E464546E0B40E001100F20F8D
:405EC0009246C500420F180337037400400A4E0F7F0A3043CF4E17435A00640D520DDB0FC900B24200D1E5E001267340A61AB446534500D1AFE0002E00DC0DE1002A3AD1B1
:405F000003000B4300D0E4E06B0709D00F232B40042B05D02B1DAB42AD416D427F191D003B0200D488E0BB4B01349C4200D110E13A00B94B51461A4001235007ED085202C2
:405F400064050543120B640D0B400021280012030D0D120B64052D0515436208AF4CDB072C401443640064081C4321001CBC90469946A246F0BDA74B9C42C5D080231B046C
:405F800018436346382B00DDFDE01F2B00DD30E1624620239B1A02009A40664690460A009940F24046464B1E99413243114363460200DA40691A8D429B410D00BA1A5B426C
:405FC000D71A3B0235D57A02530A98464346002B00D1C4E0404600F0C3FB0300083B1F2B00DDC5E020222900D21A4746D1409F400A009D403A439C4200DDC0E01C1B631CFA
:406000001F2B00DDE4E0202114002800C91AD8408C408D400443DA40681E854117002543002471E7424663461A4300D14CE2674645466B0700D069E7012351467807ED0836
:40604000FA080B40054373498C4238D012036405120B640D79E7002E00DC9AE0002A47D06C4A944200D14FE78022120410436246382A00DC08E10143481E81410022C9B252
:406080004919D219A942BF410D007F42BF183A0200D442E15F4A0134944200D14EE101205D4A69083A4028400843D507054357089A4629E706000E4300D017E714E72900FA
:4060C000114300D1F9E1802109030A431203120B3BE701235B429846C4446346002B72D1691A8D429B413F1A5B42FF1A0D0068E702000A4300D107E7012252429046C44459
:406100006246002A00D0E6E06918A942B6413F187642F7190D00BAE7002E00D080E0621C5205520D012A00DCF9E06A1A91464D45B6413A1A7642921B9046120200D499E081
:406140004D1BA9428941C71B49427A1A90469A463CE752460123002513400022F5E6280000F0FEFA20300300083B1F2B00DC39E72A002838824000259C4200DC3EE7264F46
:40618000E41A1740C0E60143481E81410022C9B210E7002E00D0F1E0621C94465205520D012A00DCA0E01B4A944500D1C5E06918A94292413F185242D2194908D5070D433A
:4061C00057086446A0E6134B9C4200D0D9E69BE611001F3CE1400C00202B00D180E04021CB1A9A4015436A1E95410027254300241FE763460200203BDA406346202B71D0CB
:40620000402366469B1B98400143481E814111430022CFE6FF070000FFFF7FFFFFFF0F80002C48D0CA4CA24200D1A2E07442A1468024240427434C46382C00DDDBE01F2CDE
:4062400000DD44E14E462024A41B3E00A640A246B0464C462E00E640B4464646644626435446A5406C1EA54134002C434D46EF400D1B28E04A4643464D461A4300D0A5E61C
:40628000002300240025DEE61F2A5ADC66462022921B060096409146B04662460E00D640424616434A4691404A1E9141020060463143C240E4E63C002C435AD0F443A146C8
:4062C000002C52D14D1BA9428941C71B49427F1A14009A4675E69E4A944200D0C7E613E600227FE700208FE7002C00D0C8E03B002B4300D10FE103000B4300D104E66918F0
:40630000A9429B413F185B42DF193B0200D41AE1904B0D001F406446F6E59A4689E63A002A43002C5CD1002A75D102000A4300D1CAE007000D009A46E6E564460022002599
:4063400081E662460600203AD6406246B046202A00D1B7E040226646921B904001434246481E8141114300228AE6794CA24200D061E707000D0014009A46C5E5002C41D132
:406380003C002C4378D0F443A146002C20D0704CA24271D04C46382C00DDB2E01F2C00DDBCE02026341BA2463C005646B4404E46A0462C00F440A446444666463443A44602
:4063C0005446A54064466E1EB54125434C46E7406D188D4289413F184942CF19140056E6002A2FD102000A4300D184E007000D009A46574C88E53D436F1EBD41ECB2002717
:406400000D1B60E7524CA24236D0744280263604A1463743BEE702000A4300D174E56A1A90464545B6413A1A7642921B9446120200D4F7E54D1BA9428941C71B49427F1AFB
:406440009A4661E502000A433AD0ED087C072C438025FA082D032A4208D0C7082F4205D145072C003A009A46C9080C43670FD200E5001743364C47E507000D00140043E54E
:406480003A002A4343D002000A4319D0ED087C072C438025FA082D032A4207D0C6082E4204D147073C003200C9080C43D700620FE50017439A46264C26E50022002544E5A6
:4064C000234C21E5002049E700230025BBE54C463E00203CE6404C46B446202C31D040244E46A61BB7403D436C1EA54164462C4300270D1BE7E6802200231203144C002590
:40650000A1E53D436F1EBD410027EDB260E707000D000F4CF8E407000D00F5E44E463C00203EF440A0464C46202C0ED040244E46A41BA7403D436F1EBD41444600272543BF
:4065400046E70027CFE70D0073E50027F2E7C046FF070000FFFF7FFF0B0330B5134D1A0B4B005B0DC90F0024AB4211DD104CA34210DC8024640322430E4CE41A1F2C0CDDF9
:406580000D48C31ADA4013005C42002900D11C00200030BD094BCC18FAE7E040084CA44663449A4013000343EEE7C046FE0300001D0400003304000013040000FFFFFF7FA3
:4065C000EDFBFFFF70B5002830D0C317C4185C40C50F200000F0C4F8174B184A1B1AD21A1F2A18DD164AD21A9440002224035B05240B5B0D0021100024030A0D1205240B3E
:406600001443104A1B0514401C436400ED0764082C43210070BD210091400A000B21081AC4405B052403240B5B0DE3E70025002300240022DEE7C0461E040000330400006D
:4066400013040000FFFF0F8070B5051E28D000F087F8154B154A1B1AD21A1F2A16DD2C00134A0025D21A94405A052403240B520D002124030B0D240B1B0523430D4C1205A4
:40668000234013435B002800590870BD0B212C00081AC440954024035A05240B520DE7E700220024E4E7C0461E0400003304000013040000FFFF0F804200120E511C4302B3
:4066C000C9B270B55D0AC40F012915DDE02189008C466D071B0B6244002128000D0D2D052B431C4D52052B40520813435B00E4075B082343190070BD002A15D1002D1FD0A9
:40670000280000F02DF80A281DDC0B232A001B1ADA4013000200153295400F4A1B03121A52051B0B520DD7E7002D06D080221B0B120313436D07094ACEE7084A0023CBE703
:4067400000220023C8E703000B3B9D402B000025E3E7C046FFFF0F8089030000FF0700001C2101231B04984201D3000C10391B0A984201D3000A08391B09984201D3000944
:40678000043902A2105C40187047C0460403020201010101000000000000000010B5034B0100186800F06CF810BDC0467001000810B5034B0100186800F016F810BDC046CF
:4067C00070010008002310B59A4203D0CC5CC4540133F9E710BD03008218934202D019700133FAE77047000070B50500002944D00C1F2368002B00DAE418280001F0F7FFA2
:406800001E4A13681100002B02D16360146031E0A3420DD92268A018834203D118685B688218226063600C6024E0A24203D813005A68002AF9D11E689819A0420BD12168E0
:40684000711858181960824214D110685268411819605A600EE0A04202D90C232B6009E021686018824203D1106852684118216062605C60280001F0BBFF70BD383200085C
:40688000032370B5CD1C9D43083506000C2D01D20C2501E0002D01DBA94202D90C23336048E0300001F0A3FF234B1C681A002100002913D00B685B1B0DD40B2B02D90B6068
:4068C000CC181EE08C4202D1636813601AE04B6863600C0016E00C004968E9E7174C2368002B03D1300000F091FD20602900300000F08CFD431C18D00323C41C9C43A042DD
:406900000DD12560300001F073FF200007220B30231D9043C31A0ED05A42E2500BE0211A300000F073FD431CEBD10C233000336001F05EFF002070BD383200083432000803
:40694000F0B58BB014001D1E129906DA802424061B191D0014002D2300E000230B702023149E03229E43462E07D03300453B59424B411099013ACB18109309AB049308ABD4
:406980000393139B00920293109B220001932B0000F06CFF0700472E02D1119BDB072DD5109BFB180793462E14D13B78302B0CD10022002320002900FDF7ACFE002804D1E1
:4069C0000123109A9B1A139A1360139B079A1B68D31807930022002320002900FDF79AFE3022002802D0079B099307E0099B0799994203D9591C09911A70F7E73800099BC4
:406A0000159ADB1B13600BB0F0BDF7B52B2307000C000270861C002901DA2D234C427B70092C1CDD6B46DD1D20000A21FDF75CFE013D3031297020000A21FDF76FFD04008F
:406A40000928F1DC013D30342C706B4607333000AB4209D92B78013533700136F5E73023E4183370B01C7470C01BFEBDF0B595B00C000A920B931A9D099001F045FE03680A
:406A800018000D9300F084FD0023129323680E900C930C99277E2B680722C90501D59B1800E0073393431A0008322A601A685B68A264E3640122E56CA66C6B005B080F936A
:406AC0005242C04B30000F9902F0C4FE002819D10122BC4B524230000F99FDF72BFE002810D10022002330002900FDF719FE002803D023002D2243331A70B34D472F0ED82B
:406B0000B24D0CE032002B003000290002F0A2FE002800D19AE1AE4D472F00D8AD4D03230C9A236101339A432260002642E0672F00D193E1472F00D190E10C9A0021134390
:406B400012AA059211AA0392232223600691019308A9636852180292009332002B0004970998FFF7EDFE20233A0005009A43472A00D18EE11199652F00D996E12000013900
:406B80003A0050301191FFF740FF129A060083182361012A00DD85E12268D20700D581E1232308AA9B181B78002B03D023002D2243331A700B9B13AA009321000A9B099860
:406BC00000F0A4F9431C02D1012040429BE12268530501D4236964E0652F00D8CCE0A06CE16C00220023FDF795FD00282CD00123794A0A9909980B9DA847431CE4D0119B4F
:406C0000129A934208DB2368DB0705D4236800259B0700D50FE113E10B9D0E9B0D9A0A990998A8470025431CCED0129B013B9D42ECDA220001231A320A9909980B9EB0474E
:406C4000431CC1D00135F0E7119B002B2BDC0123614A0A9909980B9EB047431CB4D0119B002B05D1129B002B02D12368DB07CDD50B9E0E9B0D9A0A990998B0470026431C83
:406C8000A2D0119B5B429E420ADA220001231A320A9909980B9FB847431C95D00136F0E7129B2A00ACE0A36D129E9E4200DD1E00002E05DC00230C93F343DB170F9315E076
:406CC00033002A000A9909980B9FB847431CF1D17AE7220001231A320A9909980B9FB847431C00D170E70C9B01330C930F9BA26D0C993340D31A9942EBDBAE18119B129ACB
:406D000093420DDB2368DB070AD4129B119AED18AD1B9B1A9D4200DD1D00002D09DC11E00E9B0D9A0A9909980B9FB847431CECD14AE72B0032000A9909980B9EB047431C6B
:406D400000D141E7EF43FB1700260C930AE0220001231A320A9909980B9FB847431C00D132E70136119A129B0C999B1A2A000A409B1A9E42EBDB49E7129B012B02DC01239C
:406D80001A4245D001232A000A9909980B9FB847431C00D118E70E9B0D9A0A9909980B9FB847431C00D10FE7A06CE16C00220023FDF7B0FC002801D000251AE0129B6A1C0C
:406DC000013B26E0FFFFEF7F4CA4001048A4001054A4001050A4001058A40010220001231A320A9909980B9FB847431C00D1EBE60135129B013B9D42F0DB220033005032B1
:406E00000A9909980B9DA847431C00D0FEE6DBE62A000A9909980B9DA847431CEDD1D3E62200012319320A9909980B9EB047431C00D1C9E60135E368139A9B1A9D42EFDBE8
:406E4000139BE06898425EDA18005CE080236268DB00511C00D06AE6073202E0002A02D10122626069E60C9908A80B430021069112A9059111A9039123210918236001931F
:406E800000922B000497029132000998FFF758FD0500119BDA1C02DB626893421CDD023FFFB267E6013323617AE6662F15D16368002909DD2161002B02D12268D2071ED52B
:406EC0000133591821611AE0002B03D101222168114213D09A1C11E06727119B129A934206DB22682361D20709D50133236106E00121002B01DC4918C91A8A182261119BAB
:406F00000026A3654CE615B0F0BDC046F7B5170001938A680B6900900C00934200DA130022003B6043321278002A01D001333B6023689B0602D53B6802333B6006252368AC
:406F40001D401ED0230043331B785A1E9341226892061CD53020E1184331087021005A1C45310978A2184332023311700FE022000123193201990098089EB047431C0ED007
:406F80000135E3683A689B1A9D42F0DBDAE72200019943320098089DA847431C02D10120404220E006232068E1683A6803400025042B03D18D1AEB43DB171D40A36822699B
:406FC000934201DD9B1AED180027BD420AD0220001231A3201990098089EB047431CDED00137F2E70020FEBDF0B58BB006920A0043320793059004920A7E0C00109B6E2A37
:4070000000D1ABE011D8632A22D009D8002A00D1B5E0582A00D0C5E045310A70814A4FE0642A1DD0692A1BD0BCE0732A00D1AAE009D86F2A29D0702A00D0B3E0202209688A
:407040000A43226037E0752A1FD0782A33D0A9E00E001A684236111D196013683370A4E021681A68080606D4490604D5111D19600023D55E02E0111D19601568002D3BDABD
:407080002D23049A6D42137036E021681A68080606D4490604D51568111D1960ADB202E0111D196015685F4B227E039308276F2A1DD00A271BE022007821453211705A4ADE
:4070C00019680392081D226818600D68100602D4500600D5ADB2D30702D520231A4322601027002D03D1202322689A4322602300002243331A7002E00A274A4B03936368E3
:40710000A360002B09DB0422216891432160002D05D1049E002B11D07BE0002D79D0049E28003900FDF7F6F9039B013E5B5C280033703900FDF768F9051EF1D1082F09D1EE
:407140002368DB0706D563682269934202DC3023013E3370049B9B1B23612BE009681A68080607D4490605D5111D19601368A28A1A8004E0111D1960136862691A6000234A
:40718000049E236116E01A68111D1960166800216268300001F020FB002801D0801B6060636803E0260042363270012323610023049A1370079B09AA00932100069B059870
:4071C000FFF7A4FE431C02D10120404227E02369320006990598079DA847431CF4D0236800259B070FD4099BE068984217DA180015E022000123193206990598079EB04709
:40720000431CE1D00135E368099A9B1A9D42F0DBE9E72600039B42361B7833708EE70BB0F0BDC0465AA400106BA400100FB40B4B13B51C68002C05D0A369002B02D12000D9
