:020000041000EA
:4000000000400208230100100D00000085010010000000000000000000000000000000000000000000000000000000008101001000000000000000008101001081010010E9
:400040008101001081010010810100108101001081010010810100108101001081010010810100108101001081010010810100108101001081010010810100108101001060
:400080008101001081010010810100108101001081010010810100108101001081010010810100108101001081010010810100108101001081010010810100108101001020
:4000C00010B5064C2378002B07D1054B002B02D0044800E000BF0123237010BD1434000800000000C4DF0010084B10B5002B03D00749084800E000BF07480368002B00D181
:4001000010BD064B002BFBD09847F9E70000000018340008C4DF0010D8050008000000007047FFF7FDFF72B60F4C104DAC4209DA21686268A368043B02DBC858D050FAE70B
:400140000C34F3E70A490B4A0020521A02DD043A8850FCDC084809490860BFF34F8F00F0A1FC00F017FBFEE7F8EC021010ED021014340008884600080000000808ED00E04E
:40018000FEE7FEE700B504207146084202D0EFF3098001E0EFF30880043003F027F9FEE710B50021002004F085FD10BD10B50D4B984206D00C4B984208D080235B019842EF
:4001C0000ED10021002005F0D1FC09E00B89122B06D10B681A78054B1A70C86826F094FA10BDC046084000000E5000003034000810B50EF085F810BDF0B58DB006000023DC
:400200000B930A93099308930793069305AD2B706B70284C284F0097643300227421200002F092F90B90012003F084F83B0064223100200002F008FB0A90012003F07AF832
:400240000097642301227421200002F0FDF90990012003F06FF8009764232A000021200002F090FA0890012003F064F80097642315226A440121200002F084FA0690012013
:4002800003F058F83A006421200002F049FA07900B990A9A099B0898069C079E029601940090064809F0D4FA687800022B7818430DB0F0BD000067403846000880BF0010E5
:4002C000F0B587B007000E0000230593049303930293174C174D0095643300227421200002F032F90590012003F024F82B0064223900200002F0A8FA04902B0064223100D0
:40030000200002F0A1FA0390012003F013F82A006421200002F004FA02900599049A039B02980090044809F093FA07B0F0BDC0460000674038460008D8BF0010F8B5060046
:400340000D0014001F0083210020FFF7B9FF402002F0F0FF0120FFF74FFF38800220FFF74BFF30800320FFF747FF28800420FFF743FF208042210020FFF7A2FFF8BDC04683
:4003800070B582B004000D0016000B4B188808F011FC0A4A0A4B07F009FE084A094B08F07FF80090019133002A002100064809F04FFA02B070BDC046C64500089A9999997B
:4003C0009999A93F99B9504008C00010F0B583B005000F0014000193224B188808F0EAFB214A224B07F0E2FD1F4A214B08F058F808F0AAFB0600E9190919312901DC0124BD
:4004000000E00024089800F00BFC002802D0194809F09AFA3100019800F002FC002802D0154809F091FA0123092C00DC0023134A53600C4B188808F0BDFB0B4A0B4B07F0F5
:40044000B5FD094A0A4B08F02BF8012400220C4B06F07EFB002800D10024084B9C6003B0F0BDC046C64500089A9999999999A93F99B9504064C0001084C0001030340008C0
:4004800000003440F8B507000E0015001C000F4BD86809F063FA092C04DD00232B8033803B8011E009F088FA142106F017FB398009F082FA142106F011FB318009F07CFA65
:4004C000142106F00BFB2980F8BDC0463034000810B513000A000100014809F0B9F910BDA8C0001070B5FA246400074804F094F80500013C052002F01DFF002D01D0002CCA
:40050000F3D1280070BDC046FCCC001070B5FA2464000121064804F00FF90500013C052002F008FF002D01D0002CF2D1280070BDC000000810B5FFF7D5FF002804D05C213F
:400540000F4802F01DFF0BE0FFF7E0FF002804D06F210B4802F014FF02E0022004F096FB084C0949200002F083FE0023E25E002A05DB1F231A401E3B9340044A136010BDED
:4005800098C100105CC20010A101001000E100E00122014B1A6270473034000810B5094C012323712368581D3C2106F0ADF92160FFF7ACFF002804D097214900024802F0FD
:4005C000DFFE10BDC000000898C1001070B58AB004002E4806F0C6F805AB00221A705A704C2199702A490988D9702A49098819712949098859714121997128490988D97197
:400600002749098819722749098859725421997225490988D97243211973244908795873087A98730969D973482119745C749A74DA7401E00DF064FE1D4B1B78022BF9D150
:400640001C4804F079FF00241AE01B4809F07CF9164E009601236A46938002AD13332B8108226946280008F0C0FB280005F0EEFB05AB1B5D3370FA20800002F05BFE01349A
:40068000172CE2DD06F090F80AB070BDAD010010CA450008C0450008CE450008D2450008D0450008C4450008C64500083034000814460008F1010010A4C10010F0B54746FF
:4006C00080B482B02F4B586A00F0F0FA80460023019300250026002717E02A4C01A9606A00F0C2FA019B9C4667441900606A00F097FA01A9A06A00F0B7FA019B9C466644F8
:40070000A06A190000F08CFA01354545E5DB4146380006F0FDF805004146300006F0F8F80400280006F0D6FF174906F0F5FC174906F0BCFE051C154906F03AFA002800D065
:40074000124D200006F0C6FF0F4906F0E5FC0F4906F0ACFE041C0D4906F02AFA002800D00A4C211C281C06F061FB08F09DFA0022074B07F01BFC08F0E7F902B004BC904636
:40078000F0BDC046303400080000C8410000C8420000E03FF0B585B062B6454800F008FA00F07CFC434B1B68586800230222002109F050F905F0FCFF3F4802F0BBFDFFF77D
:4007C000B9FE00F023FA3D4C606200F01FFAA06200F01CFAE06200F019FA2063384D394E394F3A4B2A0031003800FFF7A7FD2A8831883888FFF7C4FD304CA36A9C462A88CC
:4008000031883888636A00936346FFF7DFFD636A99682F4809F01CF8E3680133E3603A883388D3182A88D3182A4F2B4E2B4D3A0031002800FFF726FE3A8831882888FFF713
:4008400047FEFA20400002F075FD236A002B04D000221A4B1A62FFF7A1FEFFF72FFF040001001F4808F0F4FF144B586A8368172B0CDD0023039303A900F0F6F90F4B986AFF
:4008800003A900F0F1F9174809F05EF80B4BD8680F2106F023F9002902D12000FFF796FEFA20400002F046FD002003F0C9FA95E700000810940500088813000030340008E5
:4008C000CE450008C0450008CA450008C6450008BCC10010C4450008D0450008D2450008DCC10010F0C1001010B5002001F00CFB10BDC04670B56249E0239B00CB580F22EC
:4009000013401A00D0329200525807210A40032A05D0042A06D0002A12D15A4814E05A4A106811E01A00C0329200554952581F210A40112A06D0132A04D0FA20C00103E094
:40094000524801E080200002002B36D14C4BB222D2009A5801211140B125ED005A59120F032422405B591B0F1C4207D0444C63591B0F03242340012B02D102E0012300E06E
:400980000023002B01D0002901D1032A4BD13C4BB022D2009D58AD03AD0B3D495958C904C90C9C58240E01231C40013405F026FF6843210005F022FF35E0012B33D1304BDC
:4009C000C822D2009A5801251540C024E4001A59120F03210A401B591B0F194207D028490B591B0F03210B40012B02D102E0012300E00023002B01D0002D01D1032A12D1B3
:400A00001F4DC022D200AB587F210B40A958090A1F263140AC58240C3440584305F0EEFE210005F0EBFEE0239B00154AD3581B0903221340D840144C6060164B1D692D0AA1
:400A4000FC32154001351969090E013105F0D6FEA060290005F0D2FE0500E06020610E4BC0180E4905F0CAFE20750D4BE818FA21890005F0C3FEA061C003E06170BDC046B1
:400A80000000264000127A00F000000800366E0184050000000021403F420F0040420F00E703000010B5284803F076FA274CB022D200A3585B005B08A350E0218900635812
:400AC00030208343635080235B04A350204A214BE250A02292010433E250FF221E4BE25003F048FAC0225200A35801218B43A35000F054FAFFF7FEFEB0235B055B78002B0E
:400B000004D0B0235B055B78DBB200E02123212B03D1124B0022DA605A60114C22008021042000F051FF2000103001F02BF80D4B1A685123D35C002B02D00B4801F098F851
:400B400000F07CFB10BDC046C8C700100000264001000200840500008C050000E0002340643400080C46000808C200108023024AD3580320184070470000214010B502F09E
:400B8000C8FC084980228C58074B2340074C23438B508823034AD358DB06FAD502F0BDFC10BDC04600002140FCFF00000100FA0570B50500830504D0E821FF310F4802F09C
:400BC000DFFB02F0A6FC0400FFF7D0FF032801D1FFF7D4FF0A4AB0239B00D55080215058084B03400848034353508823044AD358DB06FAD5200002F090FC70BD3CC200104C
:400C000000002140FCFF00000300FA0510B50C2008F0C8F8002343600360836010BDC04670B504000D00002815D0002916D0082008F0B8F8002814D00560002343606368AA
:400C4000002B01D0586000E020606060A3680133A360002007E00120404204E00120404201E00120404270BD70B5041E13D0002914D08368002B14D0006803680B60456860
:400C800008F09AF82560A368581EA06000280BD10023636009E00120404206E00120404203E00120404200E0002070BD002801D0806801E0012040427047C04610B5040007
:400CC0002100034801F052F90028F9D010BDC04600006640C2239B00034AD358DB05F9D0D0239B00D058704700006640FEE7C046014A024B1A60704701001180000E1F417A
:400D000030B587B0934A116808230B431360924C03E0012002F028FB013C8E4B1B695B0701D4002CF5D1002C01D18C4B00E00023002B02D00520FFF7D9FF8948A021C90078
:400D4000435803229343023A13434350854A116808688823CB58C31818688349084018601368186884241B59C01803681B021B0A80256D042B430360106805680359EB1884
:400D800018680140196013683E229A5C002A06D07348E02189004258753CA24342503E229A5C002A06D06E48E021890042583024A24342503E229B5C002B07D06849E0221A
:400DC00092008B588020000603438B500021012001F048FF0021022001F044FF0021032001F040FF0021042001F03CFF0021002001F038FF01A85D4903000A0032CA32C32B
:400E000012CA12C301F082FF002802D00420FFF76DFF5349564A8B588020000603438B50544802F02DF8002802D00420FFF75EFF4B4C514BE158514A0A40E250E158504AAF
:400E40000A40E250E25880252D062A43E250043BE1584C4A0A40E250E1584B4A0A40802189010A43E250E258802109020A43E250384A1168454B0B401360002003F05CF8E4
:400E8000434BE2582A43E250E158012291430A43E2506421002002F0C1FA324B1B683F229A5C052A06D970229A5C01210A403949986842509A6874215B5AD21851682A4BF9
:400EC0000B408C2189010B435360264B1B6873229A5C0321914070229A5C7220185C140084402143012002400A43802109060A438021C900986842509A6852583F229A5C85
:400F0000062A03D90021244A986881509A6874215B5AD2181168144B0B40F82149010B431360104B1A687323D15C703B8B4019007023D35C7220105C83400B438021090618
:400F40000B438021C9009068435093685B5807B030BDC0460000274020A1070002004A00000026400C460008FF00FFFF64C20010087F0000400D030004050000FEFCFFFF90
:400F8000FFFF00FFFFF0FFFFFF8FFFFFFFFCFFFF0C050000140C0000180C000070B58EB09621002002F03AFA02F010FA002801D102F0FCF9012002F05DFE2E4A516C2E4B14
:400FC0000B40E82189010B435364536C1B0AFF2213403A2B07D1274A516C284B0B40E82189010B43536401AC34220021200007F005FF234D22000021280000F02BFA342270
:401000000021200007F0FAFE22000121280000F021FAFFF775FE0F221A4B1A601A4A1B4B1A6024220021200007F0E8FE2100280000F0AAFB164D22002B00143343CB43C200
:4010400043CB43C243CB43C22100124800F09CFB22002B00383323CB23C223CB23C223CB23C221000C4800F08FFBFFF741FE0EB070BDC04600002740FF00FFFFFFC5FFDFFC
:401080000000324000006740070101000002674064C20010800232400003324010B5094B1B78002B07D1084A0849094801F002FC0122044B1A70064A1368802109060B436F
:4010C000136010BDF4350008D4450008C0C2001000006640C00543425841C0B27047C046214B984230D00ED8402831D004D800281FD010282AD031E080282BD080235B00A8
:40110000984229D02AE0194B984229D007D8A0231B0698420DD0164B984212D01EE0154B98420AD0144B984209D0144B984215D101E0002016E0124814E0124812E01248D6
:4011400010E0A020C0030DE007480BE00F4809E00F4807E00F4805E0034803E00E4801E0A420C0037047C04606005200010000F0090000A0040000F0050000F0030000F0A4
:40118000010052000200520003005200010050000200500005005200FF00520070B5124B1A683123D35C002B04D1C421FF310F4802F0E6F80C4B1D682C00B423EB582A6A6F
:4011C000944663441B68002B0BDB094B1868FFF787FF6B6801229A6063689B68002BFBD100E0044870BDC0460C46000800C30010F83500080200500010B50D4B1861002804
:4012000005D002230370FD33437000234380094B1B6850229A5C002A08D051229B5C002B04D04F3A0449002000F0DCFD10BDC046F83500080C4600085106000810B502483F
:401240001430FFF7D9FF10BDF835000870B504000D00FFF73FFF002836D0002D36D0FFF749FB1B4B1B4A1A6000225A609C60DD60194B1B6852329A5C002A1FD01A6884215A
:401280005B58D31819681A68120AFF2313405A1C0B0E01335343114C5C43114B1868FA21890005F0ABFA0100200005F0A7FA0D4BC118802040000AF043FE08E000218020E1
:4012C00040000AF03DFE02E0074800E0064870BDF8350008000100050C460008C0EA2101F4000008482600000600520010B5FFF755FF10BD10B50400FFF7ECFE00283ED00F
:40130000FFF7F8FAE02252051E4B1A601E4B1B78002B05D01B4A1368802149000B431360184B5C6000229A60DA60184B1B6854329A5C002A1ED01A6884215B58D3181968CD
:401340001A68120AFF2313405A1C0B0E013353430F4C5C430F4B1868FA21890005F04EFA0100200005F04AFA0B4BC11800200AF0E7FD05E0002100200AF0E2FD00E0074897
:4013800010BDC046F83500080B0000160C46000860F59000F4000008980800000600520070B504000D00FFF795FE002842D0002D42D0FFF79FFAC022D204204B1A60204B02
:4013C0001B78002B05D01D4A1368802149000B4313601A4B802252005A609C60DD60194B1B68AD3A9A5C002A1FD01A6884215B58D31819681A68120AFF2313405A1C0B0EBC
:4014000001335343104C5C43104B1868FA21890005F0F4F90100200005F0F0F9E1239B00C11800200AF08CFD07E0002100200AF087FD02E0064800E0054870BDF835000807
:401440000B0000160C460008808D5B00F400000806005200F8B54F464646C0B406000D001400002800D16FE1002A00D16EE1072903D94521B84801F083FF2368012B03D9C1
:401480004621B54801F07CFF0F2362689A4303D04721B14801F074FF237A1F22934303D04821AD4801F06CFFE368032B03D94921A94801F065FF2369012B03D94A21A648B8
:4014C00001F05EFF6369012B03D94B21A24801F057FFA369012B03D94C219F4801F050FFE369032B03D94D219B4801F049FF236A012B03D94E21984801F042FF636A012B96
:4015000003D94F21944801F03BFFA36A012B03D95021914801F034FFE36A032B03D951218D4801F02DFF236B072B03D952218A4801F026FF2768072D03D98849884801F0F2
:401540001FFF012F04D9CA218900854801F018FF002F03D10123AB40736002E00123AB40B3606768072D04D9F12189007C4801F007FF0F233A009A4303D07A49784801F048
:40158000FFFEA900784B1A687D23D35C9B191A6890460F2291468A40404690430200484607408F4017431F60277A072D04D9A22189006B4801F0E4FE1F233A009A4303D00B
:4015C0006A49674801F0DCFE674B1A689369F31ADB0952691B01D318032D0AD81968E8001F22824091431F22174087400F431F600AE02A1F5968D2001F20904081431F2081
:40160000074097400F435F60E768082D04D9DD21C900534801F0B4FE032F03D95449504801F0AEFE6900504B1A687C23D35C9B191A689046032291468A40404690430200B4
:40164000484607408F4017431F602769082D03D94849434801F094FE012F03D94649404801F08EFEB36901221100A9408B431740AF401F43B76163699846072D03D93F4904
:40168000374801F07DFE4346012B03D93C49344801F076FE34487E230268D35C9B191A6801273900A9408C468A43110042463A40AA400A431A606B0010229046984403213C
:4016C0000B00424693406246134399467F2203689A5C9446B44463461A684B469A43A3693B40AB401A43E3691940434699400A4363461A6002688023D35CF6183368FF22EE
:40170000944693431800236A1F40636A5A00022313403B43A26A9100042739400B431F00E36AD900182319403B000B43226B520161460A401343AD00FE2292001540AB4021
:4017400003433360002002E00E4800E00D480CBC90469946F8BDC04640C300102703000080C30010C50300000C46000889020000E9060000690600006A06000003040000B9
:401780000404000001005A0070B505000C0000285DD000295DD0FF230A689A4303D099212D4801F0EDFDFF2322699A4303D09A21294801F0E5FDA3685B0D03D09B212648CB
:4017C00001F0DEFD63685B0A03D09C21224801F0D7FDE3695B0F03D09D211F4801F0D0FD236A5B0F03D09E211B4801F0C9FD1B4A11688B69EB1ADB0949691B01CB1821682A
:4018000029607D211068415C6918E06808607E211068415C6918206908607F211068415C6918606908607C211068415C6918A06808606168A961116880228A5CAD18A26967
:401840002A60E2691A60226A5A60002002E0044800E0034870BDC04640C300100C46000801005A0070B504000D000A4B1A68B423D3581B181B68002B0ADA0B0C03D0064952
:40188000064801F07DFD2D042D0C6560002000E0034870BD0C460008D5020000C0C3001001008A0070B505000C000368002B01DA002300E0084B002B0BD1EA60230C03D029
:4018C0000649074801F05CFD2404240CAC60002000E0014870BDC04601008A00BB020000C0C3001070B505000C1E03D19921084801F046FD074B1A68B423D3585B191B6812
:40190000002B03DAEB682360002000E0024870BD00C400100C46000801008A0070B504000D00234B1A683123D35C834236D9002936D00B68DB0635D13123D35C984204D35F
:40194000C421FF311B4801F01BFD194B1B681A6AB0215B5A5C431419174E34602B68DA080021686807F04AFA00212000FFF77AFF3468002D03D111490E4801F001FD2A0079
:4019800000212000FFF78EFF00280DD10A4B18680021FFF767FF002808D108E0084806E0074804E0064802E0064800E0054870BD0C460008C0C30010103600089303000010
:4019C00003018A0001018A0010B50400002A17D1002915D1124B1A683123D35C984204D3C421FF310F4801F0CBFC0D4B1B681A6AB0215B5A5C4314190B4B1C6000200EE01B
:401A0000002A09D0002909D0074B59609A60191D2000FFF783FF02E0044800E0034810BD0C460008C0C300101036000803018A00F0B583B00D001C4B1B68DC68236883427C
:401A40002DD947097B01C01A012383401E00002903D101F05EFD019001E000230193124B18680368002B01DA002300E00F4B002B0ED16368BF00DF193B68334203D13343AA
:401A80003B60002400E00A4C0021FFF7EBFE00E0084C002D04D1019801F03FFD00E0064C200003B0F0BDC0461036000801008A00020188000301880004018A00F0B583B026
:401AC0000D001C4B1B68DC68236883422DD947097B01C01A012383401E00002903D101F018FD019001E000230193124B18680368002B01DA002300E00F4B002B0ED16368FE
:401B0000BF00DF193B68334203D0B3433B60002400E00A4C0021FFF7A5FE00E0084C002D04D1019801F0F9FC00E0064C200003B0F0BDC0461036000801008A00020188008D
:401B40000301880004018A000A4B1B68DA68136883420BD943095901401A0121814052689B009B580B4203D0034802E0034800E003487047103600080101880004018A0000
:401B800000018800034B1B68002B01D1014B18607047C0461C360008F0B5474680B404000F0090461E002D4B1B68002B03D1B5212B4801F0E5FB294B1B682C2060431C1858
:401BC000FF22150035402560330A13406360360CA660244B1A683123D35C9D4204D3C421FF31214801F0CCFB1E4B1A68B023D35A6B43116A8C466344236166683223D35C57
:401C00009E4204D3E021FF31174801F0B9FB154B1B681D6A80367601AD196561A668330C04D0FF214900104801F0AAFB330C03D00E490D4801F0A4FB3604330C1E43AE60E7
:401C40004346E36127620023A361069B002B02D000229B5EA38104BC9046F0BD1C36000840C400100C460008C0C30010FF010000F0B58FB0041E03D15221294801F080FB42
:401C80006368032B03D95421254801F079FBE36A002B03D15821224801F072FB236B002B03D159211E4801F06BFB07AA1300210061C961C321C921C302AD29002300143374
:401CC000C1CBC1C141CB41C10821535E0CAE3380144B1B6836215B5E07998C466344B370089B0D930B9B0A980096A26AE16AFFF753FF2B69E868002200920021FFF74CFF99
:401D0000216B300001F0B4FA0023F25E002A05DB1F231A401E3B9340034A13600FB0F0BD40C400100C46000800E100E0F8B505000F0016001C00002A03D1FD21224801F03E
:401D40001FFB224B1B68002B03D1FE211E4801F017FB1E4B1B682C2128004843181879435918012213004D68AB401B044568AA4015000269002A20D08F69002F1FD11268D2
:401D8000002A01DA002200E0114A002A19D132681204120C134333600369DE6001238B614C6204692B0C03D00A490B4801F0E8FA2A04120CA260002004E0084802E00848CA
:401DC00000E00748F8BDC04640C400101C36000801008A00BB020000C0C3001004028A0007028A0070B504000D0016000F4B1B68002B04D1AF2149000D4801F0C1FA0B4BF4
:401E00001B682C2060431C18236A002B04D1B1214900074801F0B4FAE369B34204D9236AB6009D51002000E0024870BD1C36000840C400100A028A0070B582B0040000231E
:401E40000193002804D1D221FF312D4801F098FA2369002B04D1E9214900294801F090FA6369002B04D1D421FF31254801F088FA236A002B04D1EA214900214801F080FA65
:401E80006269D5682B0C24D01B041360136820691C4B1A68B423D358C3181B68002B18DA01A9FFF71FFD00280ED1019803681E0CFF221340E269934207D29B00226AD35843
:401EC000002B02D0984700E0002631002069FFF7C9FC2D042D0C0FD063691D601B68636A002B03D098470023636203E0A36A002B00D098470023A36163691B6802B070BDC5
:401F000040C400100C46000810B50400084B1B68002B04D1B221FF31064801F031FA044B1B682C2060431818FFF786FF10BDC0461C36000840C4001010B50400094B1B68DA
:401F40009B6CC340DB0703D4BE21074801F018FA044B1B681B691034A402E3580F20184010BDC0460C46000880C4001003681B0501D5802200E0402282239B00C358DB056A
:401F8000DB0D934204D090239B00C150012000E00020704710B500293FDBC0230B4207D00023836680235B05536000232F4942E0CB0535D4CB070FD551682D4B994232D12D
:401FC000016E8023DB050B4059424B41DBB280214905516027492EE08B0706D55168244B994223D10023244925E0CB0605D580235B055360002300211DE051681C4B99423C
:4020000017D1537B002B02D088235B0301E0A0235B035360002300210DE0012317490AE00123174907E00123124904E00023154901E000230021002B10D003685B005B08E8
:40204000036000238366C36603688024240623430360036880235B05536005E0F0231B011822FF32C250C358080010BD0820AA00000013100620AA000420AA000320AA00C4
:402080000720AA000520AA0010B504000368002B09D0012001F068F92368013B2360002B03D0002003E0002001E08020000610BDF8B505000C0016000B78012B04D00A7A3B
:4020C000002A03D1002702E0002700E00127002D00D1B3E0002C00D1B2E0002E00D1B1E0013BDBB2022B03D94F21574801F048F96378002B00D06379002B03D0502152482C
:4021000001F03EF90323E356002B03DA51214E4801F036F92379DB0703D552214A4801F02FF92369102B03D95321474801F028F9E368102B03D95421434801F021F9637973
:40214000002B02D08021490200E00021E279002A02D080235B0000E000230B438022120113432B60A379002B01D1110000E0002123695A1E0F2313401943E3685A1E120153
:40218000FF231A400B0013432278920713432B66002F01D02D4A01E00822FF32C0239B00EA50002F01D02A4B00E02A4B2B676378002B01D07F2200E00022C1239B00EA502E
:4021C000E3785B00FF221340227912041343C4229200AB50204A80239B00EA50A378002B01D0402200E0012281239B00EA5000231A4AAB501A4AAB501A4AAB501A4AAB50C5
:402200001A4AAB502378022B02D0D222FF3200E00022174BEA5063783370A378737080235B0573600023B360B36133623364F3633363F3627364B364002004E00D4802E0B0
:402240000C4800E00B48F8BD04C500100703000003002A0013102A0007010100C80E0000880E0000C80F0000880F0000080F0000480F00000120AA0070B505000C1E03D181
:402280001749184801F07CF82B6E9B0F012B11D1154A164BE31893421AD9154A154BE318934217D9144B9C466444144B9C4213D8134814E0002C11D02A6E12090F210A400C
:4022C0002B6E194051180231200004F097FA06E00C4804E00C4802E0002000E0002070BDC302000004C50010405B730020AD88FF50A9AB005059E8FF004D0EFF40555C0487
:4023000040420F00801A0600A0860100F0B55F4656464D464446F0B483B0060089460192002A03D17549764801F02AF84B465C1E744B9C4203D97449714801F021F8336ED1
:402340009B0F012B0DD101993000FFF795FF0700C0229200B1586D4B0B40B3506C4B3367C4E0684B9C4226D86A4B99450AD86A4A019B6A498C466344934220D900239B4684
:40238000013334E0664B99450AD8664A019B66498C466344934219D900239B46013326E0624A019B62498C466344934217D900239B4601331BE000239B46013317E0002335
:4023C0009B465C4B9A461D00002310E000239B46E1239B009A46C825ED00002307E001239B467C33FF339A469B25AD000023002B7BD10199504804F001FA070001002800C0
:4024000004F0FCF9040003007B439D4200D90134102C00D9102400230F22A2425B41DBB298463900504604F0E9F905004743BA4500D90135102D00D910256119019804F0E5
:40244000DDF9070016E04346002B05D00F2C0CD801340023984608E00F2D06D8013500230F22A2425B41DBB298466119019804F0C5F907004F4502D963191F2BE3D95B46D6
:40248000002B09D0C0229200B358802189000B43B3502A4B336707E0C0229200B1581B4B0B40B3501A4B3367E31F092B03D92449244800F065FF326EF0239A43013C2301C8
:4024C000FF241C40144334666B1F0B2B04D9B421C9001C4800F054FF326E0F218A436B1E19400D001543356600E00027380003B03CBC90469946A246AB46F0BD12020000D2
:4025000004C500103F420F0013020000FFFDFFFF13102A00A0860100502D19005059E8FF801A0600A043210020AD88FFC02BAF00807E25FF8813000000CA9A3B03002A006E
:402540008305000044C50010F0B583B006000C0017001D000B0604D5D921C900324800F00FFF324B9D4203D931492F4800F008FF012F03D92F492C4800F002FF00222E4BD3
:40258000F250089B5A6880235B059A4245D1FA239B006B430193294B089A53607B1E5A425341089A5373F0231B011822FF32F250F358FC231B01143AFF3AF250F358812371
:4025C0009B00F258802149020A43F250F1581C4A0A40F250F3586400FF231C403C434233FF33F4500223B366F0231B01F4580823FF3321001940F4231B01F358C024234054
:4026000019430C0001A8FFF73FFD21000143EBD0089A3000FFF7BEFC00E00A48D222FF32054BF25003B0F0BD04C5001037894100C9060000CA060000480F00000000131079
:40264000FFFFFEFF0220AA00F0B583B006000F0014001D000B0603D52A492B4800F090FE2A4B9D4203D92A49274800F089FE012C03D92849244800F083FE089B5B68DB0205
:402680003CD5FA239B006B430193234B089A5360631E5A425341089A5373736E9B0601D5092300E00123B366736E9B0605D5002009E001A8FFF7E8FC00E00020002802D1AF
:4026C000B36EDB07F5D4002812D17F00FF231F403C434233FF33F450F0231B01F0580823FF331840040001A8FFF7CEFC2043F3D0089A01003000FFF74DFC00E0074803B0E6
:40270000F0BDC0462907000004C50010378941002A0700002B070000000013100220AA0070B582B005000C001600124B994203D91149124800F024FE7368DB0217D5FA2371
:402740009B005C4301941823AB66F0231B01E8581223FF331840040001A8FFF795FC21000143F2D032002800FFF714FC00E0044802B070BD378941008C07000004C50010DD
:402780000220AA00F0B54F4680B482B007000D0091461C00002A04D1FB21C900254800F0EFFD254B9C4203D92449224800F0E8FD012D03D922491F4800F0E2FD089B5A6893
:4027C00088235B039A422FD1FA239B005C430194FC231B01FB5804241C40F0231B01F8580223FF331840060001A8FFF74DFC31000143002C01D10029EAD0002C09D0D0238C
:402800009B00FB584A461370FC231B010522FA50FB58089A3800FFF7BDFB002805D1002D03D10423BB6600E0064802B004BC9146F0BDC04604C5001037894100D9070000E5
:40284000DA0700000220AA00F0B583B005000F0014001E00134B9A4203D91349134800F08FFD7268A0235B039A4218D1FA239B005C430194A93BFF3BEF50F0231B01E858CC
:402880000823FF331840040001A8FFF7FDFB21000143F2D032002800FFF77CFB00E0044803B0F0BD378941003208000004C500100220AA00F8B505000C001600002800D1A1
:4028C000BDE1002900D1BCE10B78022B03D93F21C14800F055FD637B023BDBB2062B03D94021BD4800F04CFDA37B002B07D0022B05D0032B03D04121B74800F041FD212322
:40290000E35C012B03D94221B34800F039FD2823E35C012B03D94321AF4800F031FD2378012B06D86268083A082393429B415B4208E0A37F002B05D063685A1E062393424C
:402940009B415B42002B03D04521A34800F018FDA368053B042B03D946219F4800F010FD6369FF2B03D947219B4800F009FDA369FF2B03D94821984800F002FDA37C002B42
:402980000FD02378002B07D1A368092B06D1A37B002B05D0012304E0012302E0012300E00023002B03D04A218B4800F0E9FC8B4B626B1A4203D04C21874800F0E1FC884B72
:4029C000E26B1A4203D04D21834800F0D9FC2378022B02D1A37F002B02D063685A1E00E00022237F002B02D08021490200E00021A368082B02D880231B0100E0002319439C
:402A00000F2313400B438022920413432B60226B2B681B0501D5802300E040239A4203D362216D4800F0ACFCA26B2B681B0501D5802300E040239A4203D36321664800F0DC
:402A40009FFC626A2B681B0501D5802300E040239A4203D36421604800F092FC23781B06C022920413402B64637F002B01D0402200E00022A37C002B02D08023DB0000E051
:402A800000231A43237C002B02D08021490000E000210A43637C002B02D08021890000E000210A43E36A013B1B04F020000303401343627B013A07210A4013431900A27B04
:402AC000120130231A400B001343AB64237B002B02D08022520000E00022E37B002B04D12378022B03D1013B02E0012300E00023002B02D080239B0000E000231343A26838
:402B0000013A0F273A401343C02292009446AB50FF2260691040A3691A04FF2109040A400243C4239B00EA50E26A6346EB583B4003339A4201D3102A03D97A21264800F087
:402B40001FFCE37F002B04D02378012B03D0002302E0002300E00123002B02D08020400000E00020627B013A0723134001001943A27B120130231A400B0013436B64237B99
:402B8000002B02D08021490000E00021A3685A1E0F2313400B432278012A02D18022520200E00022134380229200AB50FF23226B1340C1229200AB502023E35C002B02D0D1
:402BC0008022920400E000222123E35C012B09D180235B0407E0C046C4C5001092F4FFFF8CF8FFFF002313432822A25C012A02D18022520200E000221343FF21626A0A4041
:402C000013432B65A36B0B4081229200AB500F4B626B13400E4AAB50E26B0E4B13400E4AAB50002E0FD0002373603360B360F3603362F3623363094B7363002004E0084812
:402C400002E0074800E00020F8BDC0466D0B0000C80F000073070000880F0000EFCDAB000160AA00134B1A683C23D35C83421DD9042904D94B1EFF3B9BB2132B18D8FF291D
:402C80000CD91F2319400C4A0300C0339B009950D03080000423835000200AE007231940D0308000044BC150002002E0034800E0024870470C4600080000264001004A00A4
:402CC00010B504000E4B1A683C23D35C834204D8912149000B4800F053FB2300D0339B00094A985807231840042807D1C034A400A3581B30184080235B00184310BDC04689
:402D00000C46000804C600100000264070B5041E03D14A494A4800F033FBB023DB00494AD358002B00DA87E0474B22689A4203D94649434800F024FB23689B039B0BE2799C
:402D4000002A02D08022520400E000221343B022D2003C498B50A2883D4B9A4204D984218900374800F00CFB2289344B9A4203D93849334800F004FBA388DB04D90C23898C
:402D80001B04354A13400B43344A2E498B50A37A0F2B04D986218900294800F0F1FAE37A0F2B03D92E49264800F0EAFAA289284B9A4203D92B49224800F0E2FAA37A0F21DB
:402DC0001940E27A1201FF2313400B43A289120225490A401343A27B1207C02189050A401343B122D20017498B50A379042B03D91E49134800F0C4FA228A104B9A4204D97F
:402E0000892189000E4800F0BBFA0E4818494558184B1D40A3791B02E022D20013402B4343504558144B1D40238A1B040A4A13402B434350002000E0104870BDFF0100009D
:402E400004C6001000002640FFFF030009020000FF1F0000110200000000FF0184050000190200001A02000000FF1F00230200008C050000FFF8FFFFFFFF00FE03004A0003
:402E800070B505003149324A8B588020000603438B502C0003E0012000F066FA013CB223DB002A4AD3585B0701D4002CF3D12749B122D2008858274B034080208005034300
:402EC0008B50002D01D0002C0CD02049B022D2008B588020000603438B5003E0012000F043FA013CB223DB00184AD358DB0701D4002CF3D1002D01D0002C08D01349B122B7
:402F0000D2008B58C020800503438B5013E00F4BB121C90058580F4A02408020800502435A5008395A58520052085A5008495A58520052085A50002D03D0002C03D000204E
:402F400002E0002000E0044870BDC046000026408C050000FFFFFFCF02004A00F0B5564CA04200D9A2E0A24200D9A1E0534B994200D99FE00124524B1C70FF2805D80F25C8
:402F800005400E340F26072321E04E4B984205D80F2303400F240026002518E0040A0F2323401D00484B984208D80001FF2318402B000343FF240026002508E00402F0208A
:402FC000000120402B000343404C00260025FF2A0DD81201FF2002401543E020C0021843F0231E43F0231B0323439C4625E03548824207D81004F0221203104018432243D4
:4030000094461AE0100A0004F0273F03384018432D4B9A4209D81205F0231B0413401843FF231B0423439C4607E01206F0231B051A401043264B23439C46264B1A68176AB1
:40304000B023D45AE200131BFB181B68002BF4DA1B4B5B78002B04D01F4B204AD358002B18DA1F4A1F4B1A601F4A204B1A601B4AA324E4001359B3431D4315511C4C1359B5
:403080006546AB43184310510D4B5960124BD150002000E017480F4B1A68146AB023D15ACA00531AE31800225A6004E0114802E0104800E00F48F0BD0F060000FFFFFF00FA
:4030C00020360008FF040000FF0500000F0F000000000F0F0C4600081C050000000026401F1F0000080126403D3D0000040126401405000001004A0070B50022264B1A7016
:40310000264B1C68226AB023E55AEC00631BD3181C68002CF4DA224A1468224A944206D1214A1468214A944203D0002502E0002500E00125A422D2001D4CA4582402240AAA
:4031400000225A60002D24D0002C23D000280FD1114B58680A000023002103F05DFD6208002380185941220003F036FD040011E00A0000232000002103F04EFD064B5A68B9
:403180005408002500196941002303F025FD040000E00024200070BD203600080C460008080126401F1F0000040126403D3D00000000264070B505000C001A4B1B68282226
:4031C0009A5C012A15D1820807211000884327D19200AD1AED00FF20A8401B6820339A181168AC4023004B40184004004C40146016E03A229B5EDBB2994203D176210A488F
:4032000000F0BEF8074B1B681B68072215408022120615438022920194466444A400E55070BDC0460C4600088CC6001070B504000D000B4B9A680B4B9A420CD1002904D1E6
:403240003821FF31084800F09BF81034054BA400E058E55003E01034A400044BE05870BD00ED00E0000000088CC6001000000010F0B5474680B482B0061E01914AD0436874
:40328000032B03D93221264800F07AF80023F05E002804DBB178FFF78DFF002400E0214C0023F15E7368002912DB88081E4FC0308000C55903221140C900FC3290468A4052
:4032C00095439A01434613408B402B43C35116E089B20F220A40083A92080632920013481018476803221140C900FF252A008A4097439A012B0013408B403B4343600B4B22
:403300009A680B4B9A4206D10023F05E0199FFF78DFF00E0034C200002B004BC9046F0BD8CC600100100560000E100E000ED00E00000000810B5040006E0084B186800F0F0
:40334000DFF8074B9C46644480231B029C42F4D8044B1868604300F0D3F810BD0C0100080080FFFF0801000810B5034B1B78584300F0C6F810BDC0460401000801BEFEE71F
:4033800070B50D00044C18220100200006F019FCA5610020FFF7F2FFF00A0008024B1B685B6801229A6070470C460008054B802212069A649B6C002B01DB002000E00248F5
:4033C0007047C0460000274003004600054B8022120198585B68FF221A4202D08023DB021843704700002640FEE7C04610B50A4B0268DA6142681A6282685A62C2689A62C5
:403400000269DA6242691A6382695A63C2699A63FFF7EAFF10BDC046F00A0008F0B5474680B4002801D0192300E064238B429B415B42304D2C682268A826A45BA418226843
:403440000327BA433B401A4322602C682268A45BA2181668284CA046264016602C682668AA229446A25A96193268BA43134333602A6813686546525BD3181A68444614409D
:403480001C60002805D010291BD921291BD8012024E0184B1B6855229A5C914215D956229A5C914213D957229A5C914211D958229A5C91420FD959229B5C99420DD8042016
:4034C0000CE000200AE0022008E0002006E0012004E0022002E0032000E00520054A1268526813680F218B430343136004BC9046F0BDC0460C460008FFFCFFFF0000000044
:403500000230800803D001300238FCD1C046C0467047EFF3108072B6704780F31088704710B5B0235B059B899BB2002B04D0B0235B059B899BB201E080235B008022520011
:40354000934215D1184C23681968683A9B58C9180B680F208343963A13430B6021680C689C23CB58E318196881430A431A6019E00D4C2368196898229B58C918B0204005CA
:403580000A4BC2580A4B13400A681343C022920013430B60226811689C23D358CB18054A82581A6010BDC0460C46000848180000FFFCFFFF4418000030B5B0235B059B8966
:4035C0009BB2002B04D0B0235B059B899BB201E080235B0080225200934215D1184C23681968683A9B58C9180B680F208343953A13430B6021680C689C23CB58E318196814
:4036000081430A431A6019E00D4D2B68196898229B58C918B0246405C12040012258094B13400A681343C022920013430B602A6811689C23D358CB1822581A6030BDC046CE
:403640000C460008FFFCFFFFB0235B059B899BB2002B04D0B0235B059B899BB201E080235B008022520093420DD1104B1B681A6898215B58D21811680D4B0B40C021C901AD
:403680000B43136011E0094B1B68196898229B58C918084BB0225205D258074B13400A681343C022920013430B6070470C460008FF8FFFFF18180000FFFCFFFF30B5B023AC
:4036C0005B059B899BB2002B04D0B0235B059B899BB201E080235B008022520093420DD1134B1B681A6898215B58D2181168114B0B408021C9010B43136018E00C4D2B68E7
:40370000196898229B58C918B02464050A4822580A4B13400A681343C022920013430B602A6811689C23D358CB1822581A6030BD0C460008FF8FFFFF4C180000FFFCFFFFD0
:4037400010B5B0235B059B899BB2002B04D0B0235B059B899BB201E080235B0080225200934217D10020FEF7E7FBB0235B055B78002B04D0B0235B055B78DBB200E02123FA
:40378000222B03D8002803D1013004E0012002E0002000E0012010BD10B50400012803D910491148FFF7ECFD002C03D10F4B5869C00F00E000200E4B1A684423D35C002BFA
:4037C0000ED0012C0CD1094B9B695B0005D4074B9B69002B03DA012002E0012000E0002010BDC04662070000D0C60010000026400C46000870B504000D00154B1A684423B2
:40380000D35C002B22D0072803D912491248FFF7B7FD0F4B1A684423D35C002B04D00F4B9B690722134000E0002321009C420DD00A4882690726B243344014438461002D6C
:4038400004D0994202D9C820FFF78EFD70BDC0460C460008CC070000D0C600100000264030B5021E22D0C368002B21D00368002B20D00579A900104BCC582300002103E058
:40388000934205D019005B69002BF9D1012000E0002000280FD0002C03D1AD00064BEA5000E04A6111610023536104E0002002E0002000E0002030BD2C36000810B5021E16
:4038C00028D00479A100144BC9580B0002E0934204D05B69002BFAD1002000E00120002819D08A420DD14B69002B05D0A4000A4AA35000221A610EE0A4000022064BE25093
:4039000009E01A69596951615A69002A03D01B69136100E0002010BD2C36000830B585B004000D00022807D9042805D0032803D02A492B48FFF724FD6B1EDBB2012B07D965
:40394000042D05D0082D03D026492548FFF718FDA400254BE458042D13D0012D1CD112E0A3682B420BD1E3681A6802925B6801930393290002A8236898471B4B5C61646912
:4039800002E0002000E00020002C24D0174B9842E6D1012DE4D11EE0022D01D104E01C006369002BFBD104E00F4B5C69002C00D0246900200DE0A3682B4209D1E3681A6895
:4039C00002925B6801930393290002A8236898472469002CEFD105B030BDC046B2090000D0C60010B30900002C360008FF00420070B50500012804D9E02149001B48FFF74D
:403A0000BFFC1B4B1B68002B05D001210020FFF785FF040000E00024002C20D1FFF779FD0600134B1B68002B03D004210020FFF775FF104A136904218B431361012D01D0C5
:403A400030BF00E020BF3000FFF767FD084B1B68002B09D008210020FFF760FF04E002210020FFF75BFF044C200070BDD0C600102C36000800ED00E0FF00420010B5FFF7A9
:403A800048FD074B5A6807490A40E824A40122435A605A68114059605B68FFF73EFD10BD00002640FF00FC0FF8B50700012803D93D493E48FFF764FCB0235B055B78002BFA
:403AC00004D0B0235B055B78DBB200E021239DB2B0235B059B899BB2002B04D0B0235B059E89B6B201E0802676000020FEF724FA002814D180235B009E4212D1222D12D850
:403B00002B4B1B685C682B4821582B4B19403B068022520413400B432350002404E0274C02E0264C00E0254C80235B009E4201D1222D03D880235B009E4232D01C4B1A68FD
:403B40003123D35C002B04D1C421FF311C48FFF717FC174B1B681D6A80235B009E4203D1002F05D0174A06E0002F03D0164A02E0164A00E0164A01212800FDF793FE0028FC
:403B80000FD10B4B1A68B423D3585B191B68002BF7DBEB681B0E1B06A0221206934200D100242000F8BDC0464C0A0000D0C600100C46000818F00000FFFFFFFE040042009C
:403BC00000C30010010100300300000C010000300100000C70B50400022805D0052803D020492148FFF7CCFBFFF7AAFD002836D0FFF78FFC0600022C07D10120FFF754FFFA
:403C0000051E0FD1FFF78CFC0CE018494B6907229343043A13434B613420FFF7A5FBFFF74DFD0025002D16D110494B69072293431A000723234013434B61022C02D1FFF7B4
:403C400003FD08E09120FFF78FFBFFF7B5FC0020FFF72AFF05003000FFF75FFC00E0044D280070BD02070000D0C600100000264003004200F8B50500012804D9822109017A
:403C80002948FFF77DFBFFF75BFD002849D0FFF740FC0700002D11D10021244B244AD150E823DB00B0225205D65CF6B20120FFF7FBFE041E19D1FFF733FC16E0B0225205E6
:403CC0001C4BD0581A4B194958501B49565CF6B21A481A581F218A4314390A431A500320FFF742FBFFF7EAFC0024002C15D11049124A8B581F20834306401E438E50002D6C
:403D000002D1FFF7A1FC08E00720FFF72DFBFFF753FC0020FFF7C8FE04003800FFF7FDFB00E0074C2000F8BDD0C60010307F00000000264010180000410700001CFF000057
:403D40000300420010B5041E03D115491548FFF717FB154B1A68D168F222D2018A5822601B68F022D201D9688A5862600F4AD9688A58A2600E4AD9688A58E2600D4AD968FA
:403D80008A5822610C4AD9688A5862610B4AD9688A58A261DA680A4BD358E36110BDC046A10A0000D0C600100C46000804780000087800000C7800001078000014780000CF
:403DC0001878000010B5041E03D114491448FFF7D7FA144B1B68F022D201D96860688850114AD968A0688850104AD968E06888500F4AD968206988500E4AD96860698850E4
:403E00000D4AD968A06988500C4AD968E0698850DA682168F223DB01D15010BDC90A0000D0C600100C46000804780000087800000C780000107800001478000018780000B0
:403E400070B50500012804D9A62189003548FFF797FA354B5B68002B05D001210120FFF75DFD040000E00024002C53D1FFF751FB06002D4B5B68002B03D004210120FFF7D3
:403E80004DFD2A4B1B6843229A5C002A08D09A68E023D358DB0603D523481830FFF752FFB0235B059B899BB2002B04D0B0235B059B899BB201E080235B0080225200934291
:403EC00003D1280008F034F809E0194A116904230B431361012D01D030BF00E020BF134B1B6843229A5C002A08D09A68E023D358DB0603D50C481830FFF764FF3000FFF704
:403F00000CFB094B5B68002B09D008210120FFF705FD04E002210120FFF700FD054C200070BDC046D0C600102C3600080C46000800ED00E0FF004200042805D10B4A116816
:403F400004230B4313600FE0094B1A681168A023D358CB180006C022920410401860034A136804218B4313607047C04610E000E00C4600080749C02252008B589B009B084A
:403F80008020C00503438B508B588020000603438B50704700002640014B18607047C0460C460008F0B54F464646C0B483B00400894690466421006802F0A6FC0F000A2108
:403FC000380002F01BFC06010A21380002F09CFC71187F260E406421606802F095FC0F000A21380002F00AFC05010A21380002F08BFC4D192D02FE21C9010D402E43637BDA
:40400000002B1DD0237B002B02D08025AD032E438025ED032E436421A06802F075FC0F000A21380002F0EAFB05010A21380002F06BFC69180904F820400301400E4313E098
:404040006421A06802F060FC0F000A21380002F0D5FB05010A21380002F056FC69180904FC20800301400E436421206902F04CFC0F000A21380002F0C1FB05010A213800F4
:4040800002F042FC69180906E020C00401400E436421606902F038FC0F000A21380002F0ADFB05010A21380002F02EFC69183F250D406421A06902F027FC0B000A21019346
:4040C000180002F09BFB07010A21019802F01CFC79180902F820400101400D43E069642102F012FC0C000A21200002F087FB07010A21200002F008FC79180904FF231B0403
:40410000194029434B461E604346196003B00CBC90469946F0BDC046F0B55F4656464D464446F0B483B00700FFF7F3F90400584B1B69DB070BD4564B9B689B0707D4544D55
:404140000123AB60B720FFF70FF90023AB602000FFF7E3F94E4B9A69120CFF2313401B090F2003409900CB18590002408A18FA23DB00984690447C69651E0B2D03D94549E9
:404180004548FFF7FDF84346002B03D143494248FFF7F6F8424B5B5D9B46022C21D14346002B04D1E82189003B48FFF7E9F843469B0705D16421404602F0A6FB002908D1A9
:4041C000C8214900404602F09FFB002903D1012302E0012300E00023002B02D001239C46E344012301939A46012543E03B6999467C696B1E1E2B03D92A492748FFF7C0F8A0
:40420000631E0B2B03D928492348FFF7B9F84346002B03D125492048FFF7B2F8022C03D80C3443465E1E00E0464601341A2060430A2102F0E3FA2C18A019B4080419642149
:40424000300002F0DBFA430018184300E418C8214900300002F0D2FA2018072102F054FB002900D10731894503D101239C46E24401950135FB689A4501D85D45B6D9019823
:4042800003B03CBC90469946A246AB46F0BDC04600002740BE0300008CC80010BF03000080C800106D0300006E0300006F030000F0B557464646C0B483B0040088461600BC
:4042C0006421006802F020FB0F000A21380002F095FA05010A21380002F016FB69187F2529402379DB0180352B4019430D006421A06802F009FB0B000A210193180002F07F
:404300007DFA07010A21019802F0FEFAC9190902FE20C00101400D43237BDB071B0C1D43FFF7F7F80190634B1B69DB070BD4614B9B689B0707D45F4F0123BB60B720FFF79D
:4043400013F80023BB600198FFF7E7F8594B5B695B023CD520690B281BD90C38002800D10C30642102F0D0FA0B000A210193180002F044FA07010A21019802F0C5FA791826
:404380000904F8235B03194080239B0319430D4319E0002803D1C02109030D4313E0642102F0B2FA0B000A210193180002F026FA07010A21019802F0A7FA79180904FC23D9
:4043C0009B0319400D438021C9030D4314E06421206902F099FA0B000A210193180002F00DFA07010A21019802F08EFA79180904FC239B0319400D43217DC90580231B04DF
:4044000019400D436421A06902F07EFA0B000A210193180002F0F2F907010A21019802F073FA79180906E023DB0419400D43217FC9070D436421206A02F066FA0B000A216F
:404440000193180002F0DAF907010A21019802F05BFA79183F2001402423E35CDB01C030034019430F006421A06A02F04DFA0B000A210193180002F0C1F9020192460A212B
:40448000019802F041FA51440902F8235B01194039432C23E35CDB071B0C19432D23E35CDB07194343461D60316003B00CBC90469A46F0BD00002740F0B583B0041E00D1E3
:4044C00092E003683B2B03D956214B48FEF758FF63683B2B03D957214748FEF751FFA368172B03D958214448FEF74AFF2369013B062B03D959214048FEF742FFA369013B2D
:404500000B2B03D95A213C48FEF73AFFE369632B03D95B213848FEF733FFA669E369FA22D200944663441D00771E0B2F03D933493348FEF725FF002D03D132493048FEF7D8
:404540001FFF314BDF5D022E1DD1002D04D1E82189002B48FEF714FFAB0705D16421280002F0D2F9002908D1C8214900280002F0CBF9002903D1012302E0012300E000230A
:40458000002B00D001376369002B2FD0BB422FD801AA69462000FFF705FDFEF7BAFF05001A4B1B69DB070AD4184B9B68DB0708D4164A916802230B439360002402E0144CB7
:4045C00000E0134C002C0BD1104B009A5A61019A9A619A6802218A439A603E20FEF7C4FE2800FEF79AFF04E00A4C02E0094C00E0084C200003B0F0BDC8C80010BE030000F1
:404600008CC80010BF03000080C80010000027400300A2000100A20010B5FFF74DFF10BD70B5041E03D18C214148FEF7A9FEFEF770FF05003F4B1B69DB070BD43D4B9B68C9
:404640009B0707D43B4E0123B360B720FEF78CFE0023B3602800FEF760FF364B59699A697F231800084000090F25284086003018460028000840301820600E0A33401B090D
:404680002B409800C31858003540281860608023DB030B40581E8341DBB26373002B12D0080C1F2303401B090F2633409D00EB185D0030402818A06080239B030B40581EC5
:4046C000834123730DE0080C3F2303401B090F2633409D00EB185D0030402818A06000232373090E072319402161383313401B090F210B409800C31858000B001340C3180B
:404700006361100A1F2303401B090B409D00EB185D0008402818A061120CFF2313401B090B409800C31858000A408218E26170BDC8C8001000002740F0B54F464646C0B4BF
:4047400083B0041E894600D1F3E0012903D9D0217D48FEF715FE23683B2B03D9D2217A48FEF70EFE2379012B03D9D3217648FEF707FEA3683B2B03D9D5217348FEF700FEE9
:40478000237B012B03D9D6216F48FEF7F9FD2369172B03D9D8216C48FEF7F2FD237D012B03D9D9216848FEF7EBFDA369013B062B03D9DB216448FEF7E3FD237F012B03D9D4
:4047C000DC216148FEF7DCFDA36A013B0B2B03D9DE215D48FEF7D4FD2C23E35C012B03D9DF215948FEF7CCFD2423E35C012B03D9E1215548FEF7C4FD2D23E35C012B03D911
:40480000E3215148FEF7BCFDFEF783FE06004F4B1B69DB070BD44D4B9B689B0707D44B4F0123BB60B720FEF79FFD0023BB603000FEF773FE454B9A69120CFF2313401B095B
:404840000F210B409800C3185E000A40B618FA23DB009C466644A76A7D1E0B2D03D93C493C48FEF78DFD002E03D13B493948FEF787FD3A4B5B5D9846022F1FD1002E04D149
:40488000E82189003348FEF77BFDB30705D16421300002F039F8002908D1C8214900300002F032F8002903D1012302E0012300E00023002B02D001239C46E044236A002B8D
:4048C00039D0434539D801AA69462000FFF7F0FCFEF71FFE06001D4B1B69DB070AD41B4B9B68DB0708D4194A916802230B439360002402E01A4C00E0194C002C15D14B46B9
:40490000012B05D0114B009ADA61019A1A6204E00E4B009A5A62019A9A620C4A936802218B4393603E20FEF71FFD3000FEF7F5FD04E00C4C02E00B4C00E00A4C200003B0CB
:404940000CBC90469946F0BDC8C8001000002740BE0300008CC80010BF03000080C800100300A2000100A20030B58FB004000378012B03D920492148FEF702FD002C36D0DC
:4049800000230293012202A90A7104930A736168069102A90A75226908920B772378012B04D02000FFF7B8FB0A9001E0A3680A930123242202A98B54626901920C922C22EC
:4049C0008B5401328B5418240D4D08E0012102A8FFF7B2FE0500013C3E20FEF7C5FC002D01D0002CF2D1002C02D1064D00E0044D28000FB030BDC04682030000C8C8001011
:404A00000100A2000200A20070B504000E00002803D11D491D48FEF7B3FC002E04D1F42189001A48FEF7ACFC2378002B01D0A56803E02000FFF770FB0500237E002B01D043
:404A4000206A03E020001830FFF766FB63699B026D011D4363681D43B3699A0273695B011343B2681343E26A920240011043E26910439D4203D8834203D3002002E0002069
:404A800000E0012070BDC046CF030000C8C800107047C046F0B5474680B48AB0040002A8FFF7BEFD02A92000FFF7AEFF002866D0049B172B59D9069B019301330693002291
:404AC0000492072B01D901230693079B01935D1C0795089F099EFA23DB009C4666447B1E98460B2B03D957495748FEF749FC002E03D156495448FEF743FC554B42469B5CA8
:404B00009846022F1FD1002E04D1E82189004E48FEF736FCB30705D16421300001F0F4FE002908D1C8214900300001F0EDFE002903D1012302E0012300E00023002B02D095
:404B400001239C46E044454505D901230793089B019301330893089B0C2B08D901230893099B01930133099301E00133049302A8FFF7A2FC20001830FFF7F6FE5EE0049B44
:404B8000002B53D117330493069B0193013B0693002B01D101330693079B0193013B0793002B39D1089E099DFA23DB009C466544771E0B2F03D923492348FEF7E1FB002D61
:404BC00003D122492048FEF7DBFB214BDF5D022E1DD1002D04D1E82189001B48FEF7D0FBAB0705D16421280001F08EFE002908D1C8214900280001F087FE002903D1012321
:404C000002E0012300E00023002B00D001370797089B0193013B0893089B002B08D10C330893099B0193013B099301E0013B049302A8FFF741FC2000FFF796FE0AB004BC46
:404C40009046F0BDBE0300008CC80010BF03000080C800107047C046014B986B7047C0460000274010B50400072302009A4303D003490448FEF784FB034BDC62DB6A10BDF3
:404C800005050000C8C800100000274010B50400072302009A4303D003490448FEF770FB034B5C6310BDC0461A050000C8C800100000274070B506000D00FFF7CDFF040042
:404CC000FFF7D0FFE30701D5FFF7E2FEA30707D5002D03D03000FFF7DDFE01E0FBF758FC630701D5FFF7B6FF70BDC04670B50D000F4B184300040F4BD861FA24A40003E06A
:404D0000013C0120FEF730FB0A4B1B6CDB0701D4002CF5D1002C08D0064B196C01220A431A64DB6A2B80002000E0034870BDC0460080FFFF00003C400400160010B500045D
:404D40000E4B184001430E4BD961FA24A40003E0013C0120FEF708FB094B1B6CDB0701D4002CF5D1002C06D0054A116C01230B431364002000E0034810BDC0460000FF7FD9
:404D800000003C4004001600F0B583B006000A24C02149017548FFF7D1FF002804D16B46991D7248FFF7A2FF002C01D0013C00E06F48002805D16B46DA88C0235B019A42F1
:404DC000E6D1002825D16B46991D6A48FFF78EFF00281ED16B4606331B885B0519D40A248021C9006348FFF7A9FF002804D16B46991D6048FFF77AFF002C01D0013C00E0DB
:404E00005B48002805D16B46DA888023DB009A42E6D1002804D16B46991D5748FFF766FF002844D16B4606331B883F229343B278012A15D1F178012904D88FB20222D21B52
:404E400095B201E000250227402213439BB2302213436A46D380494BCB40494A136013E0F178002904D18FB20122D21B95B201E00025012740229343102213436A46D38084
:404E8000404BCB403E4A13606B469C1DD9883943D9803948FFF752FFF378DB1B03221340AA0092B213432380374A38498B50B0235B055B78002B04D0B0235B055B78DBB2C4
:404EC00000E02123212B4FD0314BB0225205D35A9BB2002B48D0002804D16B46991D2D48FFF704FF002824D16B469A1DDB8860218B4318001380B0256D05254C2B5B60313E
:404F00000B405B08034324490B401380295BC901F020C00001400B43204919401180285BC0239B000340DB00194311801948FFF705FF002804D16B46991D1948FFF7D6FE3C
:404F4000002811D16B469A1DD988C023994311800F4BB0204005C05A302303409B00194311800F48FFF7EAFE03B0F0BD021E000004001600031E0000091E00000048E8011F
:404F8000F00000080024F40064F0010000003C4016180000071E00007FF5FFFFFFE7FFFF061E000070B50C004000084901430848FFF7C4FE051E04D106490748FFF7BEFEED
:404FC00005006001FEF7D0F9280070BD01100000081E0000376800000F1E00000349044A8858102303438B507047C04600003C4070F00100F0B59DB013A9144B0A0018009E
:4050000070C870C270C870C270C870C20AAD28001A002432D0CAD0C0D0CAD0C0D0CAD0C001AC22004833C1CBC1C2C1CBC1C2C1CBC1C20748FCF7A8FB29000648FCF7A4FB00
:4050400021000548FCF7A0FB1DB0F0BD04C90010000132408001324000023240F8B5051E00D1DDE0734B5B689B0301D5FEF706FD714C03E0013C0120FEF776F96F4B704AE2
:40508000D358002B01D0002CF4D16E4B6C4AD358DB0704D56C4BD358DB0700D5C2E0674B674AD358002B00D0BEE0FFF7A3FF644B6649674A99502A78A02109030A43654927
:4050C0005A506549654A9950802252009B58DB0700D5ABE0624B1B6F1B0709D4614B1868614B984206D9190001F088FB013802E0012000E00020524B1B68002803D04003A9
:405100005A4A104300E05A4818434D4B1860494B5B695B0017D501210320FEF76BFB454B5B699B0F01221340524A116844228A5C002A0ED0002B0CD03E4A93698021C90575
:405140000B43936105E03E494B4A8858032303438B503B4C3B4AA658484B3343A3504020FEF702F9464BE358DB070BD42700444C01233B514020FEF7F7F803233B51402025
:40518000FEF7F2F83F4F37403F4E3E432D4B2C4AD650FA24E40003E0013C0120FEF7E4F83A4B3B4AD358DB0601D4002CF4D1002C01D0002400E0374C002C23D12049364A6C
:4051C0008858082303438B500120FEF7E5FA002801D1324E3E43324B1E4001231E43194B174AD650144E03E0013E0120FEF7BCF8154B134AD358DB0701D4002EF4D1002E3A
:4052000000D1244C002C03D12800FFF7BDFD0400002C0CD168782978FFF7C4FE040006E0204C04E0204C02E01F4C00E01F4C2000F8BDC04600002640F07E0E006CF00100B7
:4052400000003C40A0F00100B4F0010006000001A4F00100A8F0010001000100ACF0010000F03D40F800000800093D00041A0080040A00800C460008C4F001003000030087
:40528000B0F00100EFFFFEFF2000020010400000000032400400160068F0010028000200FFFFFBFF010016000300160002001600014B18687047C046F000000810B5002437
:4052C00005E02000FDF7FCFC032804D00134042CF7D9002000E0012010BDC046A023DB00064AD35803221340012B03D0032B03D1012002E0012000E00020704700002640C2
:4053000070B5012902D0082944D049E0294B1B78012B47D00320FCF717FC274B984243D0FFF7CCFF012841D0022008F0EDFF0500FEF7EFF8214B186008F0F3FF040006282A
:4053400017D0022D0AD102200AF098FE032C01D0052C10D1002810D0194C13E001200AF08DFE022C0BD000280BD1FEF741FB144C08E0002406E0124C04E0002402E0104C3E
:4053800000E00F4C0E4B9C4211D10C4B1868FEF7C4F80CE0094B1868FEF7BFF8002406E0074C04E0064C02E0054C00E0044C200070BDC046144600080101880064360008CE
:4053C000FF00420010B50248FEF778FA10BDC0461001000810B5002817D00D4B5860C36A002B01D00A4A936000240A4B1C700A4B1C700A4B1C600A4B1C7000F0AFFB094B30
:405400001C70094B1C70002000E0084810BDC0466436000824460008284600082C4600082946000813460008184600080100160070B598B014AE102510222E49300003F054
:40544000D4FC03AC44220021200003F0D7FC2A4B0393A660294BA3810423A373284A526812692261274A62611B2222836283183A227763770233A377E5771A33E55401330B
:40548000E5545133A387023A323BE2541E48FEF7E7F908F01DFF09A808F0B0FF002827D11A4B0493164B5B68996B002904D01A222E30684403F099FC03A808F047FF00285F
:4054C00013D10122124B1A700023124A1370124A13700B4B5B6801A81A6A01929B6ADB8883800823C38021F085FF00220B4B1A6018B070BD70C90010915F0010E828000056
:405500006436000896100000100100082C0B0008144600081C4600081D4600082C46000810B51AF089FD10BD014B024AD050704778F0010000003C40002803D0024BD86024
:40554000002000E001487047643600080100160010B511F009FB044B1B68002B02D0002800D0984710BDC0467036000810B5002809D0FA23FF33994207D80A00044903F068
:4055800034FC002002E0034800E0024810BDC0460708001601001600F0B55F4656464D464446F0B4B14CA54481460E00904605930B00AF4A914204D942468A18AD498A42C5
:4055C00011D9AD4A934204D94246B218AB498A4209D9AB4A934200D823E14346F318A94A934200D922E1A84B5B695B0010D5A64B5B6907241C40022C25D10520FEF7EAFAF1
:405600000190A24B9842F8D003940123049324E09F4B9D4AD3581F221A40E823DB00B0214905CB5C9B1A5A1E9341DBB20493002B0FD10120FEF71EFB944B9842F9D00190BF
:405640000523039309E00394012304930023019303E005230393002301938E4B019A9A4204D1D621FF318C48FDF78AFEF0231B069C466644730A9A465C0200210320FCF7D4
:40568000D7F90028F9D100250023029399E0B4421BD3BD4219D24A4652191078804606A84146C154594600290DD1802149058846A04441460978684601700178127891422D
:4056C00001D001229346013505E080225205A218127806A8C2540134013304E0002100238B46844647466D4A9342D0D959466046B846002962D0019B002B5FD1059B002B73
:4057000051D1C83300951D00B3465646A24680231B03F7187F023800FBF7ECFD0400013D0120FDF721FEA423DB0322001A409A4201D1002DEBD122000294009D5446B246A4
:405740005E46574B9A4205D1FBF7D0FD554B9842FAD00290029B002B19D1C83300971F00A34606A90098FBF71BFE0400013F0120FDF7FAFDA423DB0322001A409A4204D1DC
:40578000002FEED102945C4601E002945C46444B029A9A4211D1FBF7A9FD424B9842FAD0029001200AE0802000035044400206A9FBF74CFD0290012000E0012001239C463E
:4057C000E244029B019A134301D1454586D3002801D0FDF7E3FD00210320FCF76FF90028F9D1019B002B25D1274B5B695B0009D5039B022B06D10220FEF7ECF90190234B19
:405800009842F8D0204B1B681B0213D4049B002B10D10020FEF72EFA01901C4B9842F8D008E000230193204B029303E0002301931D4B0293019B002B0CD11C4B029999429B
:405840000AD0194B994207D0002901D1002004E0174802E0174800E0174887239B009D443CBC90469946A246AB46F0BDE4FDFFFFFFFFFF0F00001010FFFFFF130080001452
:40588000FF070016000A001600002640040042001CFF00000300420080CA0010FF0100000100500002005000060052000200520013001600120016000100160010B50028A2
:4058C0000AD0FA23FF33994208D8F93BFF3B0A000349FFF761FE02E0024800E0014810BD070800160100160010B50023FFF754FE10BDC04670B5C0B005000C0016008022EC
:4059000052000849684603F070FA05E02A7872406B469E5C0135013C002CF7D1300040B070BDC04680C9001010B50022FFF7E2FF10BDC04600207047B0235B05588880B215
:405940007047C0460020704710B5FDF70DFD10BD064B1B685B6B00229A5E002A05DB1F231A401E3B9340024A136070476836000800E100E0094B1B685B6B00229A5E002ABF
:405980000ADB1F231A401E3B9340802204498B50BFF34F8FBFF36F8F7047C0466836000800E100E0A023DB00024AD358032018407047C04600002640024B034AD058C00FC8
:4059C0007047C0461C0500000000264010B5FDF793FB10BD70B504000D0016000320FCF7B3F8054B984205D0320029002000FDF7B5FA00E0014870BD0101880003004A00F8
:405A000070B5431ADC171B196340934227D3164B164CE458A405A40D884208D9401A51084018110000F0EAFE201A0ED50AE0081A51084018110000F0E1FE00190C4B98424F
:405A400002D802E0002000E00A48084D06496B589B0A9B028205920D13436B5001E000240020201A70BDC0463C05000000002640FE030000FF03000010B5034B1A688021C6
:405A80000902FFF7BDFF10BD2801000810B5FFF7B1FA0220FFF748FD094C2368586B0949FDF7E6FB23685B6B00229A5E002A05DB1F231A401E3B9340034A136010BDC046CE
:405AC000683600085155001000E100E00420704710B5FDF71EFD10BD10B5FDF71EFD10BD10B5FDF785FF10BD10B50021FDF782FE10BDC0467047C0467047C04600207047E4
:405B00000048704711001600004870471100160000487047110016000048704711001600004870471100160000487047110016000048704711001600004870471100160035
:405B40000048704711001600004870471100160000487047110016007047C04610B5024800F0C4FD10BDC0469802000870B5022875D8012975D80022002306E03C4CE45CBB
:405B8000012C01D90132D2B20133002BF6D0012A0CD1384B1B681C688A0052189300E3185B681B79023BDBB2012B5CD8324B1B78002B5AD1314B197000281DD12D4E3468D5
:405BC0008B005B189A0023689D18CB00591A4B006168C918898829822168891849686468E45A0C8031680C68A446624452684968CB185B8853801FE001281DD11D4D2C68B8
:405C00008B005B189A0023689E18CB00591A4B006168C91889893182216889184E686168C9180989318029680C68A446624452684968CB185B895380114B18700D4B1B686D
:405C400018680E4B1B789A00D3189A0080181DF045FB00280AD10122074B1A7006E0094804E0084802E0084800E0084870BDC0461C460008683600081D46000812460008D7
:405C8000294600080100160002001600FF001600F0B58C4600216346002B0BD11A4B1B681C688A0052189300E3189C68E77F0023002613E0144B1B681C688A005218930060
:405CC000E318DC68E77FF2E7E25C002A0AD00133E55C1B2D01D09B1800E00126BB4201D2002EF1D0002E0BD001338279E254002204E0D5180135865C66550132052AF8D976
:405D000001310129C7D9F0BD6836000870B5050021F08EFB041E24D1134B19682B899A00D2189300143B0A6A944663445A68920117D5EA7B1B695B68C8691B1A5000801810
:405D4000C0180A4BC018AA88296803F04EF8EB7B074AD35C012B04D1064A117802230B431370200070BDC0466836000820460008184600081346000870B586B00400028954
:405D8000164B1B685B699B889A4223D101A80300220062CA62C300238381A389C38140230374FFF7B3FF051E0ED123681B789B0705D50B4B1B6821000A48984704E0084B12
:405DC0001B68210008489847084A137801218B43137000E00025280006B070BD683600086C36000805000100060001002446000810B54288531E9BB2132B1CD84478002C3A
:405E00001BD1104B196893009A189300143B0A6A944663445A68920111D51B695868C969411A63001C19641807496118022202F0DCFF002004E0012002E0012000E000207C
:405E400010BDC046683600082046000830B587B0041E18D00E4B1B68196A028993009A189300143BCB185B689B010ED401AD14220021280002F0C2FF2B0007CC07C3280010
:405E8000FFF744FF02E00E2000E0012007B030BD6836000830B583B004000D0006220021684602F0ABFFA3896A4613802389538012231371074B1B78DB0709D4002D04D046
:405EC0005571684620F0FEFB02E0E06820F01CFC03B030BD2446000810B5002811D00023002406E09A0011495258904200D1012401330E4A1279934206D2002CF2D000238B
:405F000003E000240A4B00E00023002B0CD1002C0AD1064A1279002A05D104499400605001320A7100E0034B180010BD30460008010016000300160070B506000D000020C0
:405F4000002406E0A200074BD3582900300098470134044B1B799C4203D2034B1B78DB07F0D470BD30460008244600088379002B06D000200AE0C25C002A06D1013300E017
:405F80000023052BF7D9002000E001207047C046F0B5474680B48CB004000D00BB4A117801230B43DBB21370B94B984200D111E231D8B84B984200D1C6E015D8B64B984256
:405FC00000D1EAE007D8023B984257D0B34B984200D1DEE06FE3B24B984200D11BE1B14B984200D162E366E3AF4B984200D144E208D8AE4B984200D19EE0AD4B984200D1E7
:406000001DE158E3AB4B984200D1E7E1AA4B984200D12EE24FE3A94B984200D105E316D8A74B984200D1BAE208D8A64B984200D1D4E1A54B984200D15FE23CE3A34B98423A
:4060400000D1C8E2A24B984200D1CCE233E3A14B984200D1F5E208D89F4B984200D1E8E29E4B984200D1E8E225E39D4B984200D1EBE29C4B984200D13BE21CE39A4B1E68BD
:406080003000FFF773FF00280CD030001EF004F9954E00213068FFF7FBFD30680121FFF7F7FD37E0914B19688B6A1B79002B22D0B02040058E4BC35C3F2213408D4E865D42
:4060C000324092011A438C4BC65C1F2333401B031343C022D200805C7F220240520413430A6B1370814A1168096B180A48701268126B1B0C93707D4E3368186B1EF0CCF897
:406100003368186B0021FFF7C3FD3368186B0121FFF7BEFD754B1B68986A02301EF06CFC0822764905A802F060FE05A81EF0D8F80222734B1A70BEE20023714A1370714AF3
:406140001370FFF73FF9B6E26F4B1B68DB0700D5B1E205AE03220021300002F04FFE634F3B689B6A1B785BB2337030001EF0D2F83B689B6A5B785BB2337001277770FF23E6
:40618000B37030001EF0C6F85F4B1A6817431F6091E22900FFF7D0FE8DE26B78984602225649083105A802F020FE00261DE002AF73005649C9180222380002F016FE7B7856
:4061C000002B02D1524AD35C00E00023012B0BD973004E4A9B5C984506D17300D118022205A802F002FE02E00136002EDFD005AB5B78FF2B04D103D146494748FDF7C0F8D8
:4062000005AB1B8808AA138007AA13801B0A2978424AD1544FE22B78002B00D04BE22B7A002B06D13E4B0022DA809A803D4A1A606B60164A137801218B4313703BE26B791E
:40624000984602222D49083105A802F0CEFD00266BE003AF73002D49C9180222380002F0C4FD7B78002B02D1294AD35C00E00023012B59D97300254A9B5C984554D17300C5
:40628000D118022205A802F0B0FD50E0244600080A400000042000000210000001100000031000000410000006400000123000000440000007400000084000000E50000072
:4062C000025000001040000001500000035000000C500000145000000F5000001050000017500000016000002C01000868360008040600000506000003060000BCCA001082
:40630000144600081D4600082C460008104600081C460008CA030000C8CA00102846000890360008143400080136002E91D005AB5B78FF2B04D103D1C849C948FDF720F801
:4063400005AA138809A90B8013801B0A6978C54AD154EB78002B00D0ADE16B7998460222C149083105A802F040FD00261DE004AF7300BE49C9180222380002F036FD7B7833
:40638000002B02D1BA4AD35C00E00023012B0BD97300B64A9B5C984506D176009119022205A802F022FD02E00136002EDFD005AB5B78FF2B04D103D1A849A948FCF7E0FF79
:4063C00005AA13880AA90B8013801B0A0121A94AD15470E12900FFF7AFFD6CE1AB7E002B43D12B7E012B02D10022A34B1A70EB7E984602229C49083104A802F0F6FC0026D1
:406400001DE005AF73009949C9180222380002F0ECFC7B78002B02D1954AD35C00E00023012B0BD97300914A9B5C984506D176009119022204A802F0D8FC02E00136002E37
:40644000DFD004AB5B78FF2B04D103D183498448FCF796FF04AA13880BA90B8013801B0AFF2B02D0297E854AD1540222844B1A7021E10222824B1A701DE12900FFF75CFDB1
:40648000804B1B78DB0700D415E17B4B1B78012B03D10222784B1A700DE1032B03D10022754B1A7007E1022B00D004E10022724B1A70754B1B685868744B1978CA00531AEF
:4064C0005B00C3189A79002A00D1F4E09B88002B00D1F0E06E4B1B78002B00D0EBE00120FFF744FB002800D0E5E00122624B1A70E1E02900FFF720FDDDE002222900684661
:4065000002F073FC6B465B78002B03D10221584AD15405E0002B03D15E495148FCF730FF68784000514B18180222290002F05DFC6B780021584AD1545800C018574E80198A
:40654000514B1B6819692B785A00D318544A94466344C9180631032202F047FC6B785800C01880190221FFF7DFF96B785A00D318F618B37898420DD04A4B1B6800214A4881
:4065800098476B785800C318444818180322002102F034FC29002000FFF7CEFC8BE001AE02222900300002F020FC7378002B03D100212F4AD15405E0002B03D13549284899
:4065C000FCF7DEFE6B7800212A4AD15429002000FFF7B2FC6FE005A82B8803801723438020F07EF867E02A89531E9BB2132B0ED905A8AB8903804280122303710126467103
:4066000020F060F81F4A1378B343137053E02800FFF7B2FB011E04D129002000FFF78CFC01002800FFF736FC45E02900FFF784FC41E02900FFF780FC3DE02900FFF77CFC47
:4066400039E02900FFF778FC35E02800FFF7D0FB29002000FFF770FC2DE0C046CA030000C8CA001018460008BCCA0010104600081C460008883600081D4600088C36000884
:406680001446000824460008683600081246000829460008860300002846000820460008901000006C360008040001000B4A117801230B4313700A4B1A7811231A4209D0AA
:4066C000074A137801218B431370064B1B682900200098470CB004BC9046F0BD13460008244600086C3600080020704710B5002805D0044B18600448FFF7EEFB00E003481D
:4067000010BDC0469C360008E96600100100160070B50D001600002907D1002408E02878FAF7CCFA0135013400E00024B442F6DB200070BD70B50D00160000290CD1002495
:406740000DE0FAF7C7FAC0B2287001340A2806D00D2804D0013500E00024B442F1DB200070BDC04610B5002814D00B4BD8620B4B1B78002B08D10848094B4363FEF72AFE26
:406780000122064B1A7000E00020002803D1FEF74FFE00E0034810BD30010008A036000854C200100100160010B5FEF7B9FE10BD10B50C4B1B78002B0DD10B4C0B4A0C495A
:4067C0002000FBF775FC0B4A0B492000FBF79EFD0122044B1A70044A1368802109060B43136010BDE83600080000674038460008E8CC001084D71700A086010000224308A0
:406800008B4274D303098B425FD3030A8B4244D3030B8B4228D3030C8B420DD3FF22090212BA030C8B4202D31212090265D0030B8B4219D300E0090AC30B8B4201D3CB03B2
:40684000C01A5241830B8B4201D38B03C01A5241430B8B4201D34B03C01A5241030B8B4201D30B03C01A5241C30A8B4201D3CB02C01A5241830A8B4201D38B02C01A5241DD
:40688000430A8B4201D34B02C01A5241030A8B4201D30B02C01A5241CDD2C3098B4201D3CB01C01A524183098B4201D38B01C01A524143098B4201D34B01C01A52410309EB
:4068C0008B4201D30B01C01A5241C3088B4201D3CB00C01A524183088B4201D38B00C01A524143088B4201D34B00C01A5241411A00D20146524110467047FFE701B5002042
:4069000000F0F0F802BDC0460029F7D076E7704703460B437FD4002243088B4274D303098B425FD3030A8B4244D3030B8B4228D3030C8B420DD3FF22090212BA030C8B42E9
:4069400002D31212090265D0030B8B4219D300E0090AC30B8B4201D3CB03C01A5241830B8B4201D38B03C01A5241430B8B4201D34B03C01A5241030B8B4201D30B03C01A0F
:406980005241C30A8B4201D3CB02C01A5241830A8B4201D38B02C01A5241430A8B4201D34B02C01A5241030A8B4201D30B02C01A5241CDD2C3098B4201D3CB01C01A52415F
:4069C00083098B4201D38B01C01A524143098B4201D34B01C01A524103098B4201D30B01C01A5241C3088B4201D3CB00C01A524183088B4201D38B00C01A524143088B42C5
:406A000001D34B00C01A5241411A00D201465241104670475DE0CA0F00D04942031000D34042534000229C4603098B422DD3030A8B4212D3FC22890112BA030A8B420CD381
:406A4000890192118B4208D3890192118B4204D389013AD0921100E08909C3098B4201D3CB01C01A524183098B4201D38B01C01A524143098B4201D34B01C01A5241030949
:406A80008B4201D30B01C01A5241C3088B4201D3CB00C01A524183088B4201D38B00C01A5241D9D243088B4201D34B00C01A5241411A00D20146634652415B10104601D360
:406AC0004042002B00D54942704763465B1000D3404201B5002000F005F802BD0029F8D016E770477047C0468446101C62468C46191C634600E0C0461FB501F0EDF900287E
:406B000001D40021C8421FBD10B501F041F94042013010BD10B501F0DFF9002801DB002010BD012010BDC04610B501F0D5F9002801DD002010BD012010BDC04610B501F075
:406B400067F9002801DC002010BD012010BDC04610B501F05DF9002801DA002010BD012010BDC0468446081C6146FFE71FB500F059FC002801D40021C8421FBD10B500F092
:406B8000E5FB4042013010BD10B500F04BFC002801DB002010BD012010BDC04610B500F041FC002801DD002010BD012010BDC04610B500F0F3FB002801DC002010BD012005
:406BC00010BDC04610B500F0E9FB002801DA002010BD012010BDC046002B11D1002A0FD1002900D1002802D00021C943081C07B4024802A14018029003BDC046E9FEFFFFAC
:406C000003B4684601B5029800F050F8019B9E4602B00CBC7047C046F0B54F464646C0B41604360C9946330005042C0C070C150C63437E436F4365431C0CAD1964199C4685
:406C4000A64203D980235B02984647446346250CEF191D044B464A4343432D0C240464199918C91920000CBC90469946F0BDC04670B500220C4B04000D00FFF769FF00284A
:406C800004D12000290001F05FFF70BD064B00222000290001F004FC01F056FF80231B069C466044F1E7C0460000E041F0B54D46564644465F46F0B4924683B004000D003B
:406CC00099468B422FD82CD04946504602F05EF829000600200002F059F8331A9846203B9B4600D574E053465A4693401F005346424693401E00AF4229D826D05B46A41BD1
:406D0000BD41002B00DA79E0002200230092019301235A4693400193012342469340009319E08242D0D900220023009201930C9B002B01D01C605D600098019903B03CBCC5
:406D400090469946A246AB46F0BDA342D6D900220023009201934346002BE8D0FB0772081A4346467B080EE0AB4201D1A2420CD8A41A9D41012024196D410021013E2418CC
:406D80004D41002E06D0AB42EED9013E24196D41002EF8D15B460098019900196941002B22DB2B005A46D3402A004446E2401C005B461500002B2CDB26009E403300260099
:406DC0004746BE403200801A994100900191AEE7424620239B1A5246DA40414613004A468A4017001F4382E7424620239B1A2A0046469A402300F3401343D5E74246202360
:406E000000219B1A0022009101920122DA40019282E74246202326009B1ADE402F00B446974066463B003343C9E7C046F8B54A02430244004E00C50F240E28009B09360E40
:406E4000C90F92098D4259D0A01B002800DC8DE0002E1AD1002A00D079E05A0704D00F221A40042A00D004335A0138D50134FF2C00D189E028009B015B0AE4B25B02E40513
:406E80005B0A2343C0071843F8BDFF2CE5D08021C9040A431B2800DD89E016002021C640081A8240511E8A4132439B1A5A0114D59B019E09300001F04BFF053886408442AC
:406EC00065DC041B330020200134E340041BA640721E964100243343BFE75A07BFD1DF082800FF2C2FD1002F00D187E08022D20313003B435B025B0AFF24BFE7A11B0029B1
:406F000049DD002E29D0FF2CA7D08026F60432431B2900DD8DE017002026CF40711A8A40511E8A413A439B185A01D6D50134FF2C64D0012276491A405B080B4013438CE747
:406F4000031ECAD100207B025B0AE4B296E701380028AAD0FF2C9DD17FE7002A00D17CE701390029DFD0FF2CD2D176E7002820D1601CC0B2012853DD80279E1AFF04374092
:406F80002FD0D61A0D0095E72800002376E7614B241A334061E700294DD1611CCEB2012E2FDDFF292AD09B185B080C0055E701227BE7002C1BD1002B5BD0C04300280CD013
:406FC000FF2E7ED01B2800DD92E01D002024C540201A8340581E83412B43D31A34000D0064E7002E00D065E700200024ABE7FF2E67D08024E40440422343E3E7FF240023F8
:407000003CE7002C61D1002B7ED0002A00D124E79B185A0100D460E73E4A0C0013401CE7002C1ED1002B2FD1002A66D013000D0013E7012277E7002C1FD1002B5AD0C9437F
:4070400000290BD0FF2E50D01B295FDC1F002024CF40611A8B40591E8B413B439B18340062E7002B1CD1002A4AD013000D00FF24F3E6130034000D00EFE6FF2E35D0802420
:40708000E40449422343DFE7002A00D1E5E68027981AFF04074000D152E7D31A0D00DCE6FF24002A00D1D8E68020DB08C003034204D0D208024201D113000D00DB00FF24B9
:4070C000CBE61300FF240D00C7E6002B0DD0FF24002A00D1C1E68021DB08C9030B42EDD0D2080A42EAD11300E8E71300FF24B4E6012372E713003400AFE60027002022E78C
:4071000080270020FF03F1E61300A6E60123A5E7FFFFFF7DFFFFFFFBF0B5564644465F464D46F0B444024600C70F83B08846650A360EBA463DD0FF2E22D00023EC00802551
:4071400099469B46ED0425437F3E43465C025800DB0F640A000E984636D0FF2830D080230021E400DB041C437F38301A0190484642460843724E800030587A40130087464E
:40718000002D44D108239946063B9B46DDE70122FF2000241A406402C305640AD2071C431443200003B03CBC90469946A246AB46F0BD002D20D104239946033B9B46C4E7BE
:4071C000002C17D1022102E0002C0AD10121321A01924A4643460A435A48920082587B409746200001F0B4FD431F76309C4040420021BAE70321B8E7280001F0A9FD431F94
:407200009D4000237630464299469B469DE70C239946093B9B4698E780240022E403FF20B9E70024C2468B465A465346022AAED0032A7DD0012A31D1012200201A40002476
