:020000041000EA
:4000000000400208230100100D00000085010010000000000000000000000000000000000000000000000000000000008101001000000000000000008101001081010010E9
:400040008101001081010010810100108101001081010010810100108101001081010010810100108101001081010010810100108101001081010010810100108101001060
:400080008101001081010010810100108101001081010010810100108101001081010010810100108101001081010010810100108101001081010010810100108101001020
:4000C00010B5064C2378002B07D1054B002B02D0044800E000BF0123237010BDEC2F0008000000007C940010084B10B5002B03D00749084800E000BF07480368002B00D141
:4001000010BD064B002BFBD09847F9E700000000F02F00087C940010B4010008000000007047FFF7FDFF72B60F4C104DAC4209DA21686268A368043B02DBC858D050FAE7F3
:400140000C34F3E70A490B4A0020521A02DD043A8850FCDC084809490860BFF34F8F00F0A7FA00F081F9FEE78094001098940010EC2F0008B43200080000000808ED00E09C
:40018000FEE7FEE700B504207146084202D0EFF3098001E0EFF30880043002F02BFCFEE710B50021002003F01BFF10BDF0B58DB0060000230B930A93099308930793069351
:4001C00005AD2B706B70284C284F0097643300227421200001F016FE0B90012002F0B6FB3B0064223100200001F08CFF0A90012002F0ACFB0097642301227421200001F0BA
:4002000081FE0990012002F0A1FB009764232A000021200001F014FF0890012002F096FB0097642315226A440121200001F008FF0690012002F08AFB3A006421200001F0F3
:40024000CDFE07900B990A9A099B0898069C079E029601940090064806F02AF8687800022B7818430DB0F0BD000067406432000870890010F0B587B007000E0000230593E2
:40028000049303930293174C174D0095643300227421200001F0B6FD0590012002F056FB2B0064223900200001F02CFF04902B0064223100200001F025FF0390012002F09E
:4002C00045FB2A006421200001F088FE02900599049A039B02980090044805F0E9FF07B0F0BDC0460000674064320008C8890010F8B506000D0014001F0083210020FFF7FC
:40030000B9FF402002F022FB0120FFF74FFF38800220FFF74BFF30800320FFF747FF28800420FFF743FF208042210020FFF7A2FFF8BDC04670B582B004000D0016000B4BBB
:40034000188805F049F90A4A0A4B04F041FB084A094B04F0B7FD0090019133002A002100064805F0A5FF02B070BDC0461A3200089A9999999999A93F99B95040F8890010CD
:4003800070B5FA246400074803F0DCFA0500013C052002F0DBFA002D01D0002CF3D1280070BDC0461492001070B5FA2464000121064803F057FB0500013C052002F0C6FADC
:4003C000002D01D0002CF2D1280070BDC000000810B5FFF7D5FF002804D048210F4802F0DBFA0BE0FFF7E0FF002804D05B210B4802F0D2FA02E0022003F0DEFD084C094920
:40040000200002F041FA0023E25E002A05DB1F231A401E3B9340044A136010BDF88A0010588B0010A101001000E100E00122014B5A6070470830000810B5094C01232371C2
:400440002368581D3C2103F0BDFE2160FFF7ACFF002804D01A21FF31024802F09DFA10BDC0000008F88A001070B562B6194800F0A5F900F0C1FB184B1B6858680023022229
:40048000002105F02FFF03F0F1FD144802F05EFAFFF79EFF124E134D134C144B320029002000FFF725FF328829882088FFF742FFFA20800002F04AFA0D4B5B68002B04D097
:4004C00000220B4B5A60FFF7B7FF002002F04EFEE0E7C04600000810700100088813000022320008143200081E3200081A3200080830000810B5002001F064F910BDC0462B
:4005000070B56249E0239B00CB580F2213401A00D0329200525807210A40032A05D0042A06D0002A12D15A4814E05A4A106811E01A00C0329200554952581F210A40112A7B
:4005400006D0132A04D0FA20C00103E0524801E080200002002B36D14C4BB222D2009A5801211140B125ED005A59120F032422405B591B0F1C4207D0444C63591B0F032415
:400580002340012B02D102E0012300E00023002B01D0002901D1032A4BD13C4BB022D2009D58AD03AD0B3D495958C904C90C9C58240E01231C40013403F07EFD684321001A
:4005C00003F07AFD35E0012B33D1304BC822D2009A5801251540C024E4001A59120F03210A401B591B0F194207D028490B591B0F03210B40012B02D102E0012300E0002398
:40060000002B01D0002D01D1032A12D11F4DC022D200AB587F210B40A958090A1F263140AC58240C3440584303F046FD210003F043FDE0239B00154AD3581B090322134046
:40064000D840144C6060164B1D692D0AFC32154001351969090E013103F02EFDA060290003F02AFD0500E06020610E4BC0180E4903F022FD20750D4BE818FA21890003F05B
:400680001BFDA061C003E06170BDC0460000264000127A00F000000800366E0184050000000021403F420F0040420F00E703000010B5284802F006FE274CB022D200A35829
:4006C0005B005B08A350E0218900635830208343635080235B04A350204A214BE250A02292010433E250FF221E4BE25002F0D8FDC0225200A35801218B43A35000F0FCF906
:40070000FFF7FEFEB0235B055B78002B04D0B0235B055B78DBB200E02123212B03D1124B0022DA605A60114C22008021042000F0EFFD2000103000F083FE0D4B1A68512339
:40074000D35C002B02D00B4800F0F0FE00F01EFB10BDC046C49000100000264001000200840500008C050000E00023401030000860320008048B00108023024AD358032058
:40078000184070470000214010B502F0C6F9084980228C58074B2340074C23438B508823034AD358DB06FAD502F0BBF910BDC04600002140FCFF00000100FA0570B5050061
:4007C000830504D0E821FF310F4802F0E5F802F0A4F90400FFF7D0FF032801D1FFF7D4FF0A4AB0239B00D55080215058084B03400848034353508823044AD358DB06FAD54D
:40080000200002F08EF970BD388B001000002140FCFF00000300FA0510B504002100034801F002F80028F9D010BDC04600006640C2239B00034AD358DB05F9D0D0239B0008
:40084000D058704700006640FEE7C046014A024B1A60704701001180000E1F4130B587B0934A116808230B431360924C03E0012002F086F8013C8E4B1B695B0701D4002C92
:40088000F5D1002C01D18C4B00E00023002B02D00520FFF7D9FF8948A021C900435803229343023A13434350854A116808688823CB58C3181868834908401860136818682C
:4008C00084241B59C01803681B021B0A80256D042B430360106805680359EB1818680140196013683E229A5C002A06D07348E02189004258753CA24342503E229A5C002A9A
:4009000006D06E48E021890042583024A24342503E229B5C002B07D06849E02292008B588020000603438B500021012001F0F8FD0021022001F0F4FD0021032001F0F0FD85
:400940000021042001F0ECFD0021002001F0E8FD01A85D4903000A0032CA32C312CA12C301F00CFE002802D00420FFF76DFF5349564A8B588020000603438B50544801F055
:40098000B7FE002802D00420FFF75EFF4B4C514BE158514A0A40E250E158504A0A40E250E25880252D062A43E250043BE1584C4A0A40E250E1584B4A0A40802189010A4374
:4009C000E250E258802109020A43E250384A1168454B0B401360002002F044FC434BE2582A43E250E158012291430A43E2506421002002F017F8324B1B683F229A5C052A83
:400A000006D970229A5C01210A403949986842509A6874215B5AD21851682A4B0B408C2189010B435360264B1B6873229A5C0321914070229A5C7220185C140084402143AA
:400A4000012002400A43802109060A438021C900986842509A6852583F229A5C062A03D90021244A986881509A6874215B5AD2181168144B0B40F82149010B431360104B86
:400A80001A687323D15C703B8B4019007023D35C7220105C83400B43802109060B438021C9009068435093685B5807B030BDC0460000274020A1070002004A000000264065
:400AC00060320008FF00FFFF608B0010087F0000400D030004050000FEFCFFFFFFFF00FFFFF0FFFFFF8FFFFFFFFCFFFF0C050000140C0000180C000070B58EB0962100208E
:400B000001F090FF01F066FF002801D101F052FF012002F045FA2E4A516C2E4B0B40E82189010B435364536C1B0AFF2213403A2B07D1274A516C284B0B40E82189010B435E
:400B4000536401AC34220021200004F032FF234D22000021280000F021F934220021200004F027FF22000121280000F017F9FFF775FE0F221A4B1A601A4A1B4B1A60242250
:400B80000021200004F015FF2100280000F0A0FA164D22002B00143343CB43C243CB43C243CB43C22100124800F092FA22002B00383323CB23C223CB23C223CB23C22100A0
:400BC0000C4800F085FAFFF741FE0EB070BDC04600002740FF00FFFFFFC5FFDF00003240000067400701010000026740608B0010800232400003324010B5094B1B78002B00
:400C000007D1084A0849094801F0B2FA0122044B1A70064A1368802109060B43136010BDA031000828320008BC8B001000006640214B984230D00ED8402831D004D8002875
:400C40001FD010282AD031E080282BD080235B00984229D02AE0194B984229D007D8A0231B0698420DD0164B984212D01EE0154B98420AD0144B984209D0144B984215D1B3
:400C800001E0002016E0124814E0124812E0124810E0A020C0030DE007480BE00F4809E00F4807E00F4805E0034803E00E4801E0A420C0037047C04606005200010000F003
:400CC000090000A0040000F0050000F0030000F0010052000200520003005200010050000200500005005200FF00520070B5124B1A683123D35C002B04D1C421FF310F4835
:400D000001F04AFE0C4B1D682C00B423EB582A6A944663441B68002B0BDB094B1868FFF787FF6B6801229A6063689B68002BFBD100E0044870BDC04660320008FC8B00101A
:400D4000A43100080200500010B50D4B1861002805D002230370FD33437000234380094B1B6850229A5C002A08D051229B5C002B04D04F3A0449002000F092FC10BDC0465F
:400D8000A4310008603200082D02000810B502481430FFF7D9FF10BDA4310008F8B54F464646C0B406000D001400002800D16FE1002A00D16EE1072903D94521B84801F05B
:400DC000EBFD2368012B03D94621B54801F0E4FD0F2362689A4303D04721B14801F0DCFD237A1F22934303D04821AD4801F0D4FDE368032B03D94921A94801F0CDFD2369CD
:400E0000012B03D94A21A64801F0C6FD6369012B03D94B21A24801F0BFFDA369012B03D94C219F4801F0B8FDE369032B03D94D219B4801F0B1FD236A012B03D94E2198488E
:400E400001F0AAFD636A012B03D94F21944801F0A3FDA36A012B03D95021914801F09CFDE36A032B03D951218D4801F095FD236B072B03D952218A4801F08EFD2768072DFE
:400E800003D98849884801F087FD012F04D9CA218900854801F080FD002F03D10123AB40736002E00123AB40B3606768072D04D9F12189007C4801F06FFD0F233A009A43B6
:400EC00003D07A49784801F067FDA900784B1A687D23D35C9B191A6890460F2291468A40404690430200484607408F4017431F60277A072D04D9A22189006B4801F04CFDE9
:400F00001F233A009A4303D06A49674801F044FD674B1A689369F31ADB0952691B01D318032D0AD81968E8001F22824091431F22174087400F431F600AE02A1F5968D200C6
:400F40001F20904081431F20074097400F435F60E768082D04D9DD21C900534801F01CFD032F03D95449504801F016FD6900504B1A687C23D35C9B191A68904603229146C0
:400F80008A40404690430200484607408F4017431F602769082D03D94849434801F0FCFC012F03D94649404801F0F6FCB36901221100A9408B431740AF401F43B761636950
:400FC0009846072D03D93F49374801F0E5FC4346012B03D93C49344801F0DEFC34487E230268D35C9B191A6801273900A9408C468A43110042463A40AA400A431A606B00C9
:4010000010229046984403210B00424693406246134399467F2203689A5C9446B44463461A684B469A43A3693B40AB401A43E3691940434699400A4363461A6002688023A5
:40104000D35CF6183368FF22944693431800236A1F40636A5A00022313403B43A26A9100042739400B431F00E36AD900182319403B000B43226B520161460A401343AD00E1
:40108000FE2292001540AB4003433360002002E00E4800E00D480CBC90469946F8BDC0463C8C0010270300007C8C0010C50300006032000889020000E9060000690600003B
:4010C0006A060000030400000404000001005A0070B505000C0000285DD000295DD0FF230A689A4303D099212D4801F055FCFF2322699A4303D09A21294801F04DFCA368B2
:401100005B0D03D09B21264801F046FC63685B0A03D09C21224801F03FFCE3695B0F03D09D211F4801F038FC236A5B0F03D09E211B4801F031FC1B4A11688B69EB1ADB0929
:4011400049691B01CB18216829607D211068415C6918E06808607E211068415C6918206908607F211068415C6918606908607C211068415C6918A06808606168A96111684C
:4011800080228A5CAD18A2692A60E2691A60226A5A60002002E0044800E0034870BDC0463C8C00106032000801005A0070B504000D000A4B1A68B423D3581B181B68002BD9
:4011C0000ADA0B0C03D00649064801F0E5FB2D042D0C6560002000E0034870BD60320008D5020000BC8C001001008A0070B505000C000368002B01DA002300E0084B002B90
:401200000BD1EA60230C03D00649074801F0C4FB2404240CAC60002000E0014870BDC04601008A00BB020000BC8C001070B505000C1E03D19921084801F0AEFB074B1A6818
:40124000B423D3585B191B68002B03DAEB682360002000E0024870BDFC8C00106032000801008A0070B504000D00234B1A683123D35C834236D9002936D00B68DB0635D15D
:401280003123D35C984204D3C421FF311B4801F083FB194B1B681A6AB0215B5A5C431419174E34602B68DA080021686804F081FB00212000FFF77AFF3468002D03D11149E0
:4012C0000E4801F069FB2A0000212000FFF78EFF00280DD10A4B18680021FFF767FF002808D108E0084806E0074804E0064802E0064800E0054870BD60320008BC8C0010E1
:40130000BC3100089303000003018A0001018A0010B50400002A17D1002915D1124B1A683123D35C984204D3C421FF310F4801F033FB0D4B1B681A6AB0215B5A5C431419CF
:401340000B4B1C6000200EE0002A09D0002909D0074B59609A60191D2000FFF783FF02E0044800E0034810BD60320008BC8C0010BC31000803018A00F0B583B00D001C4BCE
:401380001B68DC68236883422DD947097B01C01A012383401E00002903D101F0BEFB019001E000230193124B18680368002B01DA002300E00F4B002B0ED16368BF00DF195E
:4013C0003B68334203D0B3433B60002400E00A4C0021FFF7EBFE00E0084C002D04D1019801F09FFB00E0064C200003B0F0BDC046BC31000801008A0002018800030188006E
:4014000004018A000A4B1B68DA68136883420BD943095901401A0121814052689B009B580B4203D0034802E0034800E003487047BC3100080101880004018A0000018800A3
:40144000034B1B68002B01D1014B18607047C046C8310008F0B5474680B404000F0090461E002D4B1B68002B03D1B5212B4801F093FA294B1B682C2060431C18FF2215009E
:4014800035402560330A13406360360CA660244B1A683123D35C9D4204D3C421FF31214801F07AFA1E4B1A68B023D35A6B43116A8C466344236166683223D35C9E4204D370
:4014C000E021FF31174801F067FA154B1B681D6A80367601AD196561A668330C04D0FF214900104801F058FA330C03D00E490D4801F052FA3604330C1E43AE604346E36112
:4015000027620023A361069B002B02D000229B5EA38104BC9046F0BDC83100083C8D001060320008BC8C0010FF010000F0B58FB0041E03D15221294801F02EFA6368032B3F
:4015400003D95421254801F027FAE36A002B03D15821224801F020FA236B002B03D159211E4801F019FA07AA1300210061C961C321C921C302AD290023001433C1CBC1C19F
:4015800041CB41C10821535E0CAE3380144B1B6836215B5E07998C466344B370089B0D930B9B0A980096A26AE16AFFF753FF2B69E868002200920021FFF74CFF216B300032
:4015C00001F062F90023F25E002A05DB1F231A401E3B9340034A13600FB0F0BD3C8D00106032000800E100E0F8B505000F0016001C00002A03D1FD21224801F0CDF9224B5D
:401600001B68002B03D1FE211E4801F0C5F91E4B1B682C2128004843181879435918012213004D68AB401B044568AA4015000269002A20D08F69002F1FD11268002A01DAEF
:40164000002200E0114A002A19D132681204120C134333600369DE6001238B614C6204692B0C03D00A490B4801F096F92A04120CA260002004E0084802E0084800E007483A
:40168000F8BDC0463C8D0010C831000801008A00BB020000BC8C001004028A0007028A0070B504000D0016000F4B1B68002B04D1AF2149000D4801F06FF90B4B1B682C20BD
:4016C00060431C18236A002B04D1B1214900074801F062F9E369B34204D9236AB6009D51002000E0024870BDC83100083C8D00100A028A0070B582B0040000230193002860
:4017000004D1D221FF312D4801F046F92369002B04D1E9214900294801F03EF96369002B04D1D421FF31254801F036F9236A002B04D1EA214900214801F02EF96269D568AC
:401740002B0C24D01B041360136820691C4B1A68B423D358C3181B68002B18DA01A9FFF765FD00280ED1019803681E0CFF221340E269934207D29B00226AD358002B02D04F
:40178000984700E0002631002069FFF70FFD2D042D0C0FD063691D601B68636A002B03D098470023636203E0A36A002B00D098470023A36163691B6802B070BD3C8D0010E9
:4017C0006032000810B50400084B1B68002B04D1B221FF31064801F0DFF8044B1B682C2060431818FFF786FF10BDC046C83100083C8D001010B50400094B1B689B6CC340D4
:40180000DB0703D4BE21074801F0C6F8044B1B681B691034A402E3580F20184010BDC046603200087C8D001003681B0501D5802200E0402282239B00C358DB05DB0D93424D
:4018400004D090239B00C150012000E00020704710B500293FDBC0230B4207D00023836680235B05536000232F4942E0CB0535D4CB070FD551682D4B994232D1016E80231F
:40188000DB050B4059424B41DBB280214905516027492EE08B0706D55168244B994223D10023244925E0CB0605D580235B055360002300211DE051681C4B994217D1537BDF
:4018C000002B02D088235B0301E0A0235B035360002300210DE0012317490AE00123174907E00123124904E00023154901E000230021002B10D003685B005B080360002360
:401900008366C36603688024240623430360036880235B05536005E0F0231B011822FF32C250C358080010BD0820AA00000013100620AA000420AA000320AA000720AA00C0
:401940000520AA0010B504000368002B09D0012001F016F82368013B2360002B03D0002003E0002001E08020000610BDF8B505000C0016000B78012B04D00A7A002A03D1A8
:40198000002702E0002700E00127002D00D1B3E0002C00D1B2E0002E00D1B1E0013BDBB2022B03D94F21574800F0F6FF6378002B00D06379002B03D05021524800F0ECFFE3
:4019C0000323E356002B03DA51214E4800F0E4FF2379DB0703D552214A4800F0DDFF2369102B03D95321474800F0D6FFE368102B03D95421434800F0CFFF6379002B02D01A
:401A00008021490200E00021E279002A02D080235B0000E000230B438022120113432B60A379002B01D1110000E0002123695A1E0F2313401943E3685A1E1201FF231A401B
:401A40000B0013432278920713432B66002F01D02D4A01E00822FF32C0239B00EA50002F01D02A4B00E02A4B2B676378002B01D07F2200E00022C1239B00EA50E3785B003B
:401A8000FF221340227912041343C4229200AB50204A80239B00EA50A378002B01D0402200E0012281239B00EA5000231A4AAB501A4AAB501A4AAB501A4AAB501A4AAB5063
:401AC0002378022B02D0D222FF3200E00022174BEA5063783370A378737080235B0573600023B360B36133623364F3633363F3627364B364002004E00D4802E00C4800E023
:401B00000B48F8BD008E00100703000003002A0013102A0007010100C80E0000880E0000C80F0000880F0000080F0000480F00000120AA0070B505000C1E03D11749184877
:401B400000F02AFF2B6E9B0F012B11D1154A164BE31893421AD9154A154BE318934217D9144B9C466444144B9C4213D8134814E0002C11D02A6E12090F210A402B6E19406D
:401B800051180231200002F097FA06E00C4804E00C4802E0002000E0002070BDC3020000008E0010405B730020AD88FF50A9AB005059E8FF004D0EFF40555C0440420F006C
:401BC000801A0600A0860100F0B55F4656464D464446F0B483B0060089460192002A03D17549764800F0D8FE4B465C1E744B9C4203D97449714800F0CFFE336E9B0F012B6E
:401C00000DD101993000FFF795FF0700C0229200B1586D4B0B40B3506C4B3367C4E0684B9C4226D86A4B99450AD86A4A019B6A498C466344934220D900239B46013334E059
:401C4000664B99450AD8664A019B66498C466344934219D900239B46013326E0624A019B62498C466344934217D900239B4601331BE000239B46013317E000239B465C4B3C
:401C80009A461D00002310E000239B46E1239B009A46C825ED00002307E001239B467C33FF339A469B25AD000023002B7BD10199504802F001FA07000100280002F0FCF9AA
:401CC000040003007B439D4200D90134102C00D9102400230F22A2425B41DBB298463900504602F0E9F905004743BA4500D90135102D00D910256119019802F0DDF907003D
:401D000016E04346002B05D00F2C0CD801340023984608E00F2D06D8013500230F22A2425B41DBB298466119019802F0C5F907004F4502D963191F2BE3D95B46002B09D0F8
:401D4000C0229200B358802189000B43B3502A4B336707E0C0229200B1581B4B0B40B3501A4B3367E31F092B03D92449244800F013FE326EF0239A43013C2301FF241C40E7
:401D8000144334666B1F0B2B04D9B421C9001C4800F002FE326E0F218A436B1E19400D001543356600E00027380003B03CBC90469946A246AB46F0BD12020000008E00104D
:401DC0003F420F0013020000FFFDFFFF13102A00A0860100502D19005059E8FF801A0600A043210020AD88FFC02BAF00807E25FF8813000000CA9A3B03002A008305000007
:401E0000408E0010F0B583B006000C0017001D000B0604D5D921C900324800F0BDFD324B9D4203D931492F4800F0B6FD012F03D92F492C4800F0B0FD00222E4BF250089BF4
:401E40005A6880235B059A4245D1FA239B006B430193294B089A53607B1E5A425341089A5373F0231B011822FF32F250F358FC231B01143AFF3AF250F35881239B00F258B8
:401E8000802149020A43F250F1581C4A0A40F250F3586400FF231C403C434233FF33F4500223B366F0231B01F4580823FF3321001940F4231B01F358C024234019430C0018
:401EC00001A8FFF73FFD21000143EBD0089A3000FFF7BEFC00E00A48D222FF32054BF25003B0F0BD008E001037894100C9060000CA060000480F000000001310FFFFFEFF69
:401F00000220AA00F0B583B006000F0014001D000B0603D52A492B4800F03EFD2A4B9D4203D92A49274800F037FD012C03D92849244800F031FD089B5B68DB023CD5FA2312
:401F40009B006B430193234B089A5360631E5A425341089A5373736E9B0601D5092300E00123B366736E9B0605D5002009E001A8FFF7E8FC00E00020002802D1B36EDB0721
:401F8000F5D4002812D17F00FF231F403C434233FF33F450F0231B01F0580823FF331840040001A8FFF7CEFC2043F3D0089A01003000FFF74DFC00E0074803B0F0BDC0467D
:401FC00029070000008E0010378941002A0700002B070000000013100220AA0070B582B005000C001600124B994203D91149124800F0D2FC7368DB0217D5FA239B005C43C1
:4020000001941823AB66F0231B01E8581223FF331840040001A8FFF795FC21000143F2D032002800FFF714FC00E0044802B070BD378941008C070000008E00100220AA00CD
:40204000F0B54F4680B482B007000D0091461C00002A04D1FB21C900254800F09DFC254B9C4203D92449224800F096FC012D03D922491F4800F090FC089B5A6888235B0396
:402080009A422FD1FA239B005C430194FC231B01FB5804241C40F0231B01F8580223FF331840060001A8FFF74DFC31000143002C01D10029EAD0002C09D0D0239B00FB58EE
:4020C0004A461370FC231B010522FA50FB58089A3800FFF7BDFB002805D1002D03D10423BB6600E0064802B004BC9146F0BDC046008E001037894100D9070000DA07000075
:402100000220AA00F0B583B005000F0014001E00134B9A4203D91349134800F03DFC7268A0235B039A4218D1FA239B005C430194A93BFF3BEF50F0231B01E8580823FF33EA
:402140001840040001A8FFF7FDFB21000143F2D032002800FFF77CFB00E0044803B0F0BD3789410032080000008E00100220AA00F8B505000C001600002800D1BDE10029B9
:4021800000D1BCE10B78022B03D93F21C14800F003FC637B023BDBB2062B03D94021BD4800F0FAFBA37B002B07D0022B05D0032B03D04121B74800F0EFFB2123E35C012BC0
:4021C00003D94221B34800F0E7FB2823E35C012B03D94321AF4800F0DFFB2378012B06D86268083A082393429B415B4208E0A37F002B05D063685A1E062393429B415B422E
:40220000002B03D04521A34800F0C6FBA368053B042B03D946219F4800F0BEFB6369FF2B03D947219B4800F0B7FBA369FF2B03D94821984800F0B0FBA37C002B0FD02378D8
:40224000002B07D1A368092B06D1A37B002B05D0012304E0012302E0012300E00023002B03D04A218B4800F097FB8B4B626B1A4203D04C21874800F08FFB884BE26B1A4230
:4022800003D04D21834800F087FB2378022B02D1A37F002B02D063685A1E00E00022237F002B02D08021490200E00021A368082B02D880231B0100E0002319430F2313405A
:4022C0000B438022920413432B60226B2B681B0501D5802300E040239A4203D362216D4800F05AFBA26B2B681B0501D5802300E040239A4203D36321664800F04DFB626AE8
:402300002B681B0501D5802300E040239A4203D36421604800F040FB23781B06C022920413402B64637F002B01D0402200E00022A37C002B02D08023DB0000E000231A43D2
:40234000237C002B02D08021490000E000210A43637C002B02D08021890000E000210A43E36A013B1B04F020000303401343627B013A07210A4013431900A27B1201302365
:402380001A400B001343AB64237B002B02D08022520000E00022E37B002B04D12378022B03D1013B02E0012300E00023002B02D080239B0000E000231343A268013A0F2774
:4023C0003A401343C02292009446AB50FF2260691040A3691A04FF2109040A400243C4239B00EA50E26A6346EB583B4003339A4201D3102A03D97A21264800F0CDFAE37F17
:40240000002B04D02378012B03D0002302E0002300E00123002B02D08020400000E00020627B013A0723134001001943A27B120130231A400B0013436B64237B002B02D060
:402440008021490000E00021A3685A1E0F2313400B432278012A02D18022520200E00022134380229200AB50FF23226B1340C1229200AB502023E35C002B02D080229204DD
:4024800000E000222123E35C012B09D180235B0407E0C046C08E001092F4FFFF8CF8FFFF002313432822A25C012A02D18022520200E000221343FF21626A0A4013432B6515
:4024C000A36B0B4081229200AB500F4B626B13400E4AAB50E26B0E4B13400E4AAB50002E0FD0002373603360B360F3603362F3623363094B7363002004E0084802E007480F
:4025000000E00020F8BDC0466D0B0000C80F000073070000880F0000EFCDAB000160AA00134B1A683C23D35C83421DD9042904D94B1EFF3B9BB2132B18D8FF290CD91F236E
:4025400019400C4A0300C0339B009950D03080000423835000200AE007231940D0308000044BC150002002E0034800E002487047603200080000264001004A0070B5041E8B
:4025800003D14A494A4800F007FAB023DB00494AD358002B00DA87E0474B22689A4203D94649434800F0F8F923689B039B0BE279002A02D08022520400E000221343B02242
:4025C000D2003C498B50A2883D4B9A4204D984218900374800F0E0F92289344B9A4203D93849334800F0D8F9A388DB04D90C23891B04354A13400B43344A2E498B50A37A62
:402600000F2B04D986218900294800F0C5F9E37A0F2B03D92E49264800F0BEF9A289284B9A4203D92B49224800F0B6F9A37A0F211940E27A1201FF2313400B43A28912024B
:4026400025490A401343A27B1207C02189050A401343B122D20017498B50A379042B03D91E49134800F098F9228A104B9A4204D9892189000E4800F08FF90E4818494558A8
:40268000184B1D40A3791B02E022D20013402B4343504558144B1D40238A1B040A4A13402B434350002000E0104870BDFF010000008F001000002640FFFF03000902000096
:4026C000FF1F0000110200000000FF0184050000190200001A02000000FF1F00230200008C050000FFF8FFFFFFFF00FE03004A0070B505003149324A8B58802000060343E8
:402700008B502C0003E0012000F03AF9013CB223DB002A4AD3585B0701D4002CF3D12749B122D2008858274B03408020800503438B50002D01D0002C0CD02049B022D200B5
:402740008B588020000603438B5003E0012000F017F9013CB223DB00184AD358DB0701D4002CF3D1002D01D0002C08D01349B122D2008B58C020800503438B5013E00F4BD1
:40278000B121C90058580F4A02408020800502435A5008395A58520052085A5008495A58520052085A50002D03D0002C03D0002002E0002000E0044870BDC0460000264097
:4027C0008C050000FFFFFFCF02004A0070B505000C001A4B1B6828229A5C012A15D1820807211000884327D19200AD1AED00FF20A8401B6820339A181168AC4023004B4054
:40280000184004004C40146016E03A229B5EDBB2994203D176210A4800F0BEF8074B1B681B68072215408022120615438022920194466444A400E55070BDC04660320008E1
:40284000888F001070B504000D000B4B9A680B4B9A420CD1002904D13821FF31084800F09BF81034054BA400E058E55003E01034A400044BE05870BD00ED00E00000000841
:40288000888F001000000010F0B5474680B482B0061E01914AD04368032B03D93221264800F07AF80023F05E002804DBB178FFF78DFF002400E0214C0023F15E7368002997
:4028C00012DB88081E4FC0308000C55903221140C900FC3290468A4095439A01434613408B402B43C35116E089B20F220A40083A92080632920013481018476803221140BD
:40290000C900FF252A008A4097439A012B0013408B403B4343600B4B9A680B4B9A4206D10023F05E0199FFF78DFF00E0034C200002B004BC9046F0BD888F00100100560027
:4029400000E100E000ED00E00000000810B5040006E0084B186800F0D7F8074B9C46644480231B029C42F4D8044B1868604300F0CBF810BD0C0100080080FFFF08010008A4
:4029800010B5034B1B78584300F0BEF810BDC0460401000801BEFEE770B50D00044C18220100200003F055FDA5610020FFF7F2FFC8060008054B802212069A649B6C002B6D
:4029C00001DB002000E002487047C0460000274003004600054B8022120198585B68FF221A4202D08023DB021843704700002640FEE7C04610B50A4B0268DA6142681A6275
:402A000082685A62C2689A620269DA6242691A6382695A63C2699A63FFF7EAFF10BDC046C8060008F0B5474680B4002801D0192300E064238B429B415B42304D2C682268C0
:402A4000A826A45BA41822680327BA433B401A4322602C682268A45BA2181668284CA046264016602C682668AA229446A25A96193268BA43134333602A6813686546525BDF
:402A8000D3181A68444614401C60002805D010291BD921291BD8012024E0184B1B6855229A5C914215D956229A5C914213D957229A5C914211D958229A5C91420FD95922B0
:402AC0009B5C99420DD804200CE000200AE0022008E0002006E0012004E0022002E0032000E00520054A1268526813680F218B430343136004BC9046F0BDC046603200082C
:402B0000FFFCFFFF000000000230800803D001300238FCD1C046C0467047EFF3108072B6704780F31088704710B5B0235B059B899BB2002B04D0B0235B059B899BB201E014
:402B400080235B0080225200934215D1184C23681968683A9B58C9180B680F208343963A13430B6021680C689C23CB58E318196881430A431A6019E00D4C236819689822CB
:402B80009B58C918B02040050A4BC2580A4B13400A681343C022920013430B60226811689C23D358CB18054A82581A6010BDC0466032000848180000FFFCFFFF4418000083
:402BC00030B5B0235B059B899BB2002B04D0B0235B059B899BB201E080235B0080225200934215D1184C23681968683A9B58C9180B680F208343953A13430B6021680C6840
:402C00009C23CB58E318196881430A431A6019E00D4D2B68196898229B58C918B0246405C12040012258094B13400A681343C022920013430B602A6811689C23D358CB1861
:402C400022581A6030BDC04660320008FFFCFFFFB0235B059B899BB2002B04D0B0235B059B899BB201E080235B008022520093420DD1104B1B681A6898215B58D2181168DE
:402C80000D4B0B40C021C9010B43136011E0094B1B68196898229B58C918084BB0225205D258074B13400A681343C022920013430B60704760320008FF8FFFFF18180000D9
:402CC000FFFCFFFF30B5B0235B059B899BB2002B04D0B0235B059B899BB201E080235B008022520093420DD1134B1B681A6898215B58D2181168114B0B408021C9010B4397
:402D0000136018E00C4D2B68196898229B58C918B02464050A4822580A4B13400A681343C022920013430B602A6811689C23D358CB1822581A6030BD60320008FF8FFFFFA0
:402D40004C180000FFFCFFFF10B5B0235B059B899BB2002B04D0B0235B059B899BB201E080235B0080225200934217D10020FEF741FDB0235B055B78002B04D0B0235B05CF
:402D80005B78DBB200E02123222B03D8002803D1013004E0012002E0002000E0012010BD30B585B004000D00022807D9042805D0032803D02A492B48FFF7EEFD6B1EDBB254
:402DC000012B07D9042D05D0082D03D026492548FFF7E2FDA400254BE458042D13D0012D1CD112E0A3682B420BD1E3681A6802925B6801930393290002A8236898471B4B52
:402E00005C61646902E0002000E00020002C24D0174B9842E6D1012DE4D11EE0022D01D104E01C006369002BFBD104E00F4B5C69002C00D0246900200DE0A3682B4209D163
:402E4000E3681A6802925B6801930393290002A8236898472469002CEFD105B030BDC046B2090000CC8F0010B3090000CC310008FF004200F8B50700012803D93D493E48B9
:402E8000FFF78AFDB0235B055B78002B04D0B0235B055B78DBB200E021239DB2B0235B059B899BB2002B04D0B0235B059E89B6B201E0802676000020FEF79CFC002814D16E
:402EC00080235B009E4212D1222D12D82B4B1B685C682B4821582B4B19403B068022520413400B432350002404E0274C02E0264C00E0254C80235B009E4201D1222D03D819
:402F000080235B009E4232D01C4B1A683123D35C002B04D1C421FF311C48FFF73DFD174B1B681D6A80235B009E4203D1002F05D0174A06E0002F03D0164A02E0164A00E0AF
:402F4000164A01212800FEF751F900280FD10B4B1A68B423D3585B191B68002BF7DBEB681B0E1B06A0221206934200D100242000F8BDC0464C0A0000CC8F0010603200081B
:402F800018F00000FFFFFFFE04004200FC8B0010010100300300000C010000300100000CF8B50500012804D9822109012948FFF7F3FCFFF7C9FE002849D0FFF7AEFD070051
:402FC000002D11D10021244B244AD150E823DB00B0225205D65CF6B20120FFF74BFF041E19D1FFF7A1FD16E0B02252051C4BD0581A4B194958501B49565CF6B21A481A580A
:403000001F218A4314390A431A500320FFF7B8FCFFF758FE0024002C15D11049124A8B581F20834306401E438E50002D02D1FFF70FFE08E00720FFF7A3FCFFF7C1FD002093
:40304000FFF718FF04003800FFF76BFD00E0074C2000F8BDCC8F0010307F00000000264010180000410700001CFF00000300420010B5041E03D115491548FFF78DFC154BFC
:403080001A68D168F222D2018A5822601B68F022D201D9688A5862600F4AD9688A58A2600E4AD9688A58E2600D4AD9688A5822610C4AD9688A5862610B4AD9688A58A261CE
:4030C000DA680A4BD358E36110BDC046A10A0000CC8F00106032000804780000087800000C78000010780000147800001878000010B5041E03D114491448FFF74DFC144B11
:403100001B68F022D201D96860688850114AD968A0688850104AD968E06888500F4AD968206988500E4AD968606988500D4AD968A06988500C4AD968E0698850DA682168DE
:40314000F223DB01D15010BDC90A0000CC8F00106032000804780000087800000C78000010780000147800001878000070B50500012804D9A62189003548FFF70DFC354BF8
:403180005B68002B05D001210120FFF709FE040000E00024002C53D1FFF7BFFC06002D4B5B68002B03D004210120FFF7F9FD2A4B1B6843229A5C002A08D09A68E023D3580D
:4031C000DB0603D523481830FFF752FFB0235B059B899BB2002B04D0B0235B059B899BB201E080235B0080225200934203D1280005F0AEFB09E0194A116904230B431361E4
:40320000012D01D030BF00E020BF134B1B6843229A5C002A08D09A68E023D358DB0603D50C481830FFF764FF3000FFF77AFC094B5B68002B09D008210120FFF7B1FD04E03C
:4032400002210120FFF7ACFD054C200070BDC046CC8F0010CC3100086032000800ED00E0FF004200042805D10B4A116804230B4313600FE0094B1A681168A023D358CB18E8
:403280000006C022920410401860034A136804218B4313607047C04610E000E0603200080749C02252008B589B009B088020C00503438B508B588020000603438B507047E7
:4032C00000002640014B18607047C04660320008F0B54F464646C0B483B00400894690466421006800F06EFF0F000A21380000F0E3FE06010A21380000F064FF71187F26BF
:403300000E406421606800F05DFF0F000A21380000F0D2FE05010A21380000F053FF4D192D02FE21C9010D402E43637B002B1DD0237B002B02D08025AD032E438025ED03A1
:403340002E436421A06800F03DFF0F000A21380000F0B2FE05010A21380000F033FF69180904F820400301400E4313E06421A06800F028FF0F000A21380000F09DFE050171
:403380000A21380000F01EFF69180904FC20800301400E436421206900F014FF0F000A21380000F089FE05010A21380000F00AFF69180906E020C00401400E43642160694E
:4033C00000F000FF0F000A21380000F075FE05010A21380000F0F6FE69183F250D406421A06900F0EFFE0B000A210193180000F063FE07010A21019800F0E4FE79180902B2
:40340000F820400101400D43E069642100F0DAFE0C000A21200000F04FFE07010A21200000F0D0FE79180904FF231B04194029434B461E604346196003B00CBC9046994682
:40344000F0BDC046F0B55F4656464D464446F0B483B00700FFF761FB0400584B1B69DB070BD4564B9B689B0707D4544D0123AB60B720FFF785FA0023AB602000FFF751FBAD
:403480004E4B9A69120CFF2313401B090F2003409900CB18590002408A18FA23DB00984690447C69651E0B2D03D945494548FFF773FA4346002B03D143494248FFF76CFAF0
:4034C000424B5B5D9B46022C21D14346002B04D1E82189003B48FFF75FFA43469B0705D16421404600F06EFE002908D1C8214900404600F067FE002903D1012302E00123FB
:4035000000E00023002B02D001239C46E344012301939A46012543E03B6999467C696B1E1E2B03D92A492748FFF736FA631E0B2B03D928492348FFF72FFA4346002B03D149
:4035400025492048FFF728FA022C03D80C3443465E1E00E0464601341A2060430A2100F0ABFD2C18A019B40804196421300000F0A3FD430018184300E418C821490030009F
:4035800000F09AFD2018072100F01CFE002900D10731894503D101239C46E24401950135FB689A4501D85D45B6D9019803B03CBC90469946A246AB46F0BDC0460000274016
:4035C000BE03000088910010BF0300007C9100106D0300006E0300006F030000F0B557464646C0B483B00400884616006421006800F0E8FD0F000A21380000F05DFD0501CE
:403600000A21380000F0DEFD69187F2529402379DB0180352B4019430D006421A06800F0D1FD0B000A210193180000F045FD07010A21019800F0C6FDC9190902FE20C00123
:4036400001400D43237BDB071B0C1D43FFF765FA0190634B1B69DB070BD4614B9B689B0707D45F4F0123BB60B720FFF789F90023BB600198FFF755FA594B5B695B023CD57F
:4036800020690B281BD90C38002800D10C30642100F098FD0B000A210193180000F00CFD07010A21019800F08DFD79180904F8235B03194080239B0319430D4319E0002838
:4036C00003D1C02109030D4313E0642100F07AFD0B000A210193180000F0EEFC07010A21019800F06FFD79180904FC239B0319400D438021C9030D4314E06421206900F043
:4037000061FD0B000A210193180000F0D5FC07010A21019800F056FD79180904FC239B0319400D43217DC90580231B0419400D436421A06900F046FD0B000A2101931800FB
:4037400000F0BAFC07010A21019800F03BFD79180906E023DB0419400D43217FC9070D436421206A00F02EFD0B000A210193180000F0A2FC07010A21019800F023FD7918BD
:403780003F2001402423E35CDB01C030034019430F006421A06A00F015FD0B000A210193180000F089FC020192460A21019800F009FD51440902F8235B01194039432C23B1
:4037C000E35CDB071B0C19432D23E35CDB07194343461D60316003B00CBC90469A46F0BD00002740F0B583B0041E00D192E003683B2B03D956214B48FFF7CEF863683B2B9B
:4038000003D957214748FFF7C7F8A368172B03D958214448FFF7C0F82369013B062B03D959214048FFF7B8F8A369013B0B2B03D95A213C48FFF7B0F8E369632B03D95B216E
:403840003848FFF7A9F8A669E369FA22D200944663441D00771E0B2F03D933493348FFF79BF8002D03D132493048FFF795F8314BDF5D022E1DD1002D04D1E82189002B48CB
:40388000FFF78AF8AB0705D16421280000F09AFC002908D1C8214900280000F093FC002903D1012302E0012300E00023002B00D001376369002B2FD0BB422FD801AA694649
:4038C0002000FFF705FDFFF728F905001A4B1B69DB070AD4184B9B68DB0708D4164A916802230B439360002402E0144C00E0134C002C0BD1104B009A5A61019A9A619A6813
:4039000002218A439A603E20FFF73AF82800FFF708F904E00A4C02E0094C00E0084C200003B0F0BDC4910010BE03000088910010BF0300007C910010000027400300A20099
:403940000100A20010B5FFF74DFF10BD70B5041E03D18C214148FFF71FF8FFF7DEF805003F4B1B69DB070BD43D4B9B689B0707D43B4E0123B360B720FFF702F80023B3600D
:403980002800FFF7CEF8364B59699A697F231800084000090F25284086003018460028000840301820600E0A33401B092B409800C31858003540281860608023DB030B40C4
:4039C000581E8341DBB26373002B12D0080C1F2303401B090F2633409D00EB185D0030402818A06080239B030B40581E834123730DE0080C3F2303401B090F2633409D00A0
:403A0000EB185D0030402818A06000232373090E072319402161383313401B090F210B409800C31858000B001340C3186361100A1F2303401B090B409D00EB185D00084029
:403A40002818A061120CFF2313401B090B409800C31858000A408218E26170BDC491001000002740F0B54F464646C0B483B0041E894600D1F3E0012903D9D0217D48FEF765
:403A80008BFF23683B2B03D9D2217A48FEF784FF2379012B03D9D3217648FEF77DFFA3683B2B03D9D5217348FEF776FF237B012B03D9D6216F48FEF76FFF2369172B03D9F2
:403AC000D8216C48FEF768FF237D012B03D9D9216848FEF761FFA369013B062B03D9DB216448FEF759FF237F012B03D9DC216148FEF752FFA36A013B0B2B03D9DE215D4837
:403B0000FEF74AFF2C23E35C012B03D9DF215948FEF742FF2423E35C012B03D9E1215548FEF73AFF2D23E35C012B03D9E3215148FEF732FFFEF7F1FF06004F4B1B69DB073A
:403B40000BD44D4B9B689B0707D44B4F0123BB60B720FEF715FF0023BB603000FEF7E1FF454B9A69120CFF2313401B090F210B409800C3185E000A40B618FA23DB009C46CA
:403B80006644A76A7D1E0B2D03D93C493C48FEF703FF002E03D13B493948FEF7FDFE3A4B5B5D9846022F1FD1002E04D1E82189003348FEF7F1FEB30705D16421300000F03F
:403BC00001FB002908D1C8214900300000F0FAFA002903D1012302E0012300E00023002B02D001239C46E044236A002B39D0434539D801AA69462000FFF7F0FCFEF78DFFF9
:403C000006001D4B1B69DB070AD41B4B9B68DB0708D4194A916802230B439360002402E01A4C00E0194C002C15D14B46012B05D0114B009ADA61019A1A6204E00E4B009A75
:403C40005A62019A9A620C4A936802218B4393603E20FEF795FE3000FEF763FF04E00C4C02E00B4C00E00A4C200003B00CBC90469946F0BDC491001000002740BE0300001A
:403C800088910010BF0300007C9100100300A2000100A20030B58FB004000378012B03D920492148FEF778FE002C36D000230293012202A90A7104930A736168069102A97A
:403CC0000A75226908920B772378012B04D02000FFF7B8FB0A9001E0A3680A930123242202A98B54626901920C922C228B5401328B5418240D4D08E0012102A8FFF7B2FEF8
:403D00000500013C3E20FEF73BFE002D01D0002CF2D1002C02D1064D00E0044D28000FB030BDC04682030000C49100100100A2000200A20070B504000E00002803D11D49A1
:403D40001D48FEF729FE002E04D1F42189001A48FEF722FE2378002B01D0A56803E02000FFF770FB0500237E002B01D0206A03E020001830FFF766FB63699B026D011D439D
:403D800063681D43B3699A0273695B011343B2681343E26A920240011043E26910439D4203D8834203D3002002E0002000E0012070BDC046CF030000C49100107047C04671
:403DC000F0B5474680B48AB0040002A8FFF7BEFD02A92000FFF7AEFF002866D0049B172B59D9069B01930133069300220492072B01D901230693079B01935D1C0795089F70
:403E0000099EFA23DB009C4666447B1E98460B2B03D957495748FEF7BFFD002E03D156495448FEF7B9FD554B42469B5C9846022F1FD1002E04D1E82189004E48FEF7ACFD0F
:403E4000B30705D16421300000F0BCF9002908D1C8214900300000F0B5F9002903D1012302E0012300E00023002B02D001239C46E044454505D901230793089B0193013374
:403E80000893089B0C2B08D901230893099B01930133099301E00133049302A8FFF7A2FC20001830FFF7F6FE5EE0049B002B53D117330493069B0193013B0693002B01D195
:403EC00001330693079B0193013B0793002B39D1089E099DFA23DB009C466544771E0B2F03D923492348FEF757FD002D03D122492048FEF751FD214BDF5D022E1DD1002D10
:403F000004D1E82189001B48FEF746FDAB0705D16421280000F056F9002908D1C8214900280000F04FF9002903D1012302E0012300E00023002B00D001370797089B019345
:403F4000013B0893089B002B08D10C330893099B0193013B099301E0013B049302A8FFF741FC2000FFF796FE0AB004BC9046F0BDBE03000088910010BF0300007C910010D8
:403F80007047C046014B986B7047C0460000274010B50400072302009A4303D003490448FEF7FAFC034BDC62DB6A10BD05050000C49100100000274010B504000723020040
:403FC0009A4303D003490448FEF7E6FC034B5C6310BDC0461A050000C49100100000274070B506000D00FFF7CDFF0400FFF7D0FFE30701D5FFF7E2FEA30707D5002D03D0F8
:404000003000FFF7DDFE01E0FCF710FA630701D5FFF7B6FF70BDC04670B50D001600002907D1002408E02878FCF7F6FB0135013400E00024B442F6DB200070BD70B50D00F5
:40404000160000290CD100240DE0FCF7F1FBC0B2287001340A2806D00D2804D0013500E00024B442F1DB200070BDC04610B50C4B1B78002B0DD10B4C0B4A0C492000FDF7C8
:4040800075FC0B4A0B492000FDF79EFD0122044B1A70044A1368802109060B43136010BD0432000800006740643200080092001084D71700A0860100002243088B4274D3F5
:4040C00003098B425FD3030A8B4244D3030B8B4228D3030C8B420DD3FF22090212BA030C8B4202D31212090265D0030B8B4219D300E0090AC30B8B4201D3CB03C01A5241C1
:40410000830B8B4201D38B03C01A5241430B8B4201D34B03C01A5241030B8B4201D30B03C01A5241C30A8B4201D3CB02C01A5241830A8B4201D38B02C01A5241430A8B4297
:4041400001D34B02C01A5241030A8B4201D30B02C01A5241CDD2C3098B4201D3CB01C01A524183098B4201D38B01C01A524143098B4201D34B01C01A524103098B4201D3CB
:404180000B01C01A5241C3088B4201D3CB00C01A524183088B4201D38B00C01A524143088B4201D34B00C01A5241411A00D20146524110467047FFE701B5002000F0F0F872
:4041C00002BDC0460029F7D076E7704703460B437FD4002243088B4274D303098B425FD3030A8B4244D3030B8B4228D3030C8B420DD3FF22090212BA030C8B4202D3121230
:40420000090265D0030B8B4219D300E0090AC30B8B4201D3CB03C01A5241830B8B4201D38B03C01A5241430B8B4201D34B03C01A5241030B8B4201D30B03C01A5241C30A0F
:404240008B4201D3CB02C01A5241830A8B4201D38B02C01A5241430A8B4201D34B02C01A5241030A8B4201D30B02C01A5241CDD2C3098B4201D3CB01C01A524183098B42CD
:4042800001D38B01C01A524143098B4201D34B01C01A524103098B4201D30B01C01A5241C3088B4201D3CB00C01A524183088B4201D38B00C01A524143088B4201D34B0066
:4042C000C01A5241411A00D201465241104670475DE0CA0F00D04942031000D34042534000229C4603098B422DD3030A8B4212D3FC22890112BA030A8B420CD389019211DB
:404300008B4208D3890192118B4204D389013AD0921100E08909C3098B4201D3CB01C01A524183098B4201D38B01C01A524143098B4201D34B01C01A524103098B4201D33C
:404340000B01C01A5241C3088B4201D3CB00C01A524183088B4201D38B00C01A5241D9D243088B4201D34B00C01A5241411A00D20146634652415B10104601D34042002BBB
:4043800000D54942704763465B1000D3404201B5002000F005F802BD0029F8D016E770477047C046F0B556464D4644465F46F0B41D000E034C00CB0F87B0070092468146C1
:4043C000360B640D98466AD06D4B9C4235D08022430F12041343F6001E43C3009946694B00279C460023644402932B0368001B0BED0F51469B46400D009500D178E0604BFC
:4044000098426CD05B46DA004B0F802109040B4313439B465346D9005A4B9C46002360444246201A6A40924601901F430F2F00D9B0E05548BF00C0598746374300D088E0CC
:40444000002399460233082700260293CDE74346B34649460093029B009A9246022B00D0BFE1002153460122002689461A40444B002136030C0D2405360B2643434C1B0567
:4044800026401E437600D207760816434846310007B03CBC90469946A246AB46F0BD330003434FD0002E00D1BCE1300001F04CF903000B3B1C2B00DDADE11D220100D31AA4
:4044C00008393A008F408E40DA40B9461643304B00279C46002360444442029385E753465A4613432CD1002300219B46023397E70B4320D05B46002B00D19EE1584601F013
:4045000023F903000B3B1C2B00DD8FE102005946083A91408B461D21CB1A5146D9400B0059460B4351469B469140194B9C4660444042002374E7002300219B4601336FE750
:4045400003236DE70023994601330427002602934BE703230C27029347E70122D51A382D00DCB0E153461A4000210023002689467EE700238026994600223603004B77E736
:40458000FF07000001FCFFFF34920010FFFF0F80F30300005E4500D972E100D16DE1019B4D46013B01930023340002935B461E020B0E1E430B020393330C994633041B0C6E
:4045C000494620000093FFF777FD009B370043430600494620009846FFF7F4FD2C0C09040C43A04509D9E419731EA74200D95CE1A04500D859E1023EE4194346E41A49460B
:404600002000FFF759FD0300009A80465343494620009B46FFF7D6FD2A040904120C0A4393450DD94346D219013B974200D93AE1934500D837E102235B429C46D219E04460
:404640005B46D21A4346360433439B460399180C0B0C1D00059309045B46090C0C001B041B0C4443049159436B4368431B190D0CEB189C4203D980246402A44660441C0C17
:4046800009041B04090C20185D18824200D2DEE000D1D7E0161A029B9C465D1BAC459B415B42F61AB74200D106E149463000FFF703FD009B04004343494630009846FFF771
:4046C00081FD2E0C09040E43B04509D9F619631EB74200D9F3E0B04500D8F0E0023CF6194346F31A494618000293FFF7E5FC009B06004343494602989846FFF763FD2D0450
:4047000009042D0C0D43A84509D9ED19731EAF4200D9D6E0A84500D8D3E0023EED192404210043463143049E059A3000ED1A0B040C0C1B0C58436643534354439A19030C00
:404740009B189E4203D980225202944664441A0C00041B04000C14191B18A54250D34DD001231943964A019B94466344002B00DCF3E64A0709D00F220A40042A05D00A1D4A
:404780008A42894149428B4411005A46D20108D55A468C4B1A4093468022D2009446019B6344894A934200DD5BE65A46C908500708435602514601225B058146360B5B0DB2
:4047C0000A4055E680231B031E4211D05A461A420ED15E461E433603360B2A0089467B4B46E6032B00D1E1E0012BBBD11A40BBE61E433603360B4246744B39E6002BB1D08D
:404800007D194A1EAF4252D91100A542A8D1039A9A42A5D1A6E703003E00283B9E400023994654E600F090FF203041E603005246283B9A400021934677E6504600F084FF85
:4048400020305EE6029B0026AB4200D323E7039E0299B44661448846B045B6415B467642F619B218013B0291974213D290424FD800D18EE0161A9B460DE7894500D28EE672
:4048800074084B46F60735005B081D434B46DB0702938BE69742EDD10399029CA142E5D93E1A9B46F7E69846CAE61E00A5E6AC423ED874D0110053E70121494252E71C0029
:4048C0000EE71E002BE71F2D3CDC20230A0058465B1B9840EA4099400243481E81415E461143EE404B0709D00F230B40042B05D00B00191D99429B415B42F61833023CD5CB
:404900005346012200211A40002601238946AFE502235B429C46039CE344A446029B63449846A045B6417642F6190293B218B1E603988A1E41008142B6417642F619AD19B9
:40494000039161E71F225242D31A5A46DA401300202D29D040225846551BA8400143481E814107200B4318400026002809D00F2200261A401900042ABBD10B007007760250
:40498000360BDB0803439946012253461A4000236EE502998D42BBD89B4600267BE603989842C5D3110032E70020D7E780265B4636031E433603360B009A8946034B57E55A
:4049C000FF030000FFFFFFFEFE070000FF070000F0B55F4656464D464446F0B40D0399464E002B0B87B00700924680469B46760DCC0F002E69D06D4B9E4235D05B46802233
:404A0000DD001204430F13432B439B46C3009846674B00279C460023664401934A4615035000D20F53462D0B400D914600D176E05E4A90426CD080225B0F120413435C4A06
:404A4000ED0094461D4353460022DB00604449463618701C6140029017430F2F00D9AFE05448BF00C759BF465B461F4300D088E000239B469846023308270193CEE7494660
:404A8000022A6AD0032A00D109E2012A00D0BBE111400022002300259046CCB200212D030A0D12052D0B1543434A1B0515401D436D00E4076D0825434046290007B03CBCFD
:404AC00090469946A246AB46F0BD034352D05B46002B00D18AE1584600F036FE03000B3B1C2B00DD7BE11D22D31A3A0001005D46DA4008398D4013008F402B439B46B8461F
:404B00002E4B00279C46002360444642019385E752462A432CD100250023022297E752462A4321D0002D00D154E1280000F00CFE03000B3B1C2B00DD46E11D21CB1A51461F
:404B40000200D9405346083A954093400D431B4A944660444042002279E7012400220C40124B0025904699E70025002301226EE703226CE700239B469846013304270193E8
:404B80004CE703230C27019348E700238025984600242D03054B81E75D464346019A6FE75D4643462100019A6AE7C046FF07000001FCFFFF74920010FFFF0F80F3030000FE
:404BC0004246120C91461A0C9446424617044A461B041B0C5A43604690464A4642431000039262461C003F0C7A437C4342440192220C9246019A5244904506D982468020F5
:404C000040028046C24450460390100C049048462404240C1204121905922A0C2D042D0C68432C00824648467C4350438146200C8046574357444744BA4503D9802040027A
:404C40008046C144380C3F04B84648442404240C01900498A044404404905846000C814658460404200C8246070048465F434C464343604660436446834650464443380C60
:404C80008446E4186444A34203D980235B029C46E34448463F04230C3F0C2404E419574668436F4384464D46504655434243380C814662444A445B44944503D980204002CD
:404CC0008446654403983F04834604983F0C8446E344C345804140428246100484460198674484466744A344BC46A345A4419946D44464428742BF41D4458041E144A04617
:404D000099459B417F424042C8440743120CBA18A045A4415F423B0064422343D71843467D19DB0D6D021D435B465A02059B1A43531E9A415B46DB0D1A4343465B02134351
:404D4000EA0107D501225C0813402343EA07029E13436D08574AB218002A4BDD580709D00F201840042805D0181D98429B415B42ED180300E80104D54F4A15408022D2009F
:404D8000B2184E48824200DDE7E60124DB08680718436D02530580462D0B5B0D0C407DE6802259461203114208D0154206D115432D0398462D0B4C46414B6FE65D461543BC
:404DC0002D032D0B3E4B69E603005546283B9D400023BCE6504600F0B7FC2030A8E60300283B9F400023BB46984689E600F0ACFC203073E60124A61A382E07DD00220C4025
:404E000000230025904649E6029EA3E71F2E20DC20222C001800921BF040944093400443581E83411C43F540630709D00F232340042B05D023001C1D9C4292415242AD1851
:404E40002B021FD5012400220C4001230025904624E61F202C004042821AD440202E1CD04022961BB5402B43581E83410720234318400025002809D00F2200251A401C00F7
:404E8000042AD8D1230068076D022D0B0124DB08034398460C40002300E60025E3E780220124120315432D0398462D0B0C40044BF4E5C046FF030000FFFFFFFEFE0700007C
:404EC000FF070000F0B557464E464546E0B40E001100F20F9246C500420F180337037400400A4E0F7F0A3043CF4E17435A00640D520DDB0FC900B24200D1E5E00126734085
:404F0000A61AB446534500D1AFE0002E00DC0DE1002A3AD103000B4300D0E4E06B0709D00F232B40042B05D02B1DAB42AD416D427F191D003B0200D488E0BB4B01349C42A8
:404F400000D110E13A00B94B51461A4001235007ED08520264050543120B640D0B400021280012030D0D120B64052D0515436208AF4CDB072C401443640064081C43210010
:404F80001CBC90469946A246F0BDA74B9C42C5D080231B0418436346382B00DDFDE01F2B00DD30E1624620239B1A02009A40664690460A009940F24046464B1E99413243F8
:404FC000114363460200DA40691A8D429B410D00BA1A5B42D71A3B0235D57A02530A98464346002B00D1C4E0404600F0ADFB0300083B1F2B00DDC5E020222900D21A4746C0
:40500000D1409F400A009D403A439C4200DDC0E01C1B631C1F2B00DDE4E0202114002800C91AD8408C408D400443DA40681E854117002543002471E7424663461A4300D108
:405040004CE2674645466B0700D069E7012351467807ED08FA080B40054373498C4238D012036405120B640D79E7002E00DC9AE0002A47D06C4A944200D14FE78022120466
:4050800010436246382A00DC08E10143481E81410022C9B24919D219A942BF410D007F42BF183A0200D442E15F4A0134944200D14EE101205D4A69083A4028400843D507BF
:4050C000054357089A4629E706000E4300D017E714E72900114300D1F9E1802109030A431203120B3BE701235B429846C4446346002B72D1691A8D429B413F1A5B42FF1A88
:405100000D0068E702000A4300D107E7012252429046C4446246002A00D0E6E06918A942B6413F187642F7190D00BAE7002E00D080E0621C5205520D012A00DCF9E06A1AE2
:4051400091464D45B6413A1A7642921B9046120200D499E04D1BA9428941C71B49427A1A90469A463CE752460123002513400022F5E6280000F0E8FA20300300083B1F2BDD
:4051800000DC39E72A002838824000259C4200DC3EE7264FE41A1740C0E60143481E81410022C9B210E7002E00D0F1E0621C94465205520D012A00DCA0E01B4A944500D1C0
:4051C000C5E06918A94292413F185242D2194908D5070D4357086446A0E6134B9C4200D0D9E69BE611001F3CE1400C00202B00D180E04021CB1A9A4015436A1E954100278B
:40520000254300241FE763460200203BDA406346202B71D0402366469B1B98400143481E814111430022CFE6FF070000FFFF7FFFFFFF0F80002C48D0CA4CA24200D1A2E0B3
:405240007442A1468024240427434C46382C00DDDBE01F2C00DD44E14E462024A41B3E00A640A246B0464C462E00E640B4464646644626435446A5406C1EA54134002C43D6
:405280004D46EF400D1B28E04A4643464D461A4300D0A5E6002300240025DEE61F2A5ADC66462022921B060096409146B04662460E00D640424616434A4691404A1E91415D
:4052C000020060463143C240E4E63C002C435AD0F443A146002C52D14D1BA9428941C71B49427F1A14009A4675E69E4A944200D0C7E613E600227FE700208FE7002C00D0C4
:40530000C8E03B002B4300D10FE103000B4300D104E66918A9429B413F185B42DF193B0200D41AE1904B0D001F406446F6E59A4689E63A002A43002C5CD1002A75D1020082
:405340000A4300D1CAE007000D009A46E6E564460022002581E662460600203AD6406246B046202A00D1B7E040226646921B904001434246481E8141114300228AE6794CB6
:40538000A24200D061E707000D0014009A46C5E5002C41D13C002C4378D0F443A146002C20D0704CA24271D04C46382C00DDB2E01F2C00DDBCE02026341BA2463C00564675
:4053C000B4404E46A0462C00F440A446444666463443A4465446A54064466E1EB54125434C46E7406D188D4289413F184942CF19140056E6002A2FD102000A4300D184E0AC
:4054000007000D009A46574C88E53D436F1EBD41ECB200270D1B60E7524CA24236D0744280263604A1463743BEE702000A4300D174E56A1A90464545B6413A1A7642921BF8
:405440009446120200D4F7E54D1BA9428941C71B49427F1A9A4661E502000A433AD0ED087C072C438025FA082D032A4208D0C7082F4205D145072C003A009A46C9080C4322
:40548000670FD200E5001743364C47E507000D00140043E53A002A4343D002000A4319D0ED087C072C438025FA082D032A4207D0C6082E4204D147073C003200C9080C4385
:4054C000D700620FE50017439A46264C26E50022002544E5234C21E5002049E700230025BBE54C463E00203CE6404C46B446202C31D040244E46A61BB7403D436C1EA541E0
:4055000064462C4300270D1BE7E6802200231203144C0025A1E53D436F1EBD410027EDB260E707000D000F4CF8E407000D00F5E44E463C00203EF440A0464C46202C0ED0FD
:4055400040244E46A41BA7403D436F1EBD4144460027254346E70027CFE70D0073E50027F2E7C046FF070000FFFF7FFF0B0330B5134D1A0B4B005B0DC90F0024AB4211DD70
:40558000104CA34210DC8024640322430E4CE41A1F2C0CDD0D48C31ADA4013005C42002900D11C00200030BD094BCC18FAE7E040084CA44663449A4013000343EEE7C04676
:4055C000FE0300001D0400003304000013040000FFFFFF7FEDFBFFFF70B5002830D0C317C4185C40C50F200000F0AEF8174B184A1B1AD21A1F2A18DD164AD21A944000224B
:4056000024035B05240B5B0D0021100024030A0D1205240B1443104A1B0514401C436400ED0764082C43210070BD210091400A000B21081AC4405B052403240B5B0DE3E75C
:405640000025002300240022DEE7C0461E0400003304000013040000FFFF0F8070B5051E28D000F071F8154B154A1B1AD21A1F2A16DD2C00134A0025D21A94405A0524032B
:40568000240B520D002124030B0D240B1B0523430D4C1205234013435B002800590870BD0B212C00081AC440954024035A05240B520DE7E700220024E4E7C0461E0400009F
:4056C0003304000013040000FFFF0F808446101C62468C46191C634600E0C0461FB500F0F5F8002801D40021C8421FBD10B500F049F84042013010BD10B500F0E7F80028B4
:4057000001DB002010BD012010BDC04610B500F0DDF8002801DD002010BD012010BDC04610B500F06FF8002801DC002010BD012010BDC04610B500F065F8002801DA002004
:4057400010BD012010BDC0461C2101231B04984201D3000C10391B0A984201D3000A08391B09984201D30009043902A2105C40187047C0460403020201010101000000007B
:4057800000000000F0B55F4656464D464446F0B41F035C00DB0F9A46194B0E034D00C90F8046360B6D0D8B4691463F0B640D9D4219D0134B9C421BD00123A54206D0180094
:4057C0003CBC90469946A246AB46F0BDBE42F6D1C845F4D1D34510D0002DF0D1304303005A1E9341EBE7310001230143E7D1E0E73A430123002AE2D1DEE70023DFE7C04619
:40580000FF070000F0B55F46444656464D46F0B41F033C0B2C4F0E034D00A3465C008446360B6D0DC90F9046640DDB0FBD422BD0254FBC422ED0002D0ED1304307008146EF
:4058400078427841002C17D15F463A4314D14B460020002B0AD006E0002C02D15846024301D099421AD00123484218433CBC90469946A246AB46F0BD0028F2D0584258412D
:40588000012240421043F1E737000743D0D002204042EBE75F461743CDD0F8E7A542E2DC05DB5E45DFD808D000205E45DED248424841012340421843D8E7C445D3D8002035
:4058C000C445F4D3D2E7C046FF070000F0B55F464D4644465646F0B41C03240BA4462F4C0F034D005E00C90F80463F0B6D0D8B469146760DDB0FA54220D0284CA64222D060
:40590000002D12D1384344424441002E20D0002C0DD05C42634101245B421C4320003CBC90469946A246AB46F0BD002E17D05B4519D05B465C4201231C43EFE7390002245F
:405940000143EBD1D9E7614602241143E6D1D7E761460A43DBD100240028DFD0E9E761460A43E4D1E5E7B54203DD01225C421443D4E7B542CDDB6745DBD809D000246745A0
:40598000CCD259464C426141012449420C43C5E7C845CED80024C845F3D3BFE7FF070000002310B59A4203D0CC5CC4540133F9E710BD03008218934202D019700133FAE7DF
:4059C0007047F0B58BB014001D1E129906DA802424061B191D0014002D2300E000230B702023149E03229E43462E07D03300453B59424B411099013ACB18109309AB049360
:405A000008AB0393139B00920293109B220001932B0000F085FE0700472E02D1119BDB072DD5109BFB180793462E14D13B78302B0CD10022002320002900FFF757FE0028CD
:405A400004D10123109A9B1A139A1360139B079A1B68D31807930022002320002900FFF745FE3022002802D0079B099307E0099B0799994203D9591C09911A70F7E7380075
:405A8000099B159ADB1B13600BB0F0BDF7B52B2307000C000270861C002901DA2D234C427B70092C1CDD6B46DD1D20000A21FEF773FC013D3031297020000A21FEF786FB53
:405AC00004000928F1DC013D30342C706B4607333000AB4209D92B78013533700136F5E73023E4183370B01C7470C01BFEBD0000F0B595B00C000A920B931A9D099001F044
:405B00005DFD036818000D9300F09CFC0023129323680E900C930C99277E2B680722C90501D59B1800E0073393431A0008322A601A685B68A264E3640122E56CA66C6B0022
:405B40005B080F935242C04B30000F9902F0A4FE002819D10122BC4B524230000F99FFF7D5FD002810D10022002330002900FFF7C3FD002803D023002D2243331A70B34DDB
:405B8000472F0ED8B24D0CE032002B003000290002F082FE002800D19AE1AE4D472F00D8AD4D03230C9A236101339A432260002642E0672F00D193E1472F00D190E10C9A5B
:405BC0000021134312AA059211AA0392232223600691019308A9636852180292009332002B0004970998FFF7ECFE20233A0005009A43472A00D18EE11199652F00D996E174
:405C0000200001393A0050301191FFF73FFF129A060083182361012A00DD85E12268D20700D581E1232308AA9B181B78002B03D023002D2243331A700B9B13AA00932100DC
:405C40000A9B099800F0A4F9431C02D1012040429BE12268530501D4236964E0652F00D8CCE0A06CE16C00220023FFF73FFD00282CD00123794A0A9909980B9DA847431C4C
:405C8000E4D0119B129A934208DB2368DB0705D4236800259B0700D50FE113E10B9D0E9B0D9A0A990998A8470025431CCED0129B013B9D42ECDA220001231A320A9909981E
:405CC0000B9EB047431CC1D00135F0E7119B002B2BDC0123614A0A9909980B9EB047431CB4D0119B002B05D1129B002B02D12368DB07CDD50B9E0E9B0D9A0A990998B047F8
:405D00000026431CA2D0119B5B429E420ADA220001231A320A9909980B9FB847431C95D00136F0E7129B2A00ACE0A36D129E9E4200DD1E00002E05DC00230C93F343DB1717
:405D40000F9315E033002A000A9909980B9FB847431CF1D17AE7220001231A320A9909980B9FB847431C00D170E70C9B01330C930F9BA26D0C993340D31A9942EBDBAE181B
:405D8000119B129A93420DDB2368DB070AD4129B119AED18AD1B9B1A9D4200DD1D00002D09DC11E00E9B0D9A0A9909980B9FB847431CECD14AE72B0032000A9909980B9EF9
:405DC000B047431C00D141E7EF43FB1700260C930AE0220001231A320A9909980B9FB847431C00D132E70136119A129B0C999B1A2A000A409B1A9E42EBDB49E7129B012BD8
:405E000002DC01231A4245D001232A000A9909980B9FB847431C00D118E70E9B0D9A0A9909980B9FB847431C00D10FE7A06CE16C00220023FFF75AFC002801D000251AE020
:405E4000129B6A1C013B26E0FFFFEF7FC0920010BC920010C8920010C4920010CC920010220001231A320A9909980B9FB847431C00D1EBE60135129B013B9D42F0DB2200D8
:405E8000330050320A9909980B9DA847431C00D0FEE6DBE62A000A9909980B9DA847431CEDD1D3E62200012319320A9909980B9EB047431C00D1C9E60135E368139A9B1A6C
:405EC0009D42EFDB139BE06898425EDA18005CE080236268DB00511C00D06AE6073202E0002A02D10122626069E60C9908A80B430021069112A9059111A90391232109181D
:405F00002360019300922B000497029132000998FFF757FD0500119BDA1C02DB626893421CDD023FFFB267E6013323617AE6662F15D16368002909DD2161002B02D1226870
:405F4000D2071ED50133591821611AE0002B03D101222168114213D09A1C11E06727119B129A934206DB22682361D20709D50133236106E00121002B01DC4918C91A8A189D
:405F80002261119B0026A3654CE615B0F0BDC046F7B5170001938A680B6900900C00934200DA130022003B6043321278002A01D001333B6023689B0602D53B6802333B60C3
:405FC000062523681D401ED0230043331B785A1E9341226892061CD53020E1184331087021005A1C45310978A2184332023311700FE022000123193201990098089EB0471E
:40600000431C0ED00135E3683A689B1A9D42F0DBDAE72200019943320098089DA847431C02D10120404220E006232068E1683A6803400025042B03D18D1AEB43DB171D4083
:40604000A3682269934201DD9B1AED180027BD420AD0220001231A3201990098089EB047431CDED00137F2E70020FEBDF0B58BB006920A0043320793059004920A7E0C0073
:40608000109B6E2A00D1ABE011D8632A22D009D8002A00D1B5E0582A00D0C5E045310A70814A4FE0642A1DD0692A1BD0BCE0732A00D1AAE009D86F2A29D0702A00D0B3E08A
:4060C000202209680A43226037E0752A1FD0782A33D0A9E00E001A684236111D196013683370A4E021681A68080606D4490604D5111D19600023D55E02E0111D19601568DC
:40610000002D3BDA2D23049A6D42137036E021681A68080606D4490604D51568111D1960ADB202E0111D196015685F4B227E039308276F2A1DD00A271BE022007821453250
:4061400011705A4A19680392081D226818600D68100602D4500600D5ADB2D30702D520231A4322601027002D03D1202322689A4322602300002243331A7002E00A274A4BAE
:4061800003936368A360002B09DB0422216891432160002D05D1049E002B11D07BE0002D79D0049E28003900FEF70CF8039B013E5B5C280033703900FDF77EFF051EF1D1FC
:4061C000082F09D12368DB0706D563682269934202DC3023013E3370049B9B1B23612BE009681A68080607D4490605D5111D19601368A28A1A8004E0111D19601368626966
:406200001A600023049E236116E01A68111D1960166800216268300001F042FA002801D0801B6060636803E0260042363270012323610023049A1370079B09AA009321007F
:40624000069B0598FFF7A4FE431C02D10120404227E02369320006990598079DA847431CF4D0236800259B070FD4099BE068984217DA180015E022000123193206990598F6
:40628000079EB047431CE1D00135E368099A9B1A9D42F0DBE9E72600039B42361B7833708EE70BB0F0BDC046CE920010DF9200100FB40B4B13B51C68002C05D0A369002BFC
:4062C00002D1200001F0E6F805AB049AA1682000019301F0BDFD16BC08BC04B01847C04670010008F0B51D00514B85B01E6804000F000092002E05D0B369002B02D13000F3
:4063000001F0C8F84B4B9C4201D1746808E04A4B9C4201D1B46803E0484B9C4200D1F468009B022B05D0012B00D97CE0002D00DA79E02100300001F03FF8616B002908D01C
:4063400023004433994202D0300001F0ADFC002363630023A3616360A3891B0603D52169300001F0A1FCA289354B1340A381009B022B21D003AB02AA2100300001F022F93A
:40638000A3891843A081002D01D1029D01E0002F25D1280001F07AF90195071E1AD1029B0193AB4202D10120404206E0019801F06DF9071E0ED1F6E700200222A38913434E
:4063C000A3810023A3602300473323602361012363612AE08022A389019D1343A381B369002B02D1300001F055F8009B012B03D1A389009A1A43A2810823A289276013403E
:4064000027616561181E0CD001231A40002310009A4204D06D42A360A561180005E0A56003E0A36001E00120404205B0F0BDC046700100080093001020930010409300104D
:406440005CF3FFFF0023C25C0133002AFBD1581E7047030030B5002A0DD00C7801335D1E013A2C700131002CF5D19A189A4202D01C700133FAE730BDF8B505000F00140057
:40648000002804D08369002B01D101F003F8234B9C4201D16C6808E0214B9C4201D1AC6803E0204B9C4200D1EC68A369A360A3891B070AD52369002B07D023682269FEB220
:4064C000981A636998420FDB08E02100280000F02BF80028F1D0012040421DE02100280000F06AFF0028F6D1A3680130013BA36023685A1C22601F706369984205D0A389C8
:406500003000DB0708D50A2E06D12100280000F053FF0028DFD13000F8BDC046009300102093001040930010364B70B51D6806000C00002D05D0AB69002B02D1280000F05D
:40654000A9FF314B9C4201D16C6808E02F4B9C4201D1AC6803E02E4B9C4200D1EC680C22A35E9AB2110723D4D10607D409220120326037321343A381404242E0530713D50B
:40658000616B002908D023004433994202D0300001F08AFB002363632422A3899343A38100236360236923600822A3891343A3812369002B0BD1A0238022A1899B009200B8
:4065C0000B40934203D02100300001F021F80123A289134005D00023A36063695B42A36103E0920700D46369A36000202369834207D10C22A35E1A0603D540221343A381D8
:40660000013870BD70010008009300102093001040930010F0B503690C6989B00700059100269C4279DC0B00013C1433A50003935B1904930300143302935D19049B286824
:406640001B68591C0193FDF737FD0190B04233D0039B02989C460696634604CB9C46019B91B25943120C5A4389190B0CD3180793069A1E0C038889B29B1802685B1A110C1D
:406680006A46928B8A1A1914521811149BB21204134308C0049B06916345DDD22B68002B0AD1029B043DAB4201D33C6104E02B68002BFAD1013CF4E70599380001F00CFA78
:4066C000002829DB0020019B02990133039A019340CA0B881818B3B2C31A0868360C000C801B1D14451928149BB22D042B4308C1049B9342ECD2029AA300D3181A68002AC2
:406700000AD1029A043B9A4201D33C6104E01A68002AFAD1013CF4E7019E300009B0F0BDF0B516001F00446A9DB00490259D06960797002C08D1102000F0A8FF049B586224
:40674000446084600460C460049B5B6A196800290BD05A68012393404A608B60049800F0E2FF0022049B5B6A1A60079B002B05DA01232B607B005B08079301E000232B6003
:40678000079CC84B220019931A409A4219D1C64B249A1360069AC54B002A02D1240300D1C34B269A1800002A01D100F07DFDD978DA1C002900D00532269918000A6000F05A
:4067C00073FD069E079F0022002330003900FEF78DFF051E0ED00123249A1360B54B269A1800002A01D100F05FFDB34A26990A6000F05AFD1AAB01931BAB009332003B00AE
:40680000049801F0EFF9630005905B0D09D03A03AA4C120B1443AA4A300021009E1817951AE01A9B1B9A9E18A64BF318202B08DDA54A0698B218D0404022D31A9C40204321
:4068400003E020220698D31A9840FEF707FF01239E4C013E0919179300229D4BFEF732FB9C4A9D4BFEF7B4F89C4A9D4B01F0E8FC040030000D00FEF7AFFE9A4A9A4BFEF79D
:40688000A7F802000B002000290001F0D9FC04000D00FEF76BFE00220390002320002900FEF72AFF00280DD00398FEF795FE02000B0020002900FEF719FF43424341039A3E
:4068C000D31A039301231693039B162B11D88749DB00C91808684968069A079BFEF720FF002805D0039B013B03930023169300E016901A9B9E1B00230B93013E0C9604D5D5
:406900000C9B5B420B9300230C93039B002B08DB039A0C9B944663440C9300231192089307E00B9B039A9B1A0B935342089300231193229B0125092B25D8052B02DD002586
:40694000043B2293229B981E032824D801F06EFC060E0204012302E0012308E000231093239B002B20DD1F000A9321E00023239A1093039B9F187B1C0A930123FA18002A2D
:4069800016DD130014E0012700237F42229310950A97123305E0012701237F4210930A9711330022239203E001273B000A972397049A546A002262600432110014319942F8
:4069C00004D86168520001316160F6E76168049800F071FE049B20605B6A1B680D930A9B0E2B00D981E1002D00D17EE1069B079C14931594039B002B31DD0F223B4913401C
:406A0000DB00CB185C681B680E930F94039B02241D11EB060AD514981599354B15401A6A5B6AFDF7BFFC069007910134304E002D0ED001231D4208D00E980F99E4183268F9
:406A40007368FDF7C5FF0E900F916D100836EEE70E9A0F9B06980799FDF7A4FC4CE0039B02245D42002D49D0149815990F231F4A2B40DB00D3181A685B68FDF7A9FF002392
:406A8000069007911A4E2D11002D33D00122154205D0A41832687368FDF79AFF01236D100836F1E70000F07F0F270000F9920010F0920010CC920010CD9200100000F03F30
:406AC00001FCFFFF3204000012040000000010FE0000F83F61436F63A787D23FB3C8608B288AC63FFB799F501344D33F6893001040940010002B01D006900791169B002B77
:406B00001DD0069D079E0022C74B28003100FEF7F3FD002813D00A9B002B10D0002F00DCDFE0039B3100013B0E930022BF4B2800FDF74EFF0134069007913E0002E0039BC7
:406B40000A9E0E932000FEF747FD069A079BFDF73FFF0022B64B01F073FBB64A12901391129C139D9446139B634418931D00002E1CD1069807990022AF4BFEF7A3F92200BA
:406B8000189B06900791FEF7CBFD002800D054E2AA481399844661440B00069807992200FEF7AAFD002800D03DE29AE0109A731EA349DB00002A49D0CB181A685B680020D7
:406BC000A049FDF7EFFB2B002200FEF77BF9129013910D9D06980799FEF7C8FC0400FEF7FBFC02000B0006980799FEF76BF901356B1E30341C70129A139B06900791FEF771
:406C00007BFD002800D02EE3069A079B00208649FEF758F9129A139BFEF76EFD002800D0C7E00D9BEB1AB3425BDA1298139900227E4BFDF7CDFE0022129013910698079986
:406C40007A4BFDF7C5FE06900791C3E7C9182200086849682B00FDF7BBFE0D9C12901391A51906980799FEF781FC0600FEF7B4FC02000B0006980799FEF724F93036267063
:406C80000134069007910022A54222D16D4B1298139901F0D5FA02000B0006980799FEF73FFD002800D084E0129A139B00206549FEF708F902000B0006980799FEF71CFD58
:406CC00000280ED06B1E1A78302A00D0CBE21D00F8E706980799554BFDF77AFE06900791BFE7149B159C069307941B9B002B00DA81E0039A0E2A00DD7DE0D300504AD3186B
:406D00005C681B6808930994239B002B15DA0A9B002B12DC00D088E1089809990022464BFDF756FE069A079BFEF704FD0A9B08931E00002800D07BE182E10D9D069E079F87
:406D4000089A099B30003900FDF72CFBFEF70EFC0400FEF741FC089A099BFDF739FE02000B0030003900FEF7ADF8220001356B1E30321A700D9B0A9AEB1A9A422ED1020098
:406D80000B0001F05DFA06000F0002000B0008980999FEF7B1FC00280FD10898099932003B00FEF7A3FC002800D15EE2E30704D45BE20E9B039300E01D006B1E1A78392A3D
:406DC00008D10D9A9A42F7D1039A0D990132039230220A701A7801321A7046E20022134BFDF7F6FD0022002306000F00FEF77EFC0028A5D039E2109A002A44D0229A012A6A
:406E00000BDC179A002A02D00F4A9B1802E036231A9A9B1A089D0B9C29E00A9B5D1E089BAB4213DB5D1B18E00000F03F0000244000001C400000C0FC000014400000C07C70
:406E4000689300100000E03F33040000089B0895EA1A0025119B9B1811930A9B002B04DA0B9B0A9A9C1A002301E00B9C0A9B0B9A0121D2180B920C9A0498D3180C9300F03D
:406E8000F2FC060002E0089D0B9C109E002C0ED00C9B002B0BDD0C9A2300944200DD13000B9AE41AD21A0B920C9AD31A0C93089B002B20DD109B002B17D0002D11D031008A
:406EC0002A00049800F062FD059A01000600049800F0D2FC05990E90049800F024FC0E9B0593089B5A1B06D000E0089A0599049800F04CFD05900121049800F0B4FC119BD2
:406F00000890002B00D1C0E11A000100049800F03DFD229B0890012B17DC0025069BAB420ED1079B1B03AB420AD1199B079A134206D00B9B013501330B930C9B01330C9305
:406F4000119B0120002B0DD000E00025089B089A1B690E9303339B00D318586800F039FC2023181A0C9BC0181F23184009D001331B1A042B02DD1C23181A03E0042B08D0F3
:406F800018001C300B9B24181B180B930C9B1B180C930B9B002B05DD1A000599049800F049FD05900C9B002B05DD1A000899049800F040FD0890169B002B1DD00899059898
:406FC00000F08AFD002817DA039B0A22013B039305990023049800F0BFFB109B0590002B00D159E1310000230A22049800F0B4FB0600002F37DC33E00A9B0A9F002B2ADC53
:40700000229B022B27DD002F12D108993B000522049800F0A1FB08900100059800F05CFD00280DDC04E0089602E000231E000893239B0D9DDB4303930AE00E9B0896039372
:407040000D9B0D9A5D1C31231370039B013303930A960026F3E0109B002B04D10D9DB5E0229B022BCFDC002C05DD31002200049800F0E0FC06000A96002D12D071680498FE
:4070800000F019FB3100040033690C319A1C92000C30FEF785FC01222100049800F0CAFC0A900D9B7D1E0B935B190E9308990598FFF7B0FA310010900400059800F00CFD55
:4070C0000A9A05000899049800F021FD01230C93C36830340700002B04D10100059800F0FBFC0C903900049800F01DFB0C9B229A134308D1069A0133134204D1392C2AD056
:40710000002D1CDC1DE0002D06DB229B1D431BD10123069A134217D10C9B002B11DD05990122049800F086FC0899059000F0D4FC002802DC05D1E30703D5392C0BD0109C06
:4071400031340B9B5D1C0FE00B9B5F1C0C9B002B0CDD392C05D10B9B0B9A5D1C3923137057E03D000B9B01341C7068E00B9B0E9A3D001C7093423CD000230A22059904983E
:4071800000F0EAFA0A9B05909E4208D1310000230A22049800F0E0FA06000A900DE0310000230A22049800F0D7FA002306000A220A99049800F0D0FA0A900B9776E70023AE
:4071C0000A220599049800F0C7FA059008990598FFF720FA0D9B3030287001350400EB1ABB42ECDB3D1E00DC01250A9600260D9B5D1905990122049800F01CFC0899059016
:4072000000F06AFC002804DC13D1E30701D410E01D006B1E1A78392A08D10D9A9A42F7D1039B013303933123137008E001321A7005E06B1E1A78302A01D11D00F9E70899F0
