:020000041000EA
:4000000000400208230100100D00000085010010000000000000000000000000000000000000000000000000000000008101001000000000000000008101001081010010E9
:400040008101001081010010810100108101001081010010810100108101001081010010810100108101001081010010810100108101001081010010810100108101001060
:400080008101001081010010810100108101001081010010810100108101001081010010810100108101001081010010810100108101001081010010810100108101001020
:4000C00010B5064C2378002B07D1054B002B02D0044800E000BF0123237010BD3C0600080000000070230010084B10B5002B03D00749084800E000BF07480368002B00D197
:4001000010BD064B002BFBD09847F9E7000000004006000870230010E8000008000000007047FFF7FDFF72B60F4C104DAC4209DA21686268A368043B02DBC858D050FAE716
:400140000C34F3E70A490B4A0020521A02DD043A8850FCDC084809490860BFF34F8F00F005F900F01DF8FEE7742300108C2300103C060008140800080000000808ED00E041
:40018000FEE7FEE700B504207146084202D0EFF3098001E0EFF30880043001F083FAFEE710B562B6014800F067F9FEE70000081010B5002000F0F4FF10BDC04670B56249AE
:4001C000E0239B00CB580F2213401A00D0329200525807210A40032A05D0042A06D0002A12D15A4814E05A4A106811E01A00C0329200554952581F210A40112A06D0132A7C
:4002000004D0FA20C00103E0524801E080200002002B36D14C4BB222D2009A5801211140B125ED005A59120F032422405B591B0F1C4207D0444C63591B0F03242340012BDC
:4002400002D102E0012300E00023002B01D0002901D1032A4BD13C4BB022D2009D58AD03AD0B3D495958C904C90C9C58240E01231C40013401F020FD6843210001F01CFD42
:4002800035E0012B33D1304BC822D2009A5801251540C024E4001A59120F03210A401B591B0F194207D028490B591B0F03210B40012B02D102E0012300E00023002B01D049
:4002C000002D01D1032A12D11F4DC022D200AB587F210B40A958090A1F263140AC58240C3440584301F0E8FC210001F0E5FCE0239B00154AD3581B0903221340D840144CD0
:400300006060164B1D692D0AFC32154001351969090E013101F0D0FCA060290001F0CCFC0500E06020610E4BC0180E4901F0C4FC20750D4BE818FA21890001F0BDFCA06181
:40034000C003E06170BDC0460000264000127A00C000000800366E0184050000000021403F420F0040420F00E703000010B5284801F09CFC274CB022D200A3585B005B0864
:40038000A350E0218900635830208343635080235B04A350204A214BE250A02292010433E250FF221E4BE25001F06EFCC0225200A35801218B43A35000F034FAFFF7FEFE48
:4003C000B0235B055B78002B04D0B0235B055B78DBB200E02123212B03D1124B0022DA605A60114C22008021042000F07FFC2000103000F013FD0D4B1A685123D35C002BF7
:4004000002D00B4800F080FD00F048FB10BDC046B82200100000264001000200840500008C050000E00023405806000810080008201E00108023024AD35803201840704754
:400440000000214010B501F0C0F9084980228C58074B2340074C23438B508823034AD358DB06FAD501F0B5F910BDC04600002140FCFF00000100FA0570B50500830504D065
:40048000E821FF310F4801F0DFF801F09EF90400FFF7D0FF032801D1FFF7D4FF0A4AB0239B00D55080215058084B03400848034353508823044AD358DB06FAD5200001F0E9
:4004C00088F970BD541E001000002140FCFF00000300FA05FEE7C04680221206044B1A60A022D202034B1A60034A044B1A60704700001D4100031D4101001180000E1F4116
:4005000030B587B0B549A022D2008B58032083438B50B34A116808688823CB58C3181868B049084018601368186884241B59C01803681B021B0A80256D042B4303601068A3
:4005400005680359EB1818680140196013683E229A5C002A06D0A148E02189004258753CA24342503E229A5C002A06D09B48E021890042583024A24342503E229B5C002BC5
:4005800007D09649E02292008B588020000603438B500021012000F035FE0021022000F031FE0021032000F02DFE0021042000F029FE0021002000F025FE01A88A490300F2
:4005C0000A0032CA32C312CA12C300F049FE002802D00420FFF77EFF8049844A8B588020000603438B50824800F0F4FE002802D00420FFF76FFF794C7E4BE1587E4A0A403F
:40060000E250E1587D4A0A40E250E25880252D062A43E250043BE158794A0A40E250E158784A0A40802189010A43E250E258802109020A43E250744A1168744B0B4080216E
:4006400049000B431360002001F000FB704BE2581543E550E158012291430A43E2506421002001F037F85E4B1B683F229A5C022A06D970229A5C02210A40664998684250AA
:400680009A6874215B5AD2189168564B0B408C2189010B439360524B1B6873229A5C0321914070229A5C7220185C140084402143022002400A43802109060A438021C90025
:4006C000986842509A6852583F229A5C052A06D970229A5C01210A404F49986842509A6874215B5AD21851683E4B0B408C2189010B4353603A4B1B6873229A5C03219140B6
:4007000070229A5C7220185C140084402143012002400A43802109060A438021C900986842509A6852583F229A5C062A03D900213A4A986881509A6874215B5AD218116812
:40074000284B0B40F82149010B431360244B1B687322995C703A8A40110070229A5C7220185C82400A43802109060A438021C900986842509A6852583F229A5C392A06D9BB
:4007800070229A5C03210A402549986842509A6874215B5AD218D168124B0B40C42189010B43D3600E4B1A687323D35C032004009C407023D35C7221515C1D008D40290084
:4007C000214303400B43802109060B438021C9009068435093685B5807B030BD0000264010080008FF00FFFF6C1E0010087F0000400D030004050000FEFCFFFFFFFF00FFCD
:40080000FFF0FFFFFF8FFFFF00002740FFFCFFFF0C050000080C0000140C0000180C0000E40C000070B58AB09621002000F052FF00F028FF002801D100F014FF012001F0E9
:400840009DF9324A516C324B0B40E82189010B435364536C1B0AFF2213403A2B07D12B4A516C2C4B0B40E82189010B435364FFF747FE0F22284B1A60284A294B1A6001ACC2
:40088000284D22002B00143343CB43C243CB43C243CB43C22100244800F008F922002B00383343CB43C243CB43C243CB43C221001E4800F0FBF822002B005C3323CB23C26E
:4008C00023CB23C223CB23C22100194800F0EEF8184D23002A0043CA43C343CA43C343CA43C32100144800F0E1F822002B00243323CB23C223CB23C223CB23C221000F4834
:4009000000F0D4F8FFF7E8FD0AB070BD00002740FF00FFFFFFC5FFDF0000674007010100000267406C1E0010000032408002324000033240EC1E0010800332408004324060
:40094000214B984230D00ED8402831D004D800281FD010282AD031E080282BD080235B00984229D02AE0194B984229D007D8A0231B0698420DD0164B984212D01EE0154B02
:4009800098420AD0144B984209D0144B984215D101E0002016E0124814E0124812E0124810E0A020C0030DE007480BE00F4809E00F4807E00F4805E0034803E00E4801E0AE
:4009C000A420C0037047C04606005200010000F0090000A0040000F0050000F0030000F0010052000200520003005200010050000200500005005200FF00520070B5124B1C
:400A00001A683123D35C002B04D1C421FF310F4800F01AFE0C4B1D682C00B423EB582A6A944663441B68002B0BDB094B1868FFF787FF6B6801229A6063689B68002BFBD16D
:400A400000E0044870BDC04610080008341F0010E80700080200500010B50D4B1861002805D002230370FD33437000234380094B1B6850229A5C002A08D051229B5C002B81
:400A800004D04F3A0449002000F0F8FA10BDC046E8070008100800086101000810B502481430FFF7D9FF10BDE807000870B505000C0000285DD000295DD0FF230A689A43FF
:400AC00003D099212D4800F0BFFDFF2322699A4303D09A21294800F0B7FDA3685B0D03D09B21264800F0B0FD63685B0A03D09C21224800F0A9FDE3695B0F03D09D211F48A0
:400B000000F0A2FD236A5B0F03D09E211B4800F09BFD1B4A11688B69EB1ADB0949691B01CB18216829607D211068415C6918E06808607E211068415C6918206908607F218A
:400B40001068415C6918606908607C211068415C6918A06808606168A961116880228A5CAD18A2692A60E2691A60226A5A60002002E0044800E0034870BDC046741F001083
:400B80001008000801005A0070B504000D000A4B1A68B423D3581B181B68002B0ADA0B0C03D00649064800F04FFD2D042D0C6560002000E0034870BD10080008D502000085
:400BC000F41F001001008A0070B505000C000368002B01DA002300E0084B002B0BD1EA60230C03D00649074800F02EFD2404240CAC60002000E0014870BDC04601008A00D3
:400C0000BB020000F41F001070B505000C1E03D19921084800F018FD074B1A68B423D3585B191B68002B03DAEB682360002000E0024870BD342000101008000801008A006C
:400C400070B504000D00234B1A683123D35C834236D9002936D00B68DB0635D13123D35C984204D3C421FF311B4800F0EDFC194B1B681A6AB0215B5A5C431419174E346033
:400C80002B68DA080021686801F0A2F800212000FFF77AFF3468002D03D111490E4800F0D3FC2A0000212000FFF78EFF00280DD10A4B18680021FFF767FF002808D108E058
:400CC000084806E0074804E0064802E0064800E0054870BD10080008F41F0010000800089303000003018A0001018A0010B50400002A17D1002915D1124B1A683123D35C64
:400D0000984204D3C421FF310F4800F09DFC0D4B1B681A6AB0215B5A5C4314190B4B1C6000200EE0002A09D0002909D0074B59609A60191D2000FFF783FF02E0044800E096
:400D4000034810BD10080008F41F00100008000803018A00F0B583B00D001C4B1B68DC68236883422DD947097B01C01A012383401E00002903D100F028FD019001E00023BF
:400D80000193124B18680368002B01DA002300E00F4B002B0ED16368BF00DF193B68334203D0B3433B60002400E00A4C0021FFF7EBFE00E0084C002D04D1019800F009FDCD
:400DC00000E0064C200003B0F0BDC0460008000801008A00020188000301880004018A000A4B1B68DA68136883420BD943095901401A0121814052689B009B580B4203D071
:400E0000034802E0034800E003487047000800080101880004018A0000018800034B1B68002B01D1014B18607047C0460C080008F0B5474680B404000F0090461E002D4B56
:400E40001B68002B03D1B5212B4800F0FDFB294B1B682C2060431C18FF22150035402560330A13406360360CA660244B1A683123D35C9D4204D3C421FF31214800F0E4FB63
:400E80001E4B1A68B023D35A6B43116A8C466344236166683223D35C9E4204D3E021FF31174800F0D1FB154B1B681D6A80367601AD196561A668330C04D0FF2149001048C7
:400EC00000F0C2FB330C03D00E490D4800F0BCFB3604330C1E43AE604346E36127620023A361069B002B02D000229B5EA38104BC9046F0BD0C08000874200010100800087B
:400F0000F41F0010FF010000F0B58FB0041E03D15221294800F098FB6368032B03D95421254800F091FBE36A002B03D15821224800F08AFB236B002B03D159211E4800F019
:400F400083FB07AA1300210061C961C321C921C302AD290023001433C1CBC1C141CB41C10821535E0CAE3380144B1B6836215B5E07998C466344B370089B0D930B9B0A9894
:400F80000096A26AE16AFFF753FF2B69E868002200920021FFF74CFF216B300000F0E6FA0023F25E002A05DB1F231A401E3B9340034A13600FB0F0BD742000101008000841
:400FC00000E100E0F8B505000F0016001C00002A03D1FD21224800F037FB224B1B68002B03D1FE211E4800F02FFB1E4B1B682C2128004843181879435918012213004D68D3
:40100000AB401B044568AA4015000269002A20D08F69002F1FD11268002A01DA002200E0114A002A19D132681204120C134333600369DE6001238B614C6204692B0C03D0D8
:401040000A490B4800F000FB2A04120CA260002004E0084802E0084800E00748F8BDC046742000100C08000801008A00BB020000F41F001004028A0007028A0070B50400AA
:401080000D0016000F4B1B68002B04D1AF2149000D4800F0D9FA0B4B1B682C2060431C18236A002B04D1B1214900074800F0CCFAE369B34204D9236AB6009D51002000E007
:4010C000024870BD0C080008742000100A028A0070B582B0040000230193002804D1D221FF312D4800F0B0FA2369002B04D1E9214900294800F0A8FA6369002B04D1D4213F
:40110000FF31254800F0A0FA236A002B04D1EA214900214800F098FA6269D5682B0C24D01B041360136820691C4B1A68B423D358C3181B68002B18DA01A9FFF765FD002863
:401140000ED1019803681E0CFF221340E269934207D29B00226AD358002B02D0984700E0002631002069FFF70FFD2D042D0C0FD063691D601B68636A002B03D09847002323
:40118000636203E0A36A002B00D098470023A36163691B6802B070BD742000101008000810B50400084B1B68002B04D1B221FF31064800F049FA044B1B682C206043181873
:4011C000FFF786FF10BDC0460C0800087420001010B50400094B1B689B6CC340DB0703D4BE21074800F030FA044B1B681B691034A402E3580F20184010BDC0461008000841
:40120000B4200010134B1A683C23D35C83421DD9042904D94B1EFF3B9BB2132B18D8FF290CD91F2319400C4A0300C0339B009950D03080000423835000200AE007231940FA
:40124000D0308000044BC150002002E0034800E002487047100800080000264001004A0070B5041E03D14A494A4800F0EDF9B023DB00494AD358002B00DA87E0474B226885
:401280009A4203D94649434800F0DEF923689B039B0BE279002A02D08022520400E000221343B022D2003C498B50A2883D4B9A4204D984218900374800F0C6F92289344B2A
:4012C0009A4203D93849334800F0BEF9A388DB04D90C23891B04354A13400B43344A2E498B50A37A0F2B04D986218900294800F0ABF9E37A0F2B03D92E49264800F0A4F99B
:40130000A289284B9A4203D92B49224800F09CF9A37A0F211940E27A1201FF2313400B43A289120225490A401343A27B1207C02189050A401343B122D20017498B50A3798E
:40134000042B03D91E49134800F07EF9228A104B9A4204D9892189000E4800F075F90E4818494558184B1D40A3791B02E022D20013402B4343504558144B1D40238A1B04F8
:401380000A4A13402B434350002000E0104870BDFF010000F420001000002640FFFF030009020000FF1F0000110200000000FF0184050000190200001A02000000FF1F005B
:4013C000230200008C050000FFF8FFFFFFFF00FE03004A0070B505003149324A8B588020000603438B502C0003E0012000F020F9013CB223DB002A4AD3585B0701D4002C07
:40140000F3D12749B122D2008858274B03408020800503438B50002D01D0002C0CD02049B022D2008B588020000603438B5003E0012000F0FDF8013CB223DB00184AD358D8
:40144000DB0701D4002CF3D1002D01D0002C08D01349B122D2008B58C020800503438B5013E00F4BB121C90058580F4A02408020800502435A5008395A58520052085A50C9
:4014800008495A58520052085A50002D03D0002C03D0002002E0002000E0044870BDC046000026408C050000FFFFFFCF02004A0070B505000C001A4B1B6828229A5C012ABB
:4014C00015D1820807211000884327D19200AD1AED00FF20A8401B6820339A181168AC4023004B40184004004C40146016E03A229B5EDBB2994203D176210A4800F0A4F841
:40150000074B1B681B68072215408022120615438022920194466444A400E55070BDC046100800087C21001070B504000D000B4B9A680B4B9A420CD1002904D13821FF310F
:40154000084800F081F81034054BA400E058E55003E01034A400044BE05870BD00ED00E0000000087C21001000000010F0B5474680B482B0061E01914AD04368032B03D9DF
:401580003221264800F060F80023F05E002804DBB178FFF78DFF002400E0214C0023F15E7368002912DB88081E4FC0308000C55903221140C900FC3290468A4095439A0120
:4015C000434613408B402B43C35116E089B20F220A40083A92080632920013481018476803221140C900FF252A008A4097439A012B0013408B403B4343600B4B9A680B4B5A
:401600009A4206D10023F05E0199FFF78DFF00E0034C200002B004BC9046F0BD7C2100100100560000E100E000ED00E00000000810B5034B1B78584300F0BEF810BDC046D2
:40164000D400000801BEFEE770B50D00044C18220100200000F0C4FBA5610020FFF7F2FF00060008054B802212069A649B6C002B01DB002000E002487047C04600002740BF
:4016800003004600054B8022120198585B68FF221A4202D08023DB021843704700002640FEE7C04610B50A4B0268DA6142681A6282685A62C2689A620269DA6242691A6377
:4016C00082695A63C2699A63FFF7EAFF10BDC04600060008F0B5474680B4002801D0192300E064238B429B415B42304D2C682268A826A45BA41822680327BA433B401A4365
:4017000022602C682268A45BA2181668284CA046264016602C682668AA229446A25A96193268BA43134333602A6813686546525BD3181A68444614401C60002805D0102947
:401740001BD921291BD8012024E0184B1B6855229A5C914215D956229A5C914213D957229A5C914211D958229A5C91420FD959229B5C99420DD804200CE000200AE002200D
:4017800008E0002006E0012004E0022002E0032000E00520054A1268526813680F218B430343136004BC9046F0BDC04610080008FFFCFFFF000000000230800803D0013035
:4017C0000238FCD1C046C0467047EFF3108072B6704780F31088704710B5B0235B059B899BB2002B04D0B0235B059B899BB201E080235B0080225200934215D1184C236883
:401800001968683A9B58C9180B680F208343963A13430B6021680C689C23CB58E318196881430A431A6019E00D4C2368196898229B58C918B02040050A4BC2580A4B1340BA
:401840000A681343C022920013430B60226811689C23D358CB18054A82581A6010BDC0461008000848180000FFFCFFFF4418000030B5B0235B059B899BB2002B04D0B023F5
:401880005B059B899BB201E080235B0080225200934215D1184C23681968683A9B58C9180B680F208343953A13430B6021680C689C23CB58E318196881430A431A6019E00C
:4018C0000D4D2B68196898229B58C918B0246405C12040012258094B13400A681343C022920013430B602A6811689C23D358CB1822581A6030BDC04610080008FFFCFFFF97
:40190000B0235B059B899BB2002B04D0B0235B059B899BB201E080235B008022520093420DD1104B1B681A6898215B58D21811680D4B0B40C021C9010B43136011E0094B57
:401940001B68196898229B58C918084BB0225205D258074B13400A681343C022920013430B60704710080008FF8FFFFF18180000FFFCFFFF30B5B0235B059B899BB2002B4D
:4019800004D0B0235B059B899BB201E080235B008022520093420DD1134B1B681A6898215B58D2181168114B0B408021C9010B43136018E00C4D2B68196898229B58C91831
:4019C000B02464050A4822580A4B13400A681343C022920013430B602A6811689C23D358CB1822581A6030BD10080008FF8FFFFF4C180000FFFCFFFF10B5B0235B059B895B
:401A00009BB2002B04D0B0235B059B899BB201E080235B0080225200934217D10020FFF7D7FBB0235B055B78002B04D0B0235B055B78DBB200E02123222B03D8002803D15E
:401A4000013004E0012002E0002000E0012010BDF8B50700012803D93D493E48FFF7F4FDB0235B055B78002B04D0B0235B055B78DBB200E021239DB2B0235B059B899BB205
:401A8000002B04D0B0235B059E89B6B201E0802676000020FFF79CFB002814D180235B009E4212D1222D12D82B4B1B685C682B4821582B4B19403B068022520413400B4362
:401AC0002350002404E0274C02E0264C00E0254C80235B009E4201D1222D03D880235B009E4232D01C4B1A683123D35C002B04D1C421FF311C48FFF7A7FD174B1B681D6AAE
:401B000080235B009E4203D1002F05D0174A06E0002F03D0164A02E0164A00E0164A01212800FFF751F800280FD10B4B1A68B423D3585B191B68002BF7DBEB681B0E1B06C8
:401B4000A0221206934200D100242000F8BDC0464C0A0000C02100101008000818F00000FFFFFFFE04004200341F0010010100300300000C010000300100000CF8B50500A2
:401B8000012804D9822109012948FFF75DFDFFF733FF002849D0FFF718FE0700002D11D10021244B244AD150E823DB00B0225205D65CF6B20120FFF74BFF041E19D1FFF7BB
:401BC0000BFE16E0B02252051C4BD0581A4B194958501B49565CF6B21A481A581F218A4314390A431A500320FFF722FDFFF7C2FE0024002C15D11049124A8B581F2083435B
:401C000006401E438E50002D02D1FFF779FE08E00720FFF70DFDFFF72BFE0020FFF718FF04003800FFF7D5FD00E0074C2000F8BDC0210010307F000000002640101800001D
:401C4000410700001CFF000003004200042805D10B4A116804230B4313600FE0094B1A681168A023D358CB180006C022920410401860034A136804218B4313607047C046C4
:401C800010E000E0100800080749C02252008B589B009B088020C00503438B508B588020000603438B50704700002640014B18607047C04610080008002243088B4274D320
:401CC00003098B425FD3030A8B4244D3030B8B4228D3030C8B420DD3FF22090212BA030C8B4202D31212090265D0030B8B4219D300E0090AC30B8B4201D3CB03C01A5241E5
:401D0000830B8B4201D38B03C01A5241430B8B4201D34B03C01A5241030B8B4201D30B03C01A5241C30A8B4201D3CB02C01A5241830A8B4201D38B02C01A5241430A8B42BB
:401D400001D34B02C01A5241030A8B4201D30B02C01A5241CDD2C3098B4201D3CB01C01A524183098B4201D38B01C01A524143098B4201D34B01C01A524103098B4201D3EF
:401D80000B01C01A5241C3088B4201D3CB00C01A524183088B4201D38B00C01A524143088B4201D34B00C01A5241411A00D20146524110467047FFE701B5002000F006F880
:401DC00002BDC0460029F7D076E770477047C04603008218934202D019700133FAE77047030030B5002A0DD00C7801335D1E013A2C700131002CF5D19A189A4202D01C70BB
:401E00000133FAE730BD0000F8B5C046F8BC08BC9E467047F8B5C046F8BC08BC9E4670470300000001000000010000000000000005036000040000000100000000000000A2
:401E4000010000000604600008000000C8070008B101001073797374656D5F70736F63365F636D30706C75732E630000F4010000140004010A000905080000006301000021
:401E800010000000000000000000000000000A000000000000000000000000000000000000000000030000000000000000000000680000000000000000000000000000009D
:401EC00012120000000000003800000000000000000000000020AABA0000000000000000000000000000000013131D1D020000000000000000000000200000000000000080
:401F00000000000000000000000000000000000022000000000000000000000060000000000000000000000000000000001200000004000047656E6572617465645F536F59
:401F4000757263655C50536F43365C70646C5C647269766572732F7065726970686572616C2F6970632F63795F6970635F6472762E68000047656E6572617465645F536F77
:401F8000757263655C50536F43365C70646C5C647269766572735C7065726970686572616C5C6770696F5C63795F6770696F2E630000000047656E6572617465645F536F7A
:401FC000757263655C50536F43365C70646C5C647269766572735C7065726970686572616C5C6770696F5C63795F6770696F2E680000000047656E6572617465645F536F35
:40200000757263655C50536F43365C70646C5C647269766572735C7065726970686572616C5C6970635C63795F6970635F6472762E68000047656E6572617465645F536F2F
:40204000757263655C50536F43365C70646C5C647269766572735C7065726970686572616C5C6970635C63795F6970635F6472762E63000047656E6572617465645F536FF4
:40208000757263655C50536F43365C70646C5C647269766572735C7065726970686572616C5C6970635C63795F6970635F706970652E630047656E6572617465645F536F52
:4020C000757263655C50536F43365C70646C5C647269766572735C7065726970686572616C5C70726F745C63795F70726F742E630000000047656E6572617465645F536F0D
:40210000757263655C50536F43365C70646C5C647269766572735C7065726970686572616C5C737973636C6B5C63795F737973636C6B2E630000000047656E6572617465A9
:40214000645F536F757263655C50536F43365C70646C5C647269766572735C7065726970686572616C5C737973636C6B5C63795F737973636C6B2E680000000047656E658B
:4021800072617465645F536F757263655C50536F43365C70646C5C647269766572735C7065726970686572616C5C737973696E745C63795F737973696E742E630000000001
:4021C00047656E6572617465645F536F757263655C50536F43365C70646C5C647269766572735C7065726970686572616C5C737973706D5C63795F737973706D2E6300001E
:402200000000204000002440000000400000000000002340000030400000314000009F40000022400000104002020202020202020210101D800017007500FF030602063624
:4022400004102000000000007FC0000000040000000000000019324B647D00804000080B100000000000FF012002001F00800004FF081018001000140018001C4044484C29
:4022800050000000081000000800000004000000041000000012000004210000002100000016000040114002C41300138013A013200000001C000000000021400000254063
:4022C000000001400000344000002440000031400000324000001F410000234000001140010101010101010101101010800019005500F0000501053B04101C01010000003F
:402300000FC000000004000001010101011D3A57789600082000101208000000001F00000010000F002000023F06080E00080009000A000B24282C303400000010000000EA
:402340009000000088000000080000008000000004F0000000F00000400200002005A000D00100018001A0012000000010000000000000000000001000000008C0000000D6
:4023800094230010C0000008400500003C060008D80100000048E80100127A0000093D0000093D0000093D0004000000A00F00000000D007E9000010C10000100000000043
:4023C00010B50004400B27D0144B1A68146AB023D15ACA00531AE3181B68002BF4DA3E220F4B1A600F4A104B1A60104B0621A322D20099500E4A98509B58084B1A68106AE1
:40240000B023D15ACA00531AC31800225A60084B064AD358002BFADA10BDC04610080008040126401E1F000008012640000026401C05000010B54378FF2B20D100F022FAAB
:4024400004000F4B1A683123D35C042B04D8C421FF310C4800F006FA094B1A68116AB023D35A9B00CB18DB685A68116801230B4313601368DB07FCD4200000F01BFA10BD44
:4024800010080008341F0010F0B585B001900291544B1A683123D35C002B04D1C421FF31514800F0DFF94F4B1B681E6AB4229A58971950229B5C002B77D000F0CBF90500D0
:4024C00003283CD1474B1A683123D35C062B04D8C421FF31444800F0C5F9424B1968B023CB5A5A00D21853000A6A94466344B4228A58D3181B68002B23DB002000F0BAF90D
:402500003A4B98421FD03A4B1A6900230021012000F0C8F9002803D0364C17E0013400E00024002000F0A6F9304B984202D0324B9C42F3D9304B9C4207D92E4C06E00024C8
:4025400004E02C4C02E02B4C00E00024002C46D100F098F90390294B294AD358002B13DA234A0121300000F0ADF900280ED10298FFF726FF019B002B0AD03B68002BFCDBCA
:4025800000F088F9040004E01A4C02E0194C00E01C4C032D05D10121002000F053F90028F9D1039800F086F919E000F06BF905000F4A0121300000F085F9002809D1019B44
:4025C000002B08D03B68002BFCDB00F063F9040002E0084C00E00B4C280000F06BF9200005B0F0BD10080008341F001001018800E807000805005200EF4902001C050000C2
:402600000000264001005000F0B54F464646C0B4824B1A685468B0235B055B78002B04D0B0235B055B78DBB200E02123212B67D1B023D15ACB005B1A116A8C4663441968AB
:402640000029F5DADD6802212943D960B023D15ACB005B1A116A8C466344D968C9073ED5D9680904090C8C4684271168D559A84641440968090A0904FF26360431400D0097
:4026800088261168894691598846C14449460968090A0906294365462943D9601168D359C9180A685E4B98461A4090252D012A430A605A4B99461A6813689C469259624402
:4026C0001368414619400B002B4313604B461A681568D15969180B689359EB181B684F4B1A68B021555AEB005B1B156AAC46634400255D60156A515ACA00531AEB185B6855
:40270000484A116904230B431361012801D030BF00E020BF414B1A68B023D15ACB005B1A116A8C46634419680029F3DAB02149054978002904D0B02149054978C9B200E02D
:402740002121212932D1D968C90722D510688421525880180468324A1440DB681B0C1B02FF2109020B40234303602C4B19688823C8580B689C46604403681A400D6AB02396
:40278000CC5AE1000B1BEB18DB681B0E1B021A430260224B1A68106AB023D15ACA00531AC318DA6802218A43DA6028E086235B00E358002B23D11C4807681C4BA321C9008F
:4027C0005E581B4A904615681A4A0260062058503E21424611600631174A9950164B134AD358002BFADA154A86235B00E2500E4B1F60A323DB000D4AD6500D4B1D60074B64
:402800001A68106AB023D15ACA00531AC31800225A600CBC90469946F0BDC04610080008FF00FFFF00ED00E00801264000002640040126401E1F00001C050000AAAAAAAA50
:402840000000000001B40248844601BC604700BF550D001001B40248844601BC604700BF3504001001B40248844601BC604700BF4916001001B40248844601BC604700BF7E
:40288000E10D001001B40248844601BC604700BFCB17001001B40248844601BC604700BFFD09001001B40248844601BC604700BFC50F001001B40248844601BC604700BF7E
:4028C000D317001001B40248844601BC604700BFC90B001000000000000000000000000000000000000000000000000000000000000000000000000000000000000000000E
:402900000000000000000000000000000000000000000000000000000000000000000000000000000000000000000000000000000000000000000000000000000000000097
:402940000000000000000000000000000000000000000000000000000000000000000000000000000000000000000000000000000000000000000000000000000000000057
:402980000000000000000000000000000000000000000000000000000000000000000000000000000000000000000000000000000000000000000000000000000000000017
:4029C00000000000000000000000000000000000000000000000000000000000000000000000000000000000000000000000000000000000000000000000000000000000D7
:020000041008E2
:4000000000780408EB0208100D00000051030810510308105103081051030810000000000000000000000000000000004D0308104D030810000000004D0308104D030810DA
:400040004D0308104D0308104D0308104D0308104D0308104D0308104D0308104D0308104D0308104D0308104D0308104D0308104D0308104D0308104D0308104D03081000
:400080004D0308104D0308104D0308104D0308104D0308104D0308104D0308104D0308104D0308104D0308104D0308104D0308104D0308104D0308104D0308104D030810C0
:4000C0004D0308104D0308104D0308104D0308104D0308104D0308104D0308104D0308104D0308104D0308104D0308104D0308104D0308104D0308104D0308104D03081080
:400100004D0308104D0308104D0308104D0308104D0308104D0308104D0308104D0308104D0308104D0308104D0308104D0308104D0308104D0308104D0308104D0308103F
:400140004D0308104D0308104D0308104D0308104D0308104D0308104D0308104D0308104D0308104D0308104D0308104D0308104D0308104D0308104D0308104D030810FF
:400180004D0308104D0308104D0308104D0308104D0308104D0308104D0308104D0308104D0308104D0308104D0308104D0308104D0308104D0308104D0308104D030810BF
:4001C0004D0308104D0308104D0308104D0308104D0308104D0308104D0308104D0308104D0308104D0308104D0308104D0308104D0308104D0308104D0308104D0308107F
:400200004D0308104D0308104D0308104D0308104D0308104D0308104D0308104D0308104D0308104D0308104D0308104D0308104D0308104D0308104D0308104D0308103E
:400240004D0308104D0308104D0308104D0308104D0308104D0308104D0308104D0308104D0308104D0308104D0308104D0308104D0308104D0308104D0308104D030810FE
:400280004D0308104D0308104D03081010B5054C237833B9044B13B10448AFF300800123237010BDA47502080000000018700810084B10B51BB108490848AFF300800848AA
:4002C000036803B910BD074B002BFBD0BDE81040184700BF00000000A87502081870081088460208000000007047FFF7FDFF72B6104C114DAC4209DA21686268A368043B17
:40030000A2BFC858D050FAE70C34F3E70B490C4A00209142BCBF41F8040BFAE709480A490860BFF34F8F00F0D3F900F0ADF900F0A3F8FEE704880A101C880A10A4750208FB
:400340009C8702080040020808ED00E0FEE7FEE700B504207146084202D0EFF3098001E0EFF30880043001F01DF9FEE708B544F20803984206D045F20E03984207D0B0F599
:40038000805F0ED10021084603F038FD08BD0B89122B06D10B681A78024B1A70C8681FF091FE08BDC075020808B506F0B9FF08BD43688360012B02D100234360704701236F
:4003C0004360704738B505460C46C06B08B1FFF7EFFF04EB44039C002C442046FFF7E8FFEC6338BD08B5002308E05A001A449100421843500021916051600133042BF4DD93
:400400000021FFF7DFFF08BD10B586B0124804F0BDFA01E006F084FF104B1B78022BF9D10F4803F005FA0F4C01940123ADF808301423ADF8143003AB01AA92E8030083E828
:400440000300184603F03CFEEA2323704FF47A7001F06CF8E7E700BF6D030810F4860208A9030810C075020872B60822014B5A60FEE700BF0003324000B591B004F04AFA91
:400480006846FFF7AFFF124A1249134802F0A0FB08B1FFF7E9FF1048036843F0004303600E4901F013FD0E490E4802F043FD08B1FFF7DAFF0B4A536943F0011343F48073D7
:4004C00053613E2001F04AF862B6FFF79DFF00BF18870208305E081000006640FC550810705E08100002264008B5012000F06AFE08BD00BF704700BF5C4AD2F8803303F05C
:400500000F0303F1D00152F8212002F00702032A04D0042A05D092B9554914E0554A116811E003F1C002514951F8222002F01F02112A06D0132A04D04FF4FA4103E04E496C
:4005400001E04FF400418BBB484BD3F8902502F00100D3F88825C2F30172D3F8883513F0405F07D0414BD3F88835C3F30173012B02D102E0012300E0002303B108B9032A41
:4005800046D13A48D0F88025C2F31103D0F88425C2F30C02D0F88005C0F300600130B1FBF2F202FB03F2B2FBF0F131E0012B2FD12E4BD3F8402602F00100D3F80026C2F317
:4005C0000172D3F8003613F0405F07D0274BD3F80036C3F30173012B02D102E0012300E0002303B108B9032A12D12048D0F8002602F07F02D0F80036C3F30423D0F8000672
:40060000C0F3044002FB01F2B2FBF3F2B2FBF0F1164BD3F88033C3F3011321FA03F215494A601648D0F89030C3F3072301330069000E0130B2FBF0F08860B2FBF3F3CB601D
:400640000B6103F5742202F23F220D48A0FB0202C2F387420A7503F2E7330A4AA2FB03239B098B61DB03CB61704700BF0000264000127A008C42020800366E010000214034
:4006800083DE1B43D34D621008B50D4801F0BCFBFFF730FFFFF730FF00221146042000F015FB084800F0ECFB074B1B6893F8513013B1064800F054FC00F0E8F808BD00BF9A
:4006C000F8590810D0750208EC8602082056081008B500F0C2FF074AD2F8883043F47003C2F88830BFF34F8FBFF36F8F00F0B9FF08BD00BF00ED00E0C0F30800B0FA80F0CD
:40070000400970471F4B98422DD00CD840282ED003D8E8B1102828D02FE0802829D0B0F5807F28D029E0184B984228D006D8B0F1204F0DD0154B984212D01EE0144B9842E2
:400740000AD00133984209D0023B984215D101E0002070470F4870470F4870470F4870474FF4A0007047074870470D4870470D4870470D487047034870470C4870474FF4C5
:40078000A400704706005200010000F0090000A0040000F0010052000200520003005200010050000200500005005200FF00520038B5124B1B6893F83130012B04D840F2BE
:4007C000C3110F4800F0D6FE0C4B1D682A6AB5F8B03013442C46D5F8B420D358002B0BDB084B1868FFF78EFF6B6801229A6063689B68002BFBD138BD034838BDEC860208AB
:400800007456081050770208020050001A4B186128B102230370FF23437000234380174B1B6893F850202AB300B583B0B3F93830ADF80030002301931149684600F03CFE32
:40084000BDF90030002B08DB590903F01F03012202FA03F30B4A42F82130084B1B6893F8513023B102220849012000F025FC03B05DF804FB704700BF50770208EC860208F1
:40088000F946020800E100E0B147020808B50248FFF7BCFF08BD00BF6477020838B505460C46FFF729FF002833D0002C33D0FFF723FE1A4B1A4A1A6000225A609D60DC609A
:4008C000184B1B6893F85220EAB11968D3F88430CA58CB58C3F30721120E531C01FB0333114901FB03F3114A12681149A1FB02218909B3FBF1F101F5195108314FF480706E
:4009000004F01EFE38BD00214FF4807004F018FE38BD084838BD074838BD00BF5077020800010005EC860208C0EA210190420208D34D62100600520008B5FFF739FF08BD82
:4009400010B50446FFF7D8FE00283AD0FFF7D4FD4FF0E0521C4B1A601C4B1B7813F0FF0F04D0194A136843F480731360164B5C6000229A60DA60164B1B6893F85420DAB116
:400980001968D3F88430CA58CB58C3F30721120E531C01FB03330F4901FB03F30E4A12680E49A1FB02218909B3FBF1F101F69801002004F0C5FD10BD0021084604F0C0FDAC
:4009C00010BD074810BD00BF507702080B000016EC86020860F5900090420208D34D62100600520038B505460C46FFF785FE00283DD0002C3DD0FFF77FFD4FF0C0621E4B89
:400A00001A601E4B1B7813F0FF0F04D01A4A136843F480731360184B4FF480725A609D60DC60174B1B6893F85320DAB11968D3F88430CA58CB58C3F30721120E531C01FB38
:400A40000333104901FB03F30F4A12680F49A1FB02218909B3FBF1F101F56171002004F06FFD38BD0021084604F06AFD38BD084838BD074838BD00BF507702080B000016B3
:400A8000EC860208808D5B0090420208D34D621006005200002861D0F8B5054600295FD00C460B6833F0FF0303D099212D4800F061FD236933F0FF0303D09A21294800F009
:400AC00059FDA3685B0D5B051BB19B21254800F051FD636823F4FF7323F001031BB19C21204800F047FDE36913F0604F03D09D211C4800F03FFD236A13F0604F03D09E211A
:400B0000184800F037FD184A11688B69EB1ADB0949691B01C81826682E60166896F87D60E768AF51166896F87E602769AF51166896F87F606769AF51166896F87C60A7684B
:400B4000AF516668AE61126892F88020A669AE50E269CA50236A43600020F8BD034870470248F8BDB4560810EC86020801005A0038B50B4B1B68D3F8B4301B58002B0DDA89
:400B80000D4604460B0C1B0423B140F2D521054800F0F0FCA9B26160002038BD024838BDEC8602083457081001008A0038B50368002B01DA002300E0094B73B90D460446A5
:400BC000C2600B0C1B0423B140F2BB21054800F0D1FCA9B2A160002038BD014838BD00BF01008A003457081038B504460D4619B99921084800F0BEFC074B1B68D3F8B43081
:400C00001B59002B03DAE3682B60002038BD034838BD00BF74570810EC86020801008A00254B1B6893F8313083423AD900293AD00B6813F01F0F38D170B50D4604461E4BA2
:400C40001B6893F83130984204D340F2C3111B4800F090FC184B1B68186AB3F8B03004FB0304174E34602A68D2080021686804F03DFC00212046FFF77BFF346825B940F250
:400C800093310E4800F076FC2A4600212046FFF78DFF60B900210A4B1868FFF769FF40B970BD084870470748704706487047064870BD054870BD00BFEC86020834570810C7
:400CC0006877020803018A0001018A0010B504461346B2B9A9B9124B1B6893F83130984204D340F2C3110F4800F044FC0C4B1B681A6AB3F8B03004FB03240B4B1C600020B1
:400D000010BD43B149B1084A51609360111D2046FFF786FF10BD054810BD044810BD00BFEC860208345708106877020803018A002DE9F0411B4B1B68DC68236883422CD9D5
:400D40000D464609A0EB4610012303FA00F819B900F083FC074600E00027124B18680368002B01DA002300E00F4B83B9626852F8263018EA030F05D148EA030342F826303F
:400D8000002400E0094C0021FFF7F2FE00E0084C25B9384600F065FC00E0064C2046BDE8F08100BF6877020801008A00020188000301880004018A002DE9F0411B4B1B683B
:400DC000DC68236883422CD90D464609A0EB4610012303FA00F819B900F03FFC074600E00027124B18680368002B01DA002300E00F4B83B9626852F8263018EA030F05D033
:400E000023EA080342F82630002400E0094C0021FFF7AEFE00E0084C25B9384600F021FC00E0064C2046BDE8F08100BF6877020801008A00020188000301880004018A00CA
:400E40000B4B1B68DB681A6882420CD94109A0EB4110012202FA00F05B6853F82130184203D004487047044870470448704700BF687702080101880004018A000001880017
:400E8000024B1B680BB9014B18607047747702082DE9F8430446884691461D46089F2C4B1B681BB9B5212B4800F064FB284B1B682C2000FB04F01C18EEB21E50C5F3072329
:400EC00063602D0CA560244B1B6893F831309E4204D340F2C311214800F04CFB1E4B1B68196AB3F8B02006FB02162661666893F832309E4204D340F2DF11184800F03AFB13
:400F0000154B1B681D6A803605EB46156561A668330C1B0423B14FF4FF71104800F02AFB330C1B0423B140F2FF110C4800F022FBB3B243EA0646AE60C4F81C90C4F820809B
:400F40000023A36117B1B7F90030A381BDE8F88374770208B4570810EC86020834570810F0B58FB0044618B95221274800F002FBA369072B03D95621234800F0FBFAE36A2B
:400F80001BB95821204800F0F5FA236B1BB959211D4800F0EFFA07AD04F114060FCE0FC537682F6002AD26460FCE0FC533682B60164B1B68B3F93620079B1344ADF830300B
:400FC000089B0D93A26AE16A0CAD00953B460A98FFF75EFF00210091069B0A460598FFF757FF216B284600F067FABDF93030002B08DB590903F01F03012202FA03F3044ABE
:4010000042F821300FB0F0BDB4570810EC86020800E100E0F8B506460F461D4614461AB9FD211F4800F0A6FA1E4B1B681BB9FE211B4800F09FFA1B4B1B682C2101FB063033
:4010400001FB07314B68012202FA03F31B04466802FA06F60269EAB18F69EFB91268002A01DA002200E0104AC2B92288134323600369DC6001238B614D620469330C1B04FE
:4010800023B140F2BB21094800F074FAB2B2A2600020F8BD0648F8BD0648F8BD0548F8BDB45708107477020801008A003457081004028A0007028A00F8B505460F4616464A
:4010C0000E4B1B6823B94FF4AF710D4800F052FA0A4B1B682C2404FB0534236A23B94FF4B171074800F046FAE369B34204D9236A43F826700020F8BD0248F8BD7477020852
:40110000B45708100A028A0070B582B000230193044620B940F2D111284800F02BFA236923B94FF4E971254800F024FA636923B940F2D311214800F01DFA236A23B94FF4D2
:40114000EA711E4800F016FA6369DD682A0C20D012041A601B682069194B1B68D3F8B430C358002B15DA01A9FFF73EFD60B9019803681E0CDBB2E269934206D2226A52F893
:40118000233013B1984700E0002631462069FFF7EFFCADB275B16369ADB21D601B68636A1BB198470023636202E0A36A03B198470023A36163691B6802B070BDB457081048
:4011C000EC86020810B50446074B1B6823B940F2B111064800F0CEF9034B1B682C2000FB0430FFF791FF10BD74770208B457081010B50446094B1B689B6CC34013F0010F00
:4012000003D1BE21064800F0B5F9044B1B681B691034A402185900F00F0010BDEC860208F457081010B504460D4B1B6893F83C30834204D84FF491710A4800F09BF904F121
:40124000D003094A52F8230000F00700042806D1C03452F8240000F01F0040F4807010BDEC8602083458081000002640B0F5C26F80F09B80B2F5C26F80F09980B1F1807F96
:4012800080F09780F0B401244C4B1C70FF2805D800F00F000F26374607231DE0B0F5A06F05D200F00F030F260027384614E0C0F30325B0F5C06F07D20001C4B245EA04034F
:4012C000FF260027384607E0030203F470632B4340F60F7600273846FF2A09D81201D2B2104343F4E02347F0F00746F4702620E0B2F5A06F06D2120402F47022134346F4B8
:40130000702616E0140A240404F470241C43B2F5C06F06D2130503F47003234346F47F0607E0120602F07063234346F0706646F47026234A1268156AB2F8B020C2EBC20244
:40134000AA58002AF5DA1D4A527822B11D4AD2F81C25002A1DDA41F61F741B4A146043F63D54043A1460A2F58272D2F8184524EA07073843C2F81805D2F8140520EA0606A3
:401380003343C2F814350D4B5960C2F81C15002000E00E480A4B1A68116AB2F8B030C3EBC3030B4400225A6005E0084870470748704706487047F0BC704700BF78770208D5
:4013C000EC860208000026400801264001004A0070B505460022214B1A70214B1B681A6AB3F8B030C3EBC303D418D358002BF4DA1C4B1A6841F61F739A4207D11A4B1A68FA
:4014000043F63D539A4203D0002602E0002600E00126164BD3F8202522F07F4000226260D6B1D0B165B90D4B5E684408002502460023E1FB06452046294603F0B1FE70BDEE
:40144000064B5A68540800250023E1FB00452046294603F0A5FE70BD002070BD78770208EC86020808012640040126400000264038B50D4B9A680D4B9A420FD10D46044602
:4014800021B940F237110A4800F074F804F11003064A52F8230042F8235038BD1030054B53F8200038BD00BF00ED00E000400208BC5808100000081048B338B504460D4634
:4014C0004368072B03D93221134800F053F8B4F900306268002B08DB5201D2B203F1604303F5614383F8002305E003F00F035201D2B20A49CA540A4B9A680A4B9A4208D15A
:401500002946B4F90000FFF7B3FF002038BD06487047002038BD00BFBC58081014ED00E000ED00E0004002080100560010B5044605E0084B186800F087F8A4F50044B4F5C2
:40154000004FF6D8044B186800FB04F000F07CF810BD00BFA8420208A442020808B5034B1B7800FB03F000F06FF808BDA042020801BEFEE738B50D46044C1822014620460D
:4015800003F0BCFFA5610020FFF7F2FF284C0208024B1B685B6801229A607047EC860208FEE700BF08B50268254BDA6142681A6282685A62C2689A620269DA6242691A63D8
:4015C00082695A63C2699A631E4A916AD963D16A1964516A5964516B9964926BDA64F1EE103A13F0900F27D0026A154B1A65426A5A65826A9A65C26ADA65026B1A66426BF0
:401600005A66826B9A66C26BDA66026C1A67426C5A67826C9A67C26CDA67026DC3F88020426DC3F88420826DC3F88820C26DC3F88C20026EC3F89020FFF7B2FF08BD00BF0E
:40164000284C020800ED00E00230800803D001300238FCD100BF00BF7047EFF3108072B6704780F3108870474FF0B0539B899BB223B14FF0B0539B899BB201E04FF48073C1
:40168000B3F5807F15D1174A13681868D3F89810435823F00F0343F00203435013681968D3F89C208B5823F00F0343F002038B50704710B40B490B681C68D3F898000A4B27
:4016C0001B6823F440732258134343F4407323500B681A68D3F89C3004490968D1505DF8044B7047EC86020848180016441800164FF0B0539B899BB223B14FF0B0539B8959
:401700009BB201E04FF48073B3F5807F15D1164A13681868D3F89810435823F00F0343F00303435013681968D3F89C208B5823F00F0343F003038B50704730B40A48036867
:401740001D68D3F8984009490B6823F440732A59134343F440732B5103681A68D3F89C300968D15030BC7047EC860208201800164FF0B0539B899BB223B14FF0B0539B8903
:401780009BB201E04FF48073B3F5807F0BD10D4B1B681968D3F898208B5823F4E04343F4C0438B507047074B1B681868D3F89810054B1B6823F440734258134343F440733B
:4017C00043507047EC860208181800164FF0B0539B899BB223B14FF0B0539B899BB201E04FF48073B3F5807F0BD1114B1B681968D3F898208B5823F4E04343F480438B5034
:40180000704730B40A4803681D68D3F8984009490B6823F440732A59134343F440732B5103681A68D3F89C300968D15030BC7047EC8602084C18001608B54FF0B0539B8988
:401840009BB223B14FF0B0539B899BB201E04FF48073B3F5807F17D10E20FFF7C9FC4FF0B0535B7813F0FF0F04D04FF0B0535B78DBB200E02123222B02D818B9012008BD67
:40188000012008BD002008BD012008BD10B50446012804D940F262710F48FFF76BFE1CB90E4B5869C00F00E000200D4B1B6893F844307BB1012C0DD1084B9B6913F0804FAF
:4018C00005D1064B9B69002B03DA012010BD012010BD002010BD00BF0059081000002640EC86020838B5154B1B6893F8443023B30D460446072804D940F2CC711048FFF7CF
:4019000039FE0E4B1B6893F8443023B10D4B9B6903F0070300E00023DBB29C420DD00948826922F0070104F007020A43826125B19C4202D9C820FFF711FE38BDEC860208AD
:40194000005908100000264010B30246C3680BB303680BB330B40579114B03EB85035C682346002103E0934205D019465B69002BF9D1012000E0002080B124B9084B03EBDC
:4019800085056A6000E04A6111610023536105E000207047002070470020704730BC70478477020850B310B402460479164B03EB840359680B4602E0934204D05B69002BFF
:4019C000FAD1002000E00120D0B18A420ED14B6933B10D4A02EB8404636000221A610FE0094B03EB84040023636009E01A69596951615A6922B11B69136101E00020704746
:401A00005DF8044B704700BF8477020830B583B004460D46022808D9042806D0032804D040F6B2112848FFF7A5FD6B1EDBB2012B08D9042D06D0082D04D040F6B31122482E
:401A4000FFF798FD214800EB84004468042D12D0012D1AD111E0A3681D420AD1E3681A6800925B6801932368294668469847174B9C61646902E0002000E0002014B3144B64
:401A80009842E8D1012DE6D11CE0022D01D104E01C466369002BFBD103E00C4B9C6904B1246900200CE0A3681D4208D1E3681A6800925B680193236829466846984724690E
:401AC000002CF0D103B030BD0059081084770208FF00420070B50546012804D94FF4E0711D48FFF747FD1D4B5B682BB101210020FFF78CFF044600E000242CBBFFF7ADFD5A
:401B00000646164B5B681BB104210020FFF77EFF134A136923F004031361012D01D030BF07E020BF0D4B1B7803B120BF01220B4B1A703046FFF795FD084B5B684BB10821DC
:401B40000020FFF763FF04E002210020FFF75EFF044C204670BD00BF005908108477020800ED00E0FF00420008B5FFF776FD074B5A6807490A4042F468525A605A681140BC
:401B800059605B68FFF76DFD08BD00BF00002640FF00FC0FF8B50546012804D940F64C213948FFF7E7FC4FF0B0535B7813F0FF0F04D04FF0B0535B78DBB200E021239CB24C
:401BC0004FF0B0539B899BB223B14FF0B0539F89BFB201E04FF480770E20FFF709FB98B9B7F5807F12D1222C12D8284B1B6858684FF21801435823F080722B0603F0807362
:401C000013434350002604E0214E02E0204E00E01F4EB7F5807F01D1222C02D8B7F5807F2FD01A4B1B6893F83130012B04D840F2C3111848FFF79EFC144B1B681C6AB3F871
:401C4000B0301C44B7F5807F02D125B1124A05E01DB1124A02E0124A00E0124A01212046FEF7A4FF68B9094B1B68D3F8B4301B59002BF8DBE36803F07F43B3F1204F00D1CE
:401C800000263046F8BD00BF00590810EC8602080400420074560810010100300300000C010000300100000C70B50446022806D0052804D040F202711E48FFF75BFCFFF7C2
:401CC000BBFDA0B3FFF7C9FC0646022C07D10120FFF760FF054678B9FFF7C6FC0CE0164A536923F0070343F0030353613420FFF735FCFFF76BFD0025ADB90F494B6923F08D
:401D0000070204F0070313434B61022C02D1FFF72FFD08E09120FFF721FCFFF7E9FC0020FFF738FF05463046FFF79BFC00E0034D284670BD0059081000002640030042006E
:401D4000F8B50446012804D94FF402612A48FFF711FCFFF771FD00284AD0FFF77EFC07468CB9002147F63073244AD1504FF0B05393F84067F6B20120FFF70CFF0546D8B9F9
:401D8000FFF772FC18E01E4B19681C4A47F63073D1504FF0B05393F84167F6B24FF61C71535823F01F0343F00B0353500320FFF7D5FBFFF70BFD0025B5B910494FF61C721D
:401DC0008B5823F01F0306F01F061E438E5014B9FFF7CEFC08E00720FFF7C0FBFFF788FC0020FFF7D7FE05463846FFF73AFC00E0044D2846F8BD00BF0059081000002640E0
:401E00001018001603004200014B1860704700BFEC86020810B4D0F8003303F00F03072B06D900230DE0D0F84043CC54013300E000239342F7D306E0D0F8404321F81340A6
:401E400001339342F8D35DF8044B704710B51446D0F80833C3F308039A4200D31C462246FFF7D8FF204610BD10B4D0F8003203F00F03072B06D900230DE0CC5CC0F8404291
:401E8000013300E000239342F7D306E031F81340C0F8404201339342F8D35DF8044B704710B51446036813F4006F01D0802200E04022D0F80832C3F30803D31AA34200D85F
:401EC0001C462246FFF7D0FF204610BD30B4036813F4006F01D0802200E04022002408E0D0F80832C3F308039A42F9D0C0F8405201340D5D002DF3D130BC704702E0C0F81B
:401F00004012013A002AFAD1704700BF10B51446036813F4006F01D0802200E04022D0F80832C3F30803D31AA34200D81C462246FFF7E4FF204610BD10B54A6841F2010303
:401F40009A4231D1D0F80833C3F30803B3B10B6A43F040030B620B7873B1D0F8043343F48033C0F80433D0F8043323F48033C0F80433D0F8043301E0D0F840330B6A43F009
:401F800020030B620B6A23F010030B62036E23F4204303660023C0F8C83F0123C0F8C03FD0F8C03F202221E0D0F80832C3F30802D0F80832C3F3C03313440A6BD21A4A639C
:401FC0000A6A12F0080F05D1CA6A1A44CA628A6AD31A8B620B6A43F004030B620B6A23F001030B620023C0F8883F1022D0F84C4F40F201131C420DD0036823F00043036001
:4020000000238366C366036843F000430360036842F040024FF080534B604B6C0BB11046984710BDD0F80C3F13F0020F1DD00222C0F8002FD0F8002FD0F8002F12F0040FF4
:4020400002D04FF4001001E04FF480108A6802438A604A68B2F5B81F07D00A7B12B14FF4C01201E04FF4B0124A6013F4807F03D08A6842F400028A6013F0010F03D08A68AD
:4020800042F480028A6040F21112134202D04FF4C0134B60704700BF0023C0F8C83FC0F8883F836E23B140F21713C0F8083F704740F21313C0F8083F182383664FF4B8130A
:4020C0004B60704738B5D0F80C4F036E23F4807303660023C0F8C83FC0F8883FC0F8083F40F21713C0F8003FD0F8003F8B6823F480338B604B7B13B18B69CB610BE08D699D
:40210000D0F80822C2F30802D0F80832C3F3C0331344EB1ACB6140F201131C421BD0036E9B0F032B05D114F4827F14BF0123002300E001235BB1036823F000430360002393
:402140008366C366036843F00043036003684FF080534B601BE00B7893B1D0F8043343F48033C0F80433D0F8043323F48033C0F80433D0F804330123C0F8C03FD0F8C03FEE
:402180000B7B0BB10B4B01E04FF080534B604A6C72B14B7B13B14FF4802001E04FF400308B6813F0F87301D04FF400231843904738BD00BF0000101070B505460C4691F866
:4021C000243013F0FF0F0ED1CB6A63B94B6C0BB108209847E36AB3FA83F35B0984F824300123C5F8883F94F8243013F0FF0F16D063783BB12B6813F4006F01D0802202E088
:40220000402200E00122FF212846FFF77FFE236B18442063236A43F00803236270BDE26A012A11D963780BB1013A00E00122A16A2846FFF735FE236B03442363E36A1B1A99
:40224000E362A36A1844A062D5F80832C3F30803802B23D0E36A012B20D1FFF7FEF9A36A1B78C5F840324026C5F8806FD5F8803FFFF7F7F9236B013323630023E362A36AE1
:402280000133A362C5F8886F63783BB1236A43F002032362636C0BB10420984770BD00BF38B54B68B3F5A81F03D14FF4C0134B6038BD4B68B3F5A01F4DD10C4605464A6985
:4022C000012A11D94B780BB1013A00E0012221692846FFF7E5FDA3690344A36163691B1A6361236903442361D5F80832C3F30803802B14D06369012B11D1FFF7AEF923696F
:402300001B78C5F840324023C5F8803FD5F8803FFFF7A7F9A3690133A361002363616369CBB9237B33B14023C5F8883F4FF4A813636005E00023C5F8883F4FF4B0136360E0
:40234000637843B1A36843F40033A360636C13B14FF48030984738BD70B504460D468A6C82B3036813F4803F06D0D0F84C3F13F0400F03D0022002E0002000E00020236E9B
:4023800013F4006F06D1D4F84C3F13F0800300D001231843C0B190470123C4F8C03FD4F8C03F024648B91023C4F8403FD4F8403F40F2D113C4F8483F07E040F2C113C4F8AE
:4023C000483F02E0002200E00022D4F8043243F48033C4F80432D4F8043223F48033C4F80432D4F804320AB9012300E00223E366002A59D1666E06F010066B6C23B10EB1DF
:40240000012000E0022098477EB141F202036B602B6A43F001032B626B6B2B63002385F824300123C4F8883F70BD41F201036B602B6A43F010032B620123C4F8C83F2B78EF
:40244000BBB1EB6BBBB1236E43F400532366ED6B802D05D9A5F18003802B0ED8813D0DE0013D236E43F4004323660023C4F8C83F04E0002502E0002500E03F25236813F4B4
:40248000006F01D0802300E040239D4204D34FF420710648FFF76EF8D4F8043323F0FF03EDB21D43C4F8045370BD00BFB05A081038B54B68B3F5881F03D0B3F5901F1AD087
:4024C00038BD0B69D0F840231A708B6901338B614B69013B4B612BB10B6901330B610423836638BD0B7B13B14FF4C01301E04FF4B0134B6038BD0C4605464A690969FFF77A
:40250000A5FCA3690344A36163691B1A6361226910442061012B24D82B6E23F480732B666369012B16D12B6813F4006F01D0802300E0402323B94FF420711848FFF71AF86B
:40254000D5F8043323F0FF03C5F804334FF48813636038BD0023C5F8C83F4FF4B013636038BD402B01D89C1E00E03F242B6813F4006F01D0802300E040239C4204D34FF41A
:4025800020710648FEF7F6FFD5F8043323F0FF02E3B21343C5F8043338BD00BFB05A081038B5CB6B002B50D00B78002B3FD00C460546D0F80423D2B20132896BFFF746FCEB
:4025C000236C03442364E36B1B1AE363A26B1044A063802B06D9A3F18002802A0FD8A3F181040DE02B6E43F400432B66E36B0BB15C1E00E000240023C5F8C83F00E03F24C4
:402600002B6813F4006F01D0802300E040239C4204D34FF420711048FEF7ACFFD5F8043323F0FF02E3B21343C5F8043338BD0123C3668A6B0B6CD0F84003D0540B6C0133DA
:402640000B64CB6B013BCB6338BD0223C3660023C0F8C83F38BD00BFB05A0810F8B50B78012B03D00C7A1CB9002702E0002700E00127002800F0A780002900F0A680002AE6
:4026800000F0A58016460C460546013BDBB2022B03D94F214F48FEF76DFF637803B163791BB150214B48FEF765FF94F90330002B03DA51214748FEF75DFF237913F0010F75
:4026C00003D052214348FEF755FF2369102B03D953214048FEF74EFFE368102B03D954213C48FEF747FF637913B14FF4803100E00021E27912B14FF4807300E000230B430F
:4027000043F400632B60A37913B94FF4006300E000232269013A02F00F021A43E368013B1B01DBB21343227843EA82732B6617B140F2073301E040F20713C5F800330FB1D9
:40274000254B00E0254B2B6763780BB17F2300E00023C5F80433E3785B00DBB2227943EA0243C5F810331E4BC5F80032A3780BB1402300E00123C5F804320023C5F8C83E18
:40278000C5F8883EC5F8C83FC5F8883FC5F8083F2378022B02D040F2D11300E00023C5F8483F63783370A37873704FF0805373600020B060B06130623064F0633063F06253
:4027C0007064B064F8BD0748F8BD0648F8BD0548F8BD00BFF45A081003002A0013102A00070101000120AA0038B505460C4621B940F2C3211948FEF7BDFE2B6E9B0F012BC6
:4028000017D1174B2344174A93421ED9A4F5BD13A3F5D66302F5611202F56162934216D9A4F57104A4F533440F4B9C4211D80F4838BD84B1286EC0F303102B6E03F00F03DE
:4028400018440230B4FBF0F038BD094838BD094838BD002038BD002038BD00BFF45A081020AD88FF405B730040555C0440420F00801A0600A08601002DE9F8430746884650
:40288000914622B940F212216248FEF773FE08F1FF34614B9C4204D940F213215D48FEF769FE3B6E9B0F012B0DD149463846FFF79BFF0546D7F8003323F40073C7F8003334
:4028C000564B3B67A2E0544B9C421FD8544B984509D8A9F5BD13A3F5D663524A934218D90021012328E0504B984507D84F4B4B444F4A934213D9002101231DE04D4B4B4411
:402900004D4A934212D90021012315E00021012312E0002141F288352E460B460CE000214FF461754FF4C8660B4605E001214FF4BE754FF41B760023002B66D13F4BB3FB03
:40294000F9F3B6FBF3F404FB03F2964200D90134102C00D910240F2C8CBF00220122B5FBF3F606FB03F39D4200D90136102E00D91026A519B9FBF5F50FE022B10F2C09D8DF
:402980000134002206E00F2E04D801360F2C8CBF00220122A519B9FBF5F5454502D9A3191F2BEAD941B1D7F8003343F40073C7F80033234B3B6707E0D7F8003323F4007322
:4029C000C7F80033154B3B67E31F092B04D940F283511C48FEF7CEFD3B6E23F0F003013C2401E4B223433B66731F0B2B04D94FF4B4611448FEF7BEFD3B6E23F00F03013EE2
:402A000006F00F061E433E6600E000252846BDE8F88300BFF45A08103F420F0013102A00A0860100502D1900801A060020AD88FFA0432100807E25FFC02BAF0000CA9A3BE1
:402A400003002A00345B081070B504460E46D0F88C3E13F0010F07D04FF480534B600123C0F8803ED0F8803ED4F84C5F40F201131D420FD0336A15F4807F02D04FF48072BB
:402A800000E08022134333620023C4F8C83F45F010050EE015F0100F0BD0D4F80833C3F3080333B1F36B23B10123C4F8C43FC4F8C83FD4F8CC3F13F0010F08D03146204669
:402AC000FFF76EFD0123C4F8C03FD4F8C03F15F0100F0AD031462046FFF72EFA1023C4F8403FD4F8403FD4F84C5F15F0C00F0DD031462046FFF730FC0123C4F8803ED4F888
:402B0000803EC023C4F8403FD4F8403FD4F88C3F13F0410F08D031462046FFF74DFB0123C4F8803FD4F8803F70BD00BF70B506460D46D0F8004E14F0020F0AD0836E2BB1E5
:402B4000002383668B6843F080738B604FF4C0136B6014F0010F05D029463046FFF762FA24F0040414F0080F08D029463046FFF79FFC0123C6F8C03FD6F8C03F14F0040FFA
:402B800008D029463046FFF78BFB0123C6F8803FD6F8803F6B68B3F5C01F03D129463046FFF790FA6B68B3F5B01F03D129463046FFF772FA70BD00BF08B54B6813F4801FB4
:402BC00002D0FFF7B3FF08BDFFF73EFF08BD00BF002800F0A48170B50546002900F0A18116460C460B78022B03D93F21A248FEF7C1FC637B023BDBB2062B03D940219E48C5
:402C0000FEF7B8FCA37B3BB1022B05D0032B03D041219948FEF7AEFC94F82130012B03D942219548FEF7A6FC94F82830012B03D943219148FEF79EFC2378012B06D8636818
:402C4000083B082B94BF0023012307E0A37F2BB16368013B062B94BF002301231BB145218548FEF787FCA368053B042B03D946218148FEF77FFC6369FF2B03D947217E4820
:402C8000FEF778FCA369FF2B03D948217A48FEF771FCA37C6BB1237833B9A368092B05D1A37B2BB1012304E0012302E0012300E000231BB14A217048FEF75CFC636B23F4E5
:402CC000366323F00D031BB14C216B48FEF752FCE36B23F4EE6323F003031BB14D216648FEF748FC2378022B01D1A37F13B16268013A00E00022237F13B14FF4803100E038
:402D00000021A368082B02D84FF4006300E000230B4302F00F02134343F000732B60226B2B6813F4006F01D0802300E040239A4203D362215048FEF71DFCA26B2B6813F40A
:402D4000006F01D0802300E040239A4203D363214948FEF70FFC626A2B6813F4006F01D0802300E040239A4203D364214248FEF701FC23781B0603F040732B64637F0BB198
:402D8000402200E00022A37C13B14FF4806300E000231343227C12B14FF4807200E000221343627C12B14FF4007200E000221A43E36A013B1B0403F470231343627B013A0A
:402DC00002F007021343A27B120102F030021343AB64237B13B14FF4807200E00022E37B23B92378022B03D1012302E0012300E0002313B14FF4007300E000231A43A36848
:402E0000013B03F00F031343C5F80033227DA3691B0403F47F031343C5F81033E26AD5F8003303F00F0303339A4201D3102A03D97A211148FEF79EFBE37F23B12378012BA6
:402E400003D0002302E0002300E0012313B14FF4807200E00022637B013B03F007031A43A37B1B0103F0300313436B64237B2BB14FF4807203E000BFB45B08100022A368BA
:402E8000013B03F00F0313432278012A02D14FF4803200E000221343C5F8003294F83030C5F8043394F8203013B14FF0007200E0002294F82130012B02D14FF0807300E086
:402EC0000023134394F82820012A02D14FF4803200E00022134394F8242013432B6594F83830C5F80432636B23F4926323F002031B051B0DC5F8C83FE36B23F08C035B054F
:402F00005B0DC5F8883F76B1002070603060B060F0603062F0623063044B736370BD04487047034870BD002070BD00BFEFCDAB000160AA00002867D038B50546002965D0E7
:402F40000B7A1BB10B88B3FA83F35B090C461BB131212F48FEF70EFB637A1BB16388B3FA83F35B091BB132212948FEF703FBA3791F2B03D933212648FEF7FCFA2379032BAA
:402F800003D934212248FEF7F5FA6379032B03D935211F48FEF7EEFAE379032B03D936211B48FEF7E7FA6288238843EA0243EB60A3791B0603F0F851E279130403F4803335
:402FC0000B43227A920002F004021343627A920202F480621343E27A12B14FF4006200E0002213436279120202F440721343A27A0AB1082200E000221343227902F0030275
:4030000013432B61002038BD02487047014838BDF45B08100100D60038B50D4640F4004000040E4BD8614FF47A7403E0013C0120FEF794FA094B1B6C13F0010F01D1002CF1
:40304000F4D144B1054B1A6C42F001021A64DB6A2B80002038BD024838BD00BF00003C400400160010B50F4B03EA004001430E4AD1614FF47A7403E0013C0120FEF76EFA8B
:40308000094B1B6C13F0010F01D1002CF4D134B1054A136C43F001031364002010BD034810BD00BF0000FF7F00003C400400160070B582B005460A244FF4C05141F6026069
:4030C000FFF7D0FF034630B90DF1060141F60260FFF7A2FF03460CB1013C00E0714B23B9BDF80620B2F5C05FE6D13BBB0DF1060141F60360FFF790FF0346F8B9BDF80620A2
:4031000002F4806292B2CAB90A244FF4806141F60360FFF7A7FF034630B90DF1060141F60360FFF779FF03460CB1013C00E05D4B23B9BDF80620B2F5806FE6D133B90DF170
:40314000060141F60960FFF767FF0346002B43D1BDF8063023F03F039BB2AA78012A12D1E978012904D88EB2C6F1020294B201E00024022643F07003ADF806304A4BCB4011
:403180004A4A136012E0E97821B98EB2C6F1010294B201E00024012623F0400343F01003ADF80630424BCB40404A1360BDF80610314389B2ADF8061041F60960FFF752FF47
:4031C0000346EA78961B06F00306A20092B23243ADF8062037494A664FF0B052527812F0FF0F04D04FF0B0525278D2B200E02122212A53D0304A128892B2002A4ED033B983
:403200000DF1060141F60760FFF706FF034643BBBDF8063023F060039BB2ADF8063026490A88C2F3811243EA421323F428639AB2ADF806200B889BB2DB0103F4F063134340
:4032400023F4C0539BB2ADF806300988C1F3012143EAC121ADF8061041F60760FFF702FF034633B90DF1060141F60660FFF7D4FE03469BB9BDF8061021F0C0018BB2ADF87B
:4032800006300D4A1188C1F3011143EA8111ADF8061041F60660FFF7E5FE0346184602B070BD00BF040016000048E8018C4202080024F40000F03D401618001638B50D46C1
:4032C00041F2010141EA400141F60860FFF7CAFE044630B946F6370141F60F60FFF7C2FE04466801FEF73AF9204638BD024A136F43F010031367704700F03D4070B59CB074
:40330000134C13AD26460FCE0FC50FCE0FC533682B600AAD04F124060FCE0FC50FCE0FC533682B6001AD48340FCC0FC50FCC0FC523682B6013A90748FDF7ACFB0AA90648D7
:40334000FDF7A8FB01A90548FDF7A4FB1CB070BD345C0810000132408001324000023240F8B5002800F0E7800546774B5B6813F4003F01D0FEF7F8FB744C03E0013C0120B5
:40338000FEF7ECF8724BDB6E0BB1002CF6D1704BD3F8A03013F0010F06D06D4BD3F8B43013F0010F40F0C980694BDB6E002B40F0C680FFF7A3FF674901F5F833664AC3F8DB
:4033C000A4202A7842F42022C3F8A8204FF00112C3F8AC20D1F8003113F0010F40F0B1805B4B1B6F13F0080F0AD15C4B1B685C4A934207D95B4AA2FB03231B0D013B02E0CD
:40340000012300E00023534A12681BB1564941EA433300E0554B13434E4A13604A4B5B6913F0804F13D001210320FEF75BFA464B5B69C3F380734E4A126892F844206AB1AB
:4034400063B1414A936943F08043936106E0404AD2F8C43043F00303C2F8C4303C4CD4F8A07047F4403343F03003C4F8A0304020FEF774F8D4F8B03013F0010F0BD101232E
:40348000C4F8B0304020FEF769F80323C4F8B0304020FEF763F827F4803727F0100747F4003646F020062A4BC3F8A0604FF4FA6403E0013C0120FEF751F844F210032D4A6B
:4034C000D35813F0100F01D1002CF2D10CB1002400E0294C1CBB1E4A936E43F0080393660120FEF7D3F918B947F4003646F0280626F4802343F00103154AC2F8A030134E4B
:4035000003E0013E0120FEF729F8114BD3F8B43013F0010F01D1002EF3D106B9164C1CB92846FFF7C5FD044664B929786878FFF7C5FE044606E0114C04E0114C02E0104C87
:4035400000E0104C2046F8BD00002640F07E0E0000F03D4000003C40060000019442020800093D0083DE1B43041A0080040A0080EC860208000032400400160001001600F2
:403580000300160002001600014B1868704700BF8C42020810B5002405E02046FDF742FE032804D00134042CF7D9002010BD012010BD00BF074BD3F8003503F00303012B13
:4035C00003D0032B03D101207047012070470020704700BF0000264038B5012902D0082942D047E0284B1B78012B45D00320FDF727FC264B984241D0FFF7CCFF01283FD021
:40360000022003F08FFE0546FEF727F8204B186003F094FE0446062815D0022D09D1022005F04AFD032C01D0052C0ED178B1194C12E0012005F040FD022C0AD058B9FEF76C
:4036400049FA144C08E0002406E0124C04E0002402E0104C00E00F4C0E4B9C4211D10C4B1868FDF7FEFF0CE0094B1868FDF7F9FF002406E0074C04E0064C02E0054C00E0A3
:40368000044C204638BD00BFF486020801018800C0770208FF00420008B50248FEF782F908BD00BFAC420208B0B110B50B4A5060C36A03B193600024094B1C70094B1C703A
:4036C000094B1C60094B1C7000F090FB084B1C70084B1C70204610BD07487047C077020804870208088702080C87020809870208F3860208F88602080100160010B598B0D3
:403700003F4B14AC186859689A68DB680FC44422002103A801F0EAFE3A4B039314AB059342F6E803ADF8183004238DF81A30364A52681269079241F2960208921B22ADF8CE
:403740002420ADF8262003228DF828208DF8293006238DF82A3010238DF82B308DF82C308DF82D307223ADF8483001238DF84C302648FEF7E9F803F0BBFD09A803F046FEBE
:403780000346002839D1224B04931F4B5B689B6BA3B119685A689C68D868CDF82E10CDF83220CDF83640CDF83A0019695A69CDF83E10CDF842201B8BADF8463003A803F04A
:4037C000CFFD0346B0B90122124B1A700023124A1370124A13700C4B5B681A6A01929B6ADB88ADF808300823ADF80A3001A81DF003FB034600210A4A1160184618B010BD0A
:40380000A05C081001420810C0770208AC420208BC4C0208F4860208FC860208FD8602080C870208014B9867704700BF00F03D4018B1034AD060002070470248704700BF89
:40384000C07702080100160008B50CF079FA034B1B680BB100B1984708BD00BFCC77020848B108B5B1F5FD7F07D20A46044901F032FE002008BD03487047024808BD00BFB2
:4038800007080016010016002DE9F04FADF5077DB1F1805F03D38D189D4CA54210D9B1F1A05F03D38D189B4CA54209D99A4CA14240F20F818D1804F20124A54200F20E811D
:4038C000049317460E468046944B5B6913F0804F10D0924B5C6904F00704022C24D10520FEF7E2F900908E4B9842F8D002940123039323E04FF61C73884AD35803F01F0368
:403900004FF0B05292F84027D2B2D31A18BF012303937BB90120FEF713FA814B9842F9D000900523029309E00294012303930023009303E00523029300230093794B009A9D
:403940009A4204D140F2D5117748FDF713FE06F17046730A01935C0200210320FDF7E8F90028F9D10546824683E0B44213D3BD4211D218F805200DF1180E0EF8032041B9E3
:4039800004F180521278D2B218F805E0724500D00121013506E004F1805212780DF1180E0EF803200134013301E000210B46B3F5007FDAD3002959D0009B002B56D1049B6C
:4039C000002B48D14FF0C80B05955D46DDF804B00BF500294FEA49294846FCF7B1FF8246013D0120FDF7BAFD0AF4A403B3F5A40F01D1002DECD1059D4C4B9A4505D1FCF737
:403A00009BFF4B4B9842FAD08246BAF1000F17D14FF0C80B5B46A3461C4606A94846FCF7E1FF8246013C0120FDF798FD0AF4A403B3F5A40F03D1002CEFD15C4600E05C46A7
:403A40003A4B9A4511D1FCF777FF394B9842FAD0824601200AE0019B03F5002006A94002FCF71CFF8246012000E00120019B01330193009B23B9BAF1000F01D1BD4294D332
:403A800008B1FDF785FD00210320FDF795F90028F9D1009B33BB214B5B6913F0804F09D0029B022B06D10220FEF7FEF800901C4B9842F8D0194B1B6813F4000F12D1039BF6
:403AC00083B90020FEF73CF90090154B9842F8D008E000230093DFF86CA003E000230093DFF860A0009B63B9124B9A450BD004339A4508D0BAF1000F01D1002004E00E481B
:403B000002E00E4800E00E480DF5077DBDE8F08F0000101000800014FF070016000026400400420003004200B05D081001005000020050000200520013001600120016003F
:403B4000010016000600520048B108B5B1F5FD7F07D20A4601230449FFF796FE08BD03487047024808BD00BF070800160100160008B50023FFF788FE08BD00BF70B5C0B094
:403B800006460C4615464FF480720849684601F0A2FC05E016F8012B6A401DF80250013C002CF7D1284640B070BD00BFB05C081008B50022FFF7E2FF08BD00BF0020704769
:403BC0004FF0B053588880B2704700BF0020704708B5FDF7C3FC08BD084B1B685B6BB3F90030002B08DB590903F01F03012202FA03F3034A42F82130704700BFC47702084A
:403C000000E100E00A4B1B685B6BB3F90030002B0DDB5A0903F01F03012101FA03F32032044941F82230BFF34F8FBFF36F8F7047C477020800E100E0024BD3F8000500F077
:403C40000300704700002640024BD3F81C05C00F704700BF0000264008B5FDF7B9FB08BD70B504460D4616460320FDF7E9F8054B984205D0324629462046FDF7F7FA70BDA2
:403C8000014870BD0101880003004A00431A002BB8BF5B4293422BD310B4194BD3F83C35C3F30903884207D9411A01EB5201B1FBF2F29A1A0FD50AE0091A01EB5201B1FBBE
:403CC000F2F21A4440F2FE318A4202D803E0002201E040F2FF320A4CD4F83C1521F47F7121F00301C2F309000143C4F83C1502E00023D81A7047981A5DF8044B704700BF1C
:403D00000000264008B5034B1A684FF40041FFF7BDFF08BDC442020810B5FFF7EFFA0220FFF780FD0A4C23680A49586BFDF7C4FB23685B6BB3F90030002B08DB590903F012
:403D40001F03012202FA03F3034A42F8213010BDC47702084938081000E100E00420704708B5FDF77AFC08BD08B5FDF77AFC08BD08B5FDF7AFFE08BD08B50021FDF7B2FD71
:403D800008BD00BF704700BF704700BF00207047004870471100160000487047110016000048704711001600004870471100160000487047110016000048704711001600D8
:403DC00000487047110016000048704711001600004870471100160000487047110016000048704711001600704700BF08B5024800F076FD08BD00BFE4430208F8B5022899
:403E000072D8002972D10022134606E03B4CE45C012C01D90132D2B20133002BF6D0012A0CD1374B1B681C6801EB8102930023445B681B79023BDBB2012B59D8314B1B783A
:403E4000002B57D1304B1970E0B92D4F3C68236801EB8105AA009D186668C1EBC1014B001E44B18829822168114449686468E45A0C8039680C682244526849680B445B88CC
:403E800053801EE001281CD11D4F3C68236801EB8105AA009D186668C1EBC1014B001E44B1892982216811444D68616819440989298039680C682244526849680B445B89D4
:403EC0005380124B18700E4B1B6818680E4B1B7803EB83039A00104418F044FD034650B90121084A117006E0094B04E0084B02E0084B00E0084B1846F8BD00BFFC86020899
:403F0000C4770208FD860208F2860208098702080100160002001600FF00160070B439B9144B1B681B689968CE7F00231D460EE0104B1B681B68D968CE7FF6E7CA5C52B11D
:403F40000133CC5C1B2C01D0134400E00125B34201D2002DF2D05DB101338279CA54002204E0D4180134855C0D550132052AF8D970BC7047C477020870B504461CF056FFC9
:403F8000054620BB134B1968086A228902EB82029300143B03445A6812F0007F17D0E67B1B695A68CB69D21A06EB4606B318A28821680948184401F08EFAE37B074AD35C95
:403FC000012B04D1064A137843F002031370284670BD00BFC477020800870208F8860208F386020830B587B002891A4B1B685B699B889A4229D1044601AB07C883E807006C
:404000000022ADF81020A289ADF8122040228DF814201846FFF7B0FF054680B923681B7803F002039BB22BB10B4B1B6821460B48984704E0084B1B68214609489847094A90
:40404000137803F0FE03137000E00025284607B030BD00BFC4770208C87702080500010006000100048702084288531E9BB2132B1AD84178D1B910B40F4B1868046A02EB44
:4040800082029300143B23445A6812F0007F0FD01B695A68C369D31A01EB41011944074B5B5A1380002004E0012070470120704700205DF8044B7047C47702080087020888
:4040C000C8B1104B1B68196A038903EB83039B00143B0B445B6813F0007F0ED100B587B001AB00210491059107C883E807001846FFF742FF03E00E2070470120704707B078
:404100005DF804FBC477020800B583B00023ADF804308389ADF800300389ADF8023012238DF80430084B1B7813F0010F09D129B18DF8051068461BF0A5FF02E0C0681BF017
:40414000C1FF03B05DF804FB0487020810B4044688B10023194606E0104A52F82320944200D1012101330D4A1279934206D20029F2D0002003E00021094800E0002050B958
:4041800049B9064B1B792BB9044A42F823400133137100E003485DF8044B704710870208010016000300160070B506460D460020044606E0084B53F8243029463046984770
:4041C0000134054B1B799C4204D2044B1B7813F0010FEFD170BD00BF108702080487020883792BB100207047C25C32B9013300E00023052BF8D9002070470120704700BFBD
:4042000070B58CB004460D46BA4A137843F00103137044F20A03984200F0EB813BD842F20403984200F0DA8019D841F20203984200F0018108D8B0F5805F6AD041F2010302
:40424000984200F0F58031E341F20303984200F02B8141F20403984200F0238326E344F20603984200F013820AD843F21203984200F0AC8044F20403984200F0288115E321
:4042800044F20703984200F0B78144F20803984200F0F9810AE345F20E03984200F0ED821BD845F20203984200F07B820AD844F21003984200F0A08145F20103984200F0B8
:4042C0002582F3E245F20303984200F0838245F20C03984200F0AA82E8E245F21403984200F0D4820AD845F20F03984200F0C88245F21003984200F0C682D7E245F217031D
:40430000984200F0C68246F20103984200F0FB81CCE2794B1E683046FFF762FF60B1304619F00EFB744E00213068FFF7F7FD01213068FFF7F3FD37E0704B1A68936A1B79A1
:404340001BB34FF0B05191F8043603F03F0391F8050600F03F0043EA801391F8030600F01F0043EA003391F8001601F07F0143EA4143126B1370614A1168096BC3F307207D
:4043800048701268126B1B0C93705C4E3368186B19F0D6FA33680021186BFFF7BFFD33680121186BFFF7BAFD544B1B68986A023019F0DCFE524A05AB1068516803C305A87C
:4043C00019F0E2FA02224F4B1A706FE200234D4A13704D4A1370FFF75FF967E24B4B1B6813F0010F40F062820023ADF814308DF81630424E33689B6A93F900308DF8143085
:4044000005A819F0DBFA33689B6A93F901308DF8143001238DF81530FF238DF8163005A819F0CCFA394A136843F0010313603DE2FFF7BAFE3AE24978354B1B88ADF8143016
:40444000002319E0334A32F81320ADF808209DF8092012B93048825C00E00022012A0AD92C4A12F81320914205D12A4A32F81330ADF8143002E00133002BE3D09DF8153096
:40448000FF2B05D104D140F2CA312448FDF772F8BDF81430ADF82030ADF81C30C3F3072329781F4AD15401E20B78002B40F0FE810B7A33B91B4B0022DA809A801A4A1A60B7
:4044C0004B600C4A137803F0FE031370EEE149790F4B1B88ADF81430002336E00D4A32F81320ADF80C209DF80D20FAB90A48825C1DE000BF04870208C8420208C477020835
:40450000EC5D0810F4860208FD8602080C870208F45D0810F0860208FC860208F85D081008870208EC770208A47502080022012A0AD9AD4A12F81320914205D1AA4A32F836
:404540001330ADF8143002E00133002BC6D09DF81530FF2B05D104D140F2CA31A348FDF709F8BDF81430ADF82430ADF81430C3F3072369789E4AD154EB78002B40F09681FE
:4045800069799C4B1B88ADF81430002319E0964A32F81320ADF810209DF8112012B99648825C00E00022012A0AD98F4A12F81320914205D18C4A32F81330ADF8143002E04E
:4045C0000133002BE3D09DF81530FF2B05D104D140F2CA318548FCF7CDFFBDF81430ADF82830ADF81430C3F307230121834AD1545CE1FFF7D9FD59E1AB7E002B3FD12B7E1E
:40460000012B02D100227E4B1A70E97E794B1B88ADF81030002319E0734A32F81320ADF814209DF8152012B97348825C00E00022012A0AD96C4A12F81320914205D16A4AB6
:4046400032F81330ADF8103002E00133002BE3D09DF81130FF2B05D104D140F2CA316348FCF788FFBDF81030ADF82C30ADF81030C3F30723FF2B02D0297E624AD1540222A4
:40468000614B1A7012E102225F4B1A700EE1FFF78BFD5E4B1B7813F0010F00F00781584B1B78012B03D10222554B1A70FEE0032B03D10022524B1A70F8E0022B40F0F680ED
:4046C00000224F4B1A70524B1B685B68514A1178C1EBC10203EB42039A79002A00F0E6809B88002B00F0E2804B4B1B78002B40F0DD800120FFF782FB002840F0D780012251
:404700003F4B1A70D2E0FFF74FFDCFE00B88ADF800309DF801301BB90221374AD15405E023B940F286313148FCF724FF6A7829882D4B23F812106B780021384AD15403EBDD
:404740004302374E9119324B1B6818692B7803EB430303F584531033034433F8060F9B7890538B70687800EB400002213044FFF71FFA6B7803EB430333449B7898420BD0DC
:40478000284B1B680021284898476B7803EB4303981900229A53827029462046FFF704FD84E00B88ADF804309DF805301BB90021114AD15405E023B940F286310B48FCF7FF
:4047C000D9FE6B7800210D4AD15429462046FFF7EBFC6BE00B88ADF814301723ADF8163005A81BF05BFC61E0F0860208F85D0810F8860208F45D0810FC860208E4770208A5
